{
	"data": {
		"bytecode": {
			"linkReferences": {},
			"object": "6080604052348015600e575f5ffd5b506129ca8061001c5f395ff3fe608060405260043610610090575f3560e01c8063571a26a011610058578063571a26a01461018e5780636718afb3146101d0578063a2aa43371461020c578063d7c0691914610234578063ff8952391461025e57610090565b8063278ecde1146100945780632ad71573146100d05780633f1ffcec146100fa5780634129b2c914610136578063454a2ab314610172575b5f5ffd5b34801561009f575f5ffd5b506100ba60048036038101906100b59190611617565b61029a565b6040516100c79190611651565b60405180910390f35b3480156100db575f5ffd5b506100e46105f2565b6040516100f19190611651565b60405180910390f35b348015610105575f5ffd5b50610120600480360381019061011b91906116c4565b6105f7565b60405161012d9190611651565b60405180910390f35b348015610141575f5ffd5b5061015c60048036038101906101579190611617565b610617565b6040516101699190611711565b60405180910390f35b61018c60048036038101906101879190611617565b6106ed565b005b348015610199575f5ffd5b506101b460048036038101906101af9190611617565b610991565b6040516101c7979695949392919061180d565b60405180910390f35b3480156101db575f5ffd5b506101f660048036038101906101f19190611617565b610a9f565b6040516102039190611651565b60405180910390f35b348015610217575f5ffd5b50610232600480360381019061022d9190611617565b610e2b565b005b34801561023f575f5ffd5b50610248611045565b6040516102559190611a4a565b60405180910390f35b348015610269575f5ffd5b50610284600480360381019061027f9190611b96565b611299565b6040516102919190611651565b60405180910390f35b5f5f60015f8481526020019081526020015f2090505f831180156102bf57505f548311155b6102fe576040517f08c379a00000000000000000000000000000000000000000000000000000000081526004016102f590611c3a565b60405180910390fd5b80600301544211610344576040517f08c379a000000000000000000000000000000000000000000000000000000000815260040161033b90611ca2565b60405180910390fd5b3373ffffffffffffffffffffffffffffffffffffffff16816004015f9054906101000a900473ffffffffffffffffffffffffffffffffffffffff1673ffffffffffffffffffffffffffffffffffffffff16036103d5576040517f08c379a00000000000000000000000000000000000000000000000000000000081526004016103cc90611d30565b60405180910390fd5b5f60025f8581526020019081526020015f205f3373ffffffffffffffffffffffffffffffffffffffff1673ffffffffffffffffffffffffffffffffffffffff1681526020019081526020015f205411610463576040517f08c379a000000000000000000000000000000000000000000000000000000000815260040161045a90611d98565b60405180910390fd5b5f60025f8581526020019081526020015f205f3373ffffffffffffffffffffffffffffffffffffffff1673ffffffffffffffffffffffffffffffffffffffff1681526020019081526020015f205490505f3373ffffffffffffffffffffffffffffffffffffffff16826040516104d890611de3565b5f6040518083038185875af1925050503d805f8114610512576040519150601f19603f3d011682016040523d82523d5f602084013e610517565b606091505b505090508061055b576040517f08c379a000000000000000000000000000000000000000000000000000000000815260040161055290611e41565b60405180910390fd5b7f21e12a7cad0da5928167e1084ea4d5fdf8d9af66657a2543a9ac76a0ca08147785338460405161058e93929190611e5f565b60405180910390a15f60025f8781526020019081526020015f205f3373ffffffffffffffffffffffffffffffffffffffff1673ffffffffffffffffffffffffffffffffffffffff1681526020019081526020015f2081905550819350505050919050565b5f5481565b6002602052815f5260405f20602052805f5260405f205f91509150505481565b5f5f60015f8481526020019081526020015f2090505f8311801561063c57505f548311155b61067b576040517f08c379a000000000000000000000000000000000000000000000000000000000815260040161067290611c3a565b60405180910390fd5b806003015442116106c1576040517f08c379a00000000000000000000000000000000000000000000000000000000081526004016106b890611ca2565b60405180910390fd5b806004015f9054906101000a900473ffffffffffffffffffffffffffffffffffffffff16915050919050565b5f60015f8381526020019081526020015f2090505f8211801561071157505f548211155b610750576040517f08c379a000000000000000000000000000000000000000000000000000000000815260040161074790611c3a565b60405180910390fd5b662386f26fc1000034101561079a576040517f08c379a000000000000000000000000000000000000000000000000000000000815260040161079190611f04565b60405180910390fd5b5f60025f8481526020019081526020015f205f3373ffffffffffffffffffffffffffffffffffffffff1673ffffffffffffffffffffffffffffffffffffffff1681526020019081526020015f205414610828576040517f08c379a000000000000000000000000000000000000000000000000000000000815260040161081f90611f6c565b60405180910390fd5b8060030154421061086e576040517f08c379a000000000000000000000000000000000000000000000000000000000815260040161086590611fd4565b60405180910390fd5b806005015434116108b4576040517f08c379a00000000000000000000000000000000000000000000000000000000081526004016108ab90612062565b60405180910390fd5b33816004015f6101000a81548173ffffffffffffffffffffffffffffffffffffffff021916908373ffffffffffffffffffffffffffffffffffffffff1602179055503481600501819055503460025f8481526020019081526020015f205f3373ffffffffffffffffffffffffffffffffffffffff1673ffffffffffffffffffffffffffffffffffffffff1681526020019081526020015f20819055507f3138d8d517460c959fb333d4e8d87ea984f1cf15d6742c02e2955dd27a622b70823334426040516109859493929190612080565b60405180910390a15050565b6001602052805f5260405f205f91509050805f015490806001015f9054906101000a900473ffffffffffffffffffffffffffffffffffffffff16908060020180546109db906120f0565b80601f0160208091040260200160405190810160405280929190818152602001828054610a07906120f0565b8015610a525780601f10610a2957610100808354040283529160200191610a52565b820191905f5260205f20905b815481529060010190602001808311610a3557829003601f168201915b505050505090806003015490806004015f9054906101000a900473ffffffffffffffffffffffffffffffffffffffff1690806005015490806006015f9054906101000a900460ff16905087565b5f5f60015f8481526020019081526020015f2090505f83118015610ac457505f548311155b610b03576040517f08c379a0000000000000000000000000000000000000000000000000000000008152600401610afa90611c3a565b60405180910390fd5b80600301544211610b49576040517f08c379a0000000000000000000000000000000000000000000000000000000008152600401610b4090611ca2565b60405180910390fd5b3373ffffffffffffffffffffffffffffffffffffffff16816001015f9054906101000a900473ffffffffffffffffffffffffffffffffffffffff1673ffffffffffffffffffffffffffffffffffffffff1614610bda576040517f08c379a0000000000000000000000000000000000000000000000000000000008152600401610bd190612190565b60405180910390fd5b600280811115610bed57610bec61179a565b5b816006015f9054906101000a900460ff166002811115610c1057610c0f61179a565b5b03610c50576040517f08c379a0000000000000000000000000000000000000000000000000000000008152600401610c47906121f8565b60405180910390fd5b60016002811115610c6457610c6361179a565b5b816006015f9054906101000a900460ff166002811115610c8757610c8661179a565b5b14610cc7576040517f08c379a0000000000000000000000000000000000000000000000000000000008152600401610cbe90612286565b60405180910390fd5b5f816005015490505f8111610d11576040517f08c379a0000000000000000000000000000000000000000000000000000000008152600401610d08906122ee565b60405180910390fd5b5f3373ffffffffffffffffffffffffffffffffffffffff1682604051610d3690611de3565b5f6040518083038185875af1925050503d805f8114610d70576040519150601f19603f3d011682016040523d82523d5f602084013e610d75565b606091505b5050905080610db9576040517f08c379a0000000000000000000000000000000000000000000000000000000008152600401610db090611e41565b60405180910390fd5b7f9da6493a92039daf47d1f2d7a782299c5994c6323eb1e972f69c432089ec52bf853384604051610dec93929190611e5f565b60405180910390a16002836006015f6101000a81548160ff02191690836002811115610e1b57610e1a61179a565b5b0217905550819350505050919050565b5f60015f8381526020019081526020015f2090505f82118015610e4f57505f548211155b610e8e576040517f08c379a0000000000000000000000000000000000000000000000000000000008152600401610e8590611c3a565b60405180910390fd5b80600301544211610ed4576040517f08c379a0000000000000000000000000000000000000000000000000000000008152600401610ecb90611ca2565b60405180910390fd5b60016002811115610ee857610ee761179a565b5b816006015f9054906101000a900460ff166002811115610f0b57610f0a61179a565b5b10610f4b576040517f08c379a0000000000000000000000000000000000000000000000000000000008152600401610f4290612356565b60405180910390fd5b3373ffffffffffffffffffffffffffffffffffffffff16816004015f9054906101000a900473ffffffffffffffffffffffffffffffffffffffff1673ffffffffffffffffffffffffffffffffffffffff1614610fdc576040517f08c379a0000000000000000000000000000000000000000000000000000000008152600401610fd3906123e4565b60405180910390fd5b6001816006015f6101000a81548160ff021916908360028111156110035761100261179a565b5b02179055507f4d1b16daa5eb3f85f29fb9542c90c5a370533ab7fd32ef5787e27193ed2faaa68233604051611039929190612402565b60405180910390a15050565b60605f5f5467ffffffffffffffff81111561106357611062611a72565b5b60405190808252806020026020018201604052801561109c57816020015b61108961155e565b8152602001906001900390816110815790505b5090505f5f90505b5f548110156112915760015f6001836110bd9190612456565b81526020019081526020015f206040518060e00160405290815f8201548152602001600182015f9054906101000a900473ffffffffffffffffffffffffffffffffffffffff1673ffffffffffffffffffffffffffffffffffffffff1673ffffffffffffffffffffffffffffffffffffffff168152602001600282018054611143906120f0565b80601f016020809104026020016040519081016040528092919081815260200182805461116f906120f0565b80156111ba5780601f10611191576101008083540402835291602001916111ba565b820191905f5260205f20905b81548152906001019060200180831161119d57829003601f168201915b5050505050815260200160038201548152602001600482015f9054906101000a900473ffffffffffffffffffffffffffffffffffffffff1673ffffffffffffffffffffffffffffffffffffffff1673ffffffffffffffffffffffffffffffffffffffff16815260200160058201548152602001600682015f9054906101000a900460ff1660028111156112505761124f61179a565b5b60028111156112625761126161179a565b5b8152505082828151811061127957611278612489565b5b602002602001018190525080806001019150506110a4565b508091505090565b5f5f603c836112a891906124b6565b9050603c81101580156112be575062093a808111155b6112fd576040517f08c379a00000000000000000000000000000000000000000000000000000000081526004016112f490612567565b60405180910390fd5b5f845111611340576040517f08c379a0000000000000000000000000000000000000000000000000000000008152600401611337906125f5565b60405180910390fd5b5f5f815461134d90612613565b919050819055506040518060e001604052805f5481526020013373ffffffffffffffffffffffffffffffffffffffff16815260200185815260200182426113949190612456565b81526020015f73ffffffffffffffffffffffffffffffffffffffff1681526020015f81526020015f60028111156113ce576113cd61179a565b5b81525060015f5f5481526020019081526020015f205f820151815f01556020820151816001015f6101000a81548173ffffffffffffffffffffffffffffffffffffffff021916908373ffffffffffffffffffffffffffffffffffffffff160217905550604082015181600201908161144691906127fa565b50606082015181600301556080820151816004015f6101000a81548173ffffffffffffffffffffffffffffffffffffffff021916908373ffffffffffffffffffffffffffffffffffffffff16021790555060a0820151816005015560c0820151816006015f6101000a81548160ff021916908360028111156114cb576114ca61179a565b5b02179055509050505f60015f5f5481526020019081526020015f2090507f568694aa4b5066fe5362111fcfda3f97f456688bc2adc2538c2f2c1acf954b34815f0154826001015f9054906101000a900473ffffffffffffffffffffffffffffffffffffffff1683600201846003015460405161154a949392919061294a565b60405180910390a15f549250505092915050565b6040518060e001604052805f81526020015f73ffffffffffffffffffffffffffffffffffffffff168152602001606081526020015f81526020015f73ffffffffffffffffffffffffffffffffffffffff1681526020015f81526020015f60028111156115cd576115cc61179a565b5b81525090565b5f604051905090565b5f5ffd5b5f5ffd5b5f819050919050565b6115f6816115e4565b8114611600575f5ffd5b50565b5f81359050611611816115ed565b92915050565b5f6020828403121561162c5761162b6115dc565b5b5f61163984828501611603565b91505092915050565b61164b816115e4565b82525050565b5f6020820190506116645f830184611642565b92915050565b5f73ffffffffffffffffffffffffffffffffffffffff82169050919050565b5f6116938261166a565b9050919050565b6116a381611689565b81146116ad575f5ffd5b50565b5f813590506116be8161169a565b92915050565b5f5f604083850312156116da576116d96115dc565b5b5f6116e785828601611603565b92505060206116f8858286016116b0565b9150509250929050565b61170b81611689565b82525050565b5f6020820190506117245f830184611702565b92915050565b5f81519050919050565b5f82825260208201905092915050565b8281835e5f83830152505050565b5f601f19601f8301169050919050565b5f61176c8261172a565b6117768185611734565b9350611786818560208601611744565b61178f81611752565b840191505092915050565b7f4e487b71000000000000000000000000000000000000000000000000000000005f52602160045260245ffd5b600381106117d8576117d761179a565b5b50565b5f8190506117e8826117c7565b919050565b5f6117f7826117db565b9050919050565b611807816117ed565b82525050565b5f60e0820190506118205f83018a611642565b61182d6020830189611702565b818103604083015261183f8188611762565b905061184e6060830187611642565b61185b6080830186611702565b61186860a0830185611642565b61187560c08301846117fe565b98975050505050505050565b5f81519050919050565b5f82825260208201905092915050565b5f819050602082019050919050565b6118b3816115e4565b82525050565b6118c281611689565b82525050565b5f82825260208201905092915050565b5f6118e28261172a565b6118ec81856118c8565b93506118fc818560208601611744565b61190581611752565b840191505092915050565b611919816117ed565b82525050565b5f60e083015f8301516119345f8601826118aa565b50602083015161194760208601826118b9565b506040830151848203604086015261195f82826118d8565b915050606083015161197460608601826118aa565b50608083015161198760808601826118b9565b5060a083015161199a60a08601826118aa565b5060c08301516119ad60c0860182611910565b508091505092915050565b5f6119c3838361191f565b905092915050565b5f602082019050919050565b5f6119e182611881565b6119eb818561188b565b9350836020820285016119fd8561189b565b805f5b85811015611a385784840389528151611a1985826119b8565b9450611a24836119cb565b925060208a01995050600181019050611a00565b50829750879550505050505092915050565b5f6020820190508181035f830152611a6281846119d7565b905092915050565b5f5ffd5b5f5ffd5b7f4e487b71000000000000000000000000000000000000000000000000000000005f52604160045260245ffd5b611aa882611752565b810181811067ffffffffffffffff82111715611ac757611ac6611a72565b5b80604052505050565b5f611ad96115d3565b9050611ae58282611a9f565b919050565b5f67ffffffffffffffff821115611b0457611b03611a72565b5b611b0d82611752565b9050602081019050919050565b828183375f83830152505050565b5f611b3a611b3584611aea565b611ad0565b905082815260208101848484011115611b5657611b55611a6e565b5b611b61848285611b1a565b509392505050565b5f82601f830112611b7d57611b7c611a6a565b5b8135611b8d848260208601611b28565b91505092915050565b5f5f60408385031215611bac57611bab6115dc565b5b5f83013567ffffffffffffffff811115611bc957611bc86115e0565b5b611bd585828601611b69565b9250506020611be685828601611603565b9150509250929050565b7f4c612073756261737461206e6f206578697374652e00000000000000000000005f82015250565b5f611c24601583611734565b9150611c2f82611bf0565b602082019050919050565b5f6020820190508181035f830152611c5181611c18565b9050919050565b7f4c612073756261737461206e6f206861207465726d696e61646f2e00000000005f82015250565b5f611c8c601b83611734565b9150611c9782611c58565b602082019050919050565b5f6020820190508181035f830152611cb981611c80565b9050919050565b7f4e6f2070756564657320726574697261722074752070756a612c2068617320675f8201527f616e61646f206c61207375626173746100000000000000000000000000000000602082015250565b5f611d1a603083611734565b9150611d2582611cc0565b604082019050919050565b5f6020820190508181035f830152611d4781611d0e565b9050919050565b7f4e6f206861732070756a61646f20656e206573746120737562617374612e00005f82015250565b5f611d82601e83611734565b9150611d8d82611d4e565b602082019050919050565b5f6020820190508181035f830152611daf81611d76565b9050919050565b5f81905092915050565b50565b5f611dce5f83611db6565b9150611dd982611dc0565b5f82019050919050565b5f611ded82611dc3565b9150819050919050565b7f4c61207472616e73666572656e6369612068612066616c6c61646f00000000005f82015250565b5f611e2b601b83611734565b9150611e3682611df7565b602082019050919050565b5f6020820190508181035f830152611e5881611e1f565b9050919050565b5f606082019050611e725f830186611642565b611e7f6020830185611702565b611e8c6040830184611642565b949350505050565b7f4c612070756a61207469656e65207175652073657220646520616c206d656e6f5f8201527f7320302e30312065746865722e00000000000000000000000000000000000000602082015250565b5f611eee602d83611734565b9150611ef982611e94565b604082019050919050565b5f6020820190508181035f830152611f1b81611ee2565b9050919050565b7f4e6f2070756564657320766f6c76657220612070756a61722e000000000000005f82015250565b5f611f56601983611734565b9150611f6182611f22565b602082019050919050565b5f6020820190508181035f830152611f8381611f4a565b9050919050565b7f4c612073756261737461207961206861207465726d696e61646f2e00000000005f82015250565b5f611fbe601b83611734565b9150611fc982611f8a565b602082019050919050565b5f6020820190508181035f830152611feb81611fb2565b9050919050565b7f4c612070756a61207469656e652071756520736572206d61796f7220717565205f8201527f6c612070756a612061637475616c2e0000000000000000000000000000000000602082015250565b5f61204c602f83611734565b915061205782611ff2565b604082019050919050565b5f6020820190508181035f83015261207981612040565b9050919050565b5f6080820190506120935f830187611642565b6120a06020830186611702565b6120ad6040830185611642565b6120ba6060830184611642565b95945050505050565b7f4e487b71000000000000000000000000000000000000000000000000000000005f52602260045260245ffd5b5f600282049050600182168061210757607f821691505b60208210810361211a576121196120c3565b5b50919050565b7f536f6c6f20656c2063726561646f72206465206c6120737562617374612070755f8201527f65646520636f627261726c610000000000000000000000000000000000000000602082015250565b5f61217a602c83611734565b915061218582612120565b604082019050919050565b5f6020820190508181035f8301526121a78161216e565b9050919050565b7f596120736520636f62726f206c6120737562617374612e0000000000000000005f82015250565b5f6121e2601783611734565b91506121ed826121ae565b602082019050919050565b5f6020820190508181035f83015261220f816121d6565b9050919050565b7f456c20636f6d707261646f72206e6f20686120636f6e6669726d61646f206c615f8201527f20656e74726567612064656c206172746963756c6f0000000000000000000000602082015250565b5f612270603583611734565b915061227b82612216565b604082019050919050565b5f6020820190508181035f83015261229d81612264565b9050919050565b7f4e6f2068617920666f6e646f73207061726120726574697261722e00000000005f82015250565b5f6122d8601b83611734565b91506122e3826122a4565b602082019050919050565b5f6020820190508181035f830152612305816122cc565b9050919050565b7f4c6120656e7472656761207961206861207369646f20636f6e6669726d6164615f82015250565b5f612340602083611734565b915061234b8261230c565b602082019050919050565b5f6020820190508181035f83015261236d81612334565b9050919050565b7f536f6c6f206c612070756a612067616e61646f726120707565646520636f6e665f8201527f69726d6172206c6120656e74726567612064656c206172746963756c6f000000602082015250565b5f6123ce603d83611734565b91506123d982612374565b604082019050919050565b5f6020820190508181035f8301526123fb816123c2565b9050919050565b5f6040820190506124155f830185611642565b6124226020830184611702565b9392505050565b7f4e487b71000000000000000000000000000000000000000000000000000000005f52601160045260245ffd5b5f612460826115e4565b915061246b836115e4565b925082820190508082111561248357612482612429565b5b92915050565b7f4e487b71000000000000000000000000000000000000000000000000000000005f52603260045260245ffd5b5f6124c0826115e4565b91506124cb836115e4565b92508282026124d9816115e4565b915082820484148315176124f0576124ef612429565b5b5092915050565b7f456c207469656d706f2064652073756261737461206e6f2065732076616c69645f8201527f61646f0000000000000000000000000000000000000000000000000000000000602082015250565b5f612551602383611734565b915061255c826124f7565b604082019050919050565b5f6020820190508181035f83015261257e81612545565b9050919050565b7f4c61206465736372697063696f6e206e6f2070756564652065737461722076615f8201527f6369610000000000000000000000000000000000000000000000000000000000602082015250565b5f6125df602383611734565b91506125ea82612585565b604082019050919050565b5f6020820190508181035f83015261260c816125d3565b9050919050565b5f61261d826115e4565b91507fffffffffffffffffffffffffffffffffffffffffffffffffffffffffffffffff820361264f5761264e612429565b5b600182019050919050565b5f819050815f5260205f209050919050565b5f6020601f8301049050919050565b5f82821b905092915050565b5f600883026126b67fffffffffffffffffffffffffffffffffffffffffffffffffffffffffffffffff8261267b565b6126c0868361267b565b95508019841693508086168417925050509392505050565b5f819050919050565b5f6126fb6126f66126f1846115e4565b6126d8565b6115e4565b9050919050565b5f819050919050565b612714836126e1565b61272861272082612702565b848454612687565b825550505050565b5f5f905090565b61273f612730565b61274a81848461270b565b505050565b5b8181101561276d576127625f82612737565b600181019050612750565b5050565b601f8211156127b2576127838161265a565b61278c8461266c565b8101602085101561279b578190505b6127af6127a78561266c565b83018261274f565b50505b505050565b5f82821c905092915050565b5f6127d25f19846008026127b7565b1980831691505092915050565b5f6127ea83836127c3565b9150826002028217905092915050565b6128038261172a565b67ffffffffffffffff81111561281c5761281b611a72565b5b61282682546120f0565b612831828285612771565b5f60209050601f831160018114612862575f8415612850578287015190505b61285a85826127df565b8655506128c1565b601f1984166128708661265a565b5f5b8281101561289757848901518255600182019150602085019450602081019050612872565b868310156128b457848901516128b0601f8916826127c3565b8355505b6001600288020188555050505b505050505050565b5f81546128d5816120f0565b6128df8186611734565b9450600182165f81146128f9576001811461290f57612941565b60ff198316865281151560200286019350612941565b6129188561265a565b5f5b838110156129395781548189015260018201915060208101905061291a565b808801955050505b50505092915050565b5f60808201905061295d5f830187611642565b61296a6020830186611702565b818103604083015261297c81856128c9565b905061298b6060830184611642565b9594505050505056fea2646970667358221220796ff6722026b2745884643969c55812005bc4d5a35e7050a3b7926cee9fea6a64736f6c634300081f0033",
			"opcodes": "PUSH1 0x80 PUSH1 0x40 MSTORE CALLVALUE DUP1 ISZERO PUSH1 0xE JUMPI PUSH0 PUSH0 REVERT JUMPDEST POP PUSH2 0x29CA DUP1 PUSH2 0x1C PUSH0 CODECOPY PUSH0 RETURN INVALID PUSH1 0x80 PUSH1 0x40 MSTORE PUSH1 0x4 CALLDATASIZE LT PUSH2 0x90 JUMPI PUSH0 CALLDATALOAD PUSH1 0xE0 SHR DUP1 PUSH4 0x571A26A0 GT PUSH2 0x58 JUMPI DUP1 PUSH4 0x571A26A0 EQ PUSH2 0x18E JUMPI DUP1 PUSH4 0x6718AFB3 EQ PUSH2 0x1D0 JUMPI DUP1 PUSH4 0xA2AA4337 EQ PUSH2 0x20C JUMPI DUP1 PUSH4 0xD7C06919 EQ PUSH2 0x234 JUMPI DUP1 PUSH4 0xFF895239 EQ PUSH2 0x25E JUMPI PUSH2 0x90 JUMP JUMPDEST DUP1 PUSH4 0x278ECDE1 EQ PUSH2 0x94 JUMPI DUP1 PUSH4 0x2AD71573 EQ PUSH2 0xD0 JUMPI DUP1 PUSH4 0x3F1FFCEC EQ PUSH2 0xFA JUMPI DUP1 PUSH4 0x4129B2C9 EQ PUSH2 0x136 JUMPI DUP1 PUSH4 0x454A2AB3 EQ PUSH2 0x172 JUMPI JUMPDEST PUSH0 PUSH0 REVERT JUMPDEST CALLVALUE DUP1 ISZERO PUSH2 0x9F JUMPI PUSH0 PUSH0 REVERT JUMPDEST POP PUSH2 0xBA PUSH1 0x4 DUP1 CALLDATASIZE SUB DUP2 ADD SWAP1 PUSH2 0xB5 SWAP2 SWAP1 PUSH2 0x1617 JUMP JUMPDEST PUSH2 0x29A JUMP JUMPDEST PUSH1 0x40 MLOAD PUSH2 0xC7 SWAP2 SWAP1 PUSH2 0x1651 JUMP JUMPDEST PUSH1 0x40 MLOAD DUP1 SWAP2 SUB SWAP1 RETURN JUMPDEST CALLVALUE DUP1 ISZERO PUSH2 0xDB JUMPI PUSH0 PUSH0 REVERT JUMPDEST POP PUSH2 0xE4 PUSH2 0x5F2 JUMP JUMPDEST PUSH1 0x40 MLOAD PUSH2 0xF1 SWAP2 SWAP1 PUSH2 0x1651 JUMP JUMPDEST PUSH1 0x40 MLOAD DUP1 SWAP2 SUB SWAP1 RETURN JUMPDEST CALLVALUE DUP1 ISZERO PUSH2 0x105 JUMPI PUSH0 PUSH0 REVERT JUMPDEST POP PUSH2 0x120 PUSH1 0x4 DUP1 CALLDATASIZE SUB DUP2 ADD SWAP1 PUSH2 0x11B SWAP2 SWAP1 PUSH2 0x16C4 JUMP JUMPDEST PUSH2 0x5F7 JUMP JUMPDEST PUSH1 0x40 MLOAD PUSH2 0x12D SWAP2 SWAP1 PUSH2 0x1651 JUMP JUMPDEST PUSH1 0x40 MLOAD DUP1 SWAP2 SUB SWAP1 RETURN JUMPDEST CALLVALUE DUP1 ISZERO PUSH2 0x141 JUMPI PUSH0 PUSH0 REVERT JUMPDEST POP PUSH2 0x15C PUSH1 0x4 DUP1 CALLDATASIZE SUB DUP2 ADD SWAP1 PUSH2 0x157 SWAP2 SWAP1 PUSH2 0x1617 JUMP JUMPDEST PUSH2 0x617 JUMP JUMPDEST PUSH1 0x40 MLOAD PUSH2 0x169 SWAP2 SWAP1 PUSH2 0x1711 JUMP JUMPDEST PUSH1 0x40 MLOAD DUP1 SWAP2 SUB SWAP1 RETURN JUMPDEST PUSH2 0x18C PUSH1 0x4 DUP1 CALLDATASIZE SUB DUP2 ADD SWAP1 PUSH2 0x187 SWAP2 SWAP1 PUSH2 0x1617 JUMP JUMPDEST PUSH2 0x6ED JUMP JUMPDEST STOP JUMPDEST CALLVALUE DUP1 ISZERO PUSH2 0x199 JUMPI PUSH0 PUSH0 REVERT JUMPDEST POP PUSH2 0x1B4 PUSH1 0x4 DUP1 CALLDATASIZE SUB DUP2 ADD SWAP1 PUSH2 0x1AF SWAP2 SWAP1 PUSH2 0x1617 JUMP JUMPDEST PUSH2 0x991 JUMP JUMPDEST PUSH1 0x40 MLOAD PUSH2 0x1C7 SWAP8 SWAP7 SWAP6 SWAP5 SWAP4 SWAP3 SWAP2 SWAP1 PUSH2 0x180D JUMP JUMPDEST PUSH1 0x40 MLOAD DUP1 SWAP2 SUB SWAP1 RETURN JUMPDEST CALLVALUE DUP1 ISZERO PUSH2 0x1DB JUMPI PUSH0 PUSH0 REVERT JUMPDEST POP PUSH2 0x1F6 PUSH1 0x4 DUP1 CALLDATASIZE SUB DUP2 ADD SWAP1 PUSH2 0x1F1 SWAP2 SWAP1 PUSH2 0x1617 JUMP JUMPDEST PUSH2 0xA9F JUMP JUMPDEST PUSH1 0x40 MLOAD PUSH2 0x203 SWAP2 SWAP1 PUSH2 0x1651 JUMP JUMPDEST PUSH1 0x40 MLOAD DUP1 SWAP2 SUB SWAP1 RETURN JUMPDEST CALLVALUE DUP1 ISZERO PUSH2 0x217 JUMPI PUSH0 PUSH0 REVERT JUMPDEST POP PUSH2 0x232 PUSH1 0x4 DUP1 CALLDATASIZE SUB DUP2 ADD SWAP1 PUSH2 0x22D SWAP2 SWAP1 PUSH2 0x1617 JUMP JUMPDEST PUSH2 0xE2B JUMP JUMPDEST STOP JUMPDEST CALLVALUE DUP1 ISZERO PUSH2 0x23F JUMPI PUSH0 PUSH0 REVERT JUMPDEST POP PUSH2 0x248 PUSH2 0x1045 JUMP JUMPDEST PUSH1 0x40 MLOAD PUSH2 0x255 SWAP2 SWAP1 PUSH2 0x1A4A JUMP JUMPDEST PUSH1 0x40 MLOAD DUP1 SWAP2 SUB SWAP1 RETURN JUMPDEST CALLVALUE DUP1 ISZERO PUSH2 0x269 JUMPI PUSH0 PUSH0 REVERT JUMPDEST POP PUSH2 0x284 PUSH1 0x4 DUP1 CALLDATASIZE SUB DUP2 ADD SWAP1 PUSH2 0x27F SWAP2 SWAP1 PUSH2 0x1B96 JUMP JUMPDEST PUSH2 0x1299 JUMP JUMPDEST PUSH1 0x40 MLOAD PUSH2 0x291 SWAP2 SWAP1 PUSH2 0x1651 JUMP JUMPDEST PUSH1 0x40 MLOAD DUP1 SWAP2 SUB SWAP1 RETURN JUMPDEST PUSH0 PUSH0 PUSH1 0x1 PUSH0 DUP5 DUP2 MSTORE PUSH1 0x20 ADD SWAP1 DUP2 MSTORE PUSH1 0x20 ADD PUSH0 KECCAK256 SWAP1 POP PUSH0 DUP4 GT DUP1 ISZERO PUSH2 0x2BF JUMPI POP PUSH0 SLOAD DUP4 GT ISZERO JUMPDEST PUSH2 0x2FE JUMPI PUSH1 0x40 MLOAD PUSH32 0x8C379A000000000000000000000000000000000000000000000000000000000 DUP2 MSTORE PUSH1 0x4 ADD PUSH2 0x2F5 SWAP1 PUSH2 0x1C3A JUMP JUMPDEST PUSH1 0x40 MLOAD DUP1 SWAP2 SUB SWAP1 REVERT JUMPDEST DUP1 PUSH1 0x3 ADD SLOAD TIMESTAMP GT PUSH2 0x344 JUMPI PUSH1 0x40 MLOAD PUSH32 0x8C379A000000000000000000000000000000000000000000000000000000000 DUP2 MSTORE PUSH1 0x4 ADD PUSH2 0x33B SWAP1 PUSH2 0x1CA2 JUMP JUMPDEST PUSH1 0x40 MLOAD DUP1 SWAP2 SUB SWAP1 REVERT JUMPDEST CALLER PUSH20 0xFFFFFFFFFFFFFFFFFFFFFFFFFFFFFFFFFFFFFFFF AND DUP2 PUSH1 0x4 ADD PUSH0 SWAP1 SLOAD SWAP1 PUSH2 0x100 EXP SWAP1 DIV PUSH20 0xFFFFFFFFFFFFFFFFFFFFFFFFFFFFFFFFFFFFFFFF AND PUSH20 0xFFFFFFFFFFFFFFFFFFFFFFFFFFFFFFFFFFFFFFFF AND SUB PUSH2 0x3D5 JUMPI PUSH1 0x40 MLOAD PUSH32 0x8C379A000000000000000000000000000000000000000000000000000000000 DUP2 MSTORE PUSH1 0x4 ADD PUSH2 0x3CC SWAP1 PUSH2 0x1D30 JUMP JUMPDEST PUSH1 0x40 MLOAD DUP1 SWAP2 SUB SWAP1 REVERT JUMPDEST PUSH0 PUSH1 0x2 PUSH0 DUP6 DUP2 MSTORE PUSH1 0x20 ADD SWAP1 DUP2 MSTORE PUSH1 0x20 ADD PUSH0 KECCAK256 PUSH0 CALLER PUSH20 0xFFFFFFFFFFFFFFFFFFFFFFFFFFFFFFFFFFFFFFFF AND PUSH20 0xFFFFFFFFFFFFFFFFFFFFFFFFFFFFFFFFFFFFFFFF AND DUP2 MSTORE PUSH1 0x20 ADD SWAP1 DUP2 MSTORE PUSH1 0x20 ADD PUSH0 KECCAK256 SLOAD GT PUSH2 0x463 JUMPI PUSH1 0x40 MLOAD PUSH32 0x8C379A000000000000000000000000000000000000000000000000000000000 DUP2 MSTORE PUSH1 0x4 ADD PUSH2 0x45A SWAP1 PUSH2 0x1D98 JUMP JUMPDEST PUSH1 0x40 MLOAD DUP1 SWAP2 SUB SWAP1 REVERT JUMPDEST PUSH0 PUSH1 0x2 PUSH0 DUP6 DUP2 MSTORE PUSH1 0x20 ADD SWAP1 DUP2 MSTORE PUSH1 0x20 ADD PUSH0 KECCAK256 PUSH0 CALLER PUSH20 0xFFFFFFFFFFFFFFFFFFFFFFFFFFFFFFFFFFFFFFFF AND PUSH20 0xFFFFFFFFFFFFFFFFFFFFFFFFFFFFFFFFFFFFFFFF AND DUP2 MSTORE PUSH1 0x20 ADD SWAP1 DUP2 MSTORE PUSH1 0x20 ADD PUSH0 KECCAK256 SLOAD SWAP1 POP PUSH0 CALLER PUSH20 0xFFFFFFFFFFFFFFFFFFFFFFFFFFFFFFFFFFFFFFFF AND DUP3 PUSH1 0x40 MLOAD PUSH2 0x4D8 SWAP1 PUSH2 0x1DE3 JUMP JUMPDEST PUSH0 PUSH1 0x40 MLOAD DUP1 DUP4 SUB DUP2 DUP6 DUP8 GAS CALL SWAP3 POP POP POP RETURNDATASIZE DUP1 PUSH0 DUP2 EQ PUSH2 0x512 JUMPI PUSH1 0x40 MLOAD SWAP2 POP PUSH1 0x1F NOT PUSH1 0x3F RETURNDATASIZE ADD AND DUP3 ADD PUSH1 0x40 MSTORE RETURNDATASIZE DUP3 MSTORE RETURNDATASIZE PUSH0 PUSH1 0x20 DUP5 ADD RETURNDATACOPY PUSH2 0x517 JUMP JUMPDEST PUSH1 0x60 SWAP2 POP JUMPDEST POP POP SWAP1 POP DUP1 PUSH2 0x55B JUMPI PUSH1 0x40 MLOAD PUSH32 0x8C379A000000000000000000000000000000000000000000000000000000000 DUP2 MSTORE PUSH1 0x4 ADD PUSH2 0x552 SWAP1 PUSH2 0x1E41 JUMP JUMPDEST PUSH1 0x40 MLOAD DUP1 SWAP2 SUB SWAP1 REVERT JUMPDEST PUSH32 0x21E12A7CAD0DA5928167E1084EA4D5FDF8D9AF66657A2543A9AC76A0CA081477 DUP6 CALLER DUP5 PUSH1 0x40 MLOAD PUSH2 0x58E SWAP4 SWAP3 SWAP2 SWAP1 PUSH2 0x1E5F JUMP JUMPDEST PUSH1 0x40 MLOAD DUP1 SWAP2 SUB SWAP1 LOG1 PUSH0 PUSH1 0x2 PUSH0 DUP8 DUP2 MSTORE PUSH1 0x20 ADD SWAP1 DUP2 MSTORE PUSH1 0x20 ADD PUSH0 KECCAK256 PUSH0 CALLER PUSH20 0xFFFFFFFFFFFFFFFFFFFFFFFFFFFFFFFFFFFFFFFF AND PUSH20 0xFFFFFFFFFFFFFFFFFFFFFFFFFFFFFFFFFFFFFFFF AND DUP2 MSTORE PUSH1 0x20 ADD SWAP1 DUP2 MSTORE PUSH1 0x20 ADD PUSH0 KECCAK256 DUP2 SWAP1 SSTORE POP DUP2 SWAP4 POP POP POP POP SWAP2 SWAP1 POP JUMP JUMPDEST PUSH0 SLOAD DUP2 JUMP JUMPDEST PUSH1 0x2 PUSH1 0x20 MSTORE DUP2 PUSH0 MSTORE PUSH1 0x40 PUSH0 KECCAK256 PUSH1 0x20 MSTORE DUP1 PUSH0 MSTORE PUSH1 0x40 PUSH0 KECCAK256 PUSH0 SWAP2 POP SWAP2 POP POP SLOAD DUP2 JUMP JUMPDEST PUSH0 PUSH0 PUSH1 0x1 PUSH0 DUP5 DUP2 MSTORE PUSH1 0x20 ADD SWAP1 DUP2 MSTORE PUSH1 0x20 ADD PUSH0 KECCAK256 SWAP1 POP PUSH0 DUP4 GT DUP1 ISZERO PUSH2 0x63C JUMPI POP PUSH0 SLOAD DUP4 GT ISZERO JUMPDEST PUSH2 0x67B JUMPI PUSH1 0x40 MLOAD PUSH32 0x8C379A000000000000000000000000000000000000000000000000000000000 DUP2 MSTORE PUSH1 0x4 ADD PUSH2 0x672 SWAP1 PUSH2 0x1C3A JUMP JUMPDEST PUSH1 0x40 MLOAD DUP1 SWAP2 SUB SWAP1 REVERT JUMPDEST DUP1 PUSH1 0x3 ADD SLOAD TIMESTAMP GT PUSH2 0x6C1 JUMPI PUSH1 0x40 MLOAD PUSH32 0x8C379A000000000000000000000000000000000000000000000000000000000 DUP2 MSTORE PUSH1 0x4 ADD PUSH2 0x6B8 SWAP1 PUSH2 0x1CA2 JUMP JUMPDEST PUSH1 0x40 MLOAD DUP1 SWAP2 SUB SWAP1 REVERT JUMPDEST DUP1 PUSH1 0x4 ADD PUSH0 SWAP1 SLOAD SWAP1 PUSH2 0x100 EXP SWAP1 DIV PUSH20 0xFFFFFFFFFFFFFFFFFFFFFFFFFFFFFFFFFFFFFFFF AND SWAP2 POP POP SWAP2 SWAP1 POP JUMP JUMPDEST PUSH0 PUSH1 0x1 PUSH0 DUP4 DUP2 MSTORE PUSH1 0x20 ADD SWAP1 DUP2 MSTORE PUSH1 0x20 ADD PUSH0 KECCAK256 SWAP1 POP PUSH0 DUP3 GT DUP1 ISZERO PUSH2 0x711 JUMPI POP PUSH0 SLOAD DUP3 GT ISZERO JUMPDEST PUSH2 0x750 JUMPI PUSH1 0x40 MLOAD PUSH32 0x8C379A000000000000000000000000000000000000000000000000000000000 DUP2 MSTORE PUSH1 0x4 ADD PUSH2 0x747 SWAP1 PUSH2 0x1C3A JUMP JUMPDEST PUSH1 0x40 MLOAD DUP1 SWAP2 SUB SWAP1 REVERT JUMPDEST PUSH7 0x2386F26FC10000 CALLVALUE LT ISZERO PUSH2 0x79A JUMPI PUSH1 0x40 MLOAD PUSH32 0x8C379A000000000000000000000000000000000000000000000000000000000 DUP2 MSTORE PUSH1 0x4 ADD PUSH2 0x791 SWAP1 PUSH2 0x1F04 JUMP JUMPDEST PUSH1 0x40 MLOAD DUP1 SWAP2 SUB SWAP1 REVERT JUMPDEST PUSH0 PUSH1 0x2 PUSH0 DUP5 DUP2 MSTORE PUSH1 0x20 ADD SWAP1 DUP2 MSTORE PUSH1 0x20 ADD PUSH0 KECCAK256 PUSH0 CALLER PUSH20 0xFFFFFFFFFFFFFFFFFFFFFFFFFFFFFFFFFFFFFFFF AND PUSH20 0xFFFFFFFFFFFFFFFFFFFFFFFFFFFFFFFFFFFFFFFF AND DUP2 MSTORE PUSH1 0x20 ADD SWAP1 DUP2 MSTORE PUSH1 0x20 ADD PUSH0 KECCAK256 SLOAD EQ PUSH2 0x828 JUMPI PUSH1 0x40 MLOAD PUSH32 0x8C379A000000000000000000000000000000000000000000000000000000000 DUP2 MSTORE PUSH1 0x4 ADD PUSH2 0x81F SWAP1 PUSH2 0x1F6C JUMP JUMPDEST PUSH1 0x40 MLOAD DUP1 SWAP2 SUB SWAP1 REVERT JUMPDEST DUP1 PUSH1 0x3 ADD SLOAD TIMESTAMP LT PUSH2 0x86E JUMPI PUSH1 0x40 MLOAD PUSH32 0x8C379A000000000000000000000000000000000000000000000000000000000 DUP2 MSTORE PUSH1 0x4 ADD PUSH2 0x865 SWAP1 PUSH2 0x1FD4 JUMP JUMPDEST PUSH1 0x40 MLOAD DUP1 SWAP2 SUB SWAP1 REVERT JUMPDEST DUP1 PUSH1 0x5 ADD SLOAD CALLVALUE GT PUSH2 0x8B4 JUMPI PUSH1 0x40 MLOAD PUSH32 0x8C379A000000000000000000000000000000000000000000000000000000000 DUP2 MSTORE PUSH1 0x4 ADD PUSH2 0x8AB SWAP1 PUSH2 0x2062 JUMP JUMPDEST PUSH1 0x40 MLOAD DUP1 SWAP2 SUB SWAP1 REVERT JUMPDEST CALLER DUP2 PUSH1 0x4 ADD PUSH0 PUSH2 0x100 EXP DUP2 SLOAD DUP2 PUSH20 0xFFFFFFFFFFFFFFFFFFFFFFFFFFFFFFFFFFFFFFFF MUL NOT AND SWAP1 DUP4 PUSH20 0xFFFFFFFFFFFFFFFFFFFFFFFFFFFFFFFFFFFFFFFF AND MUL OR SWAP1 SSTORE POP CALLVALUE DUP2 PUSH1 0x5 ADD DUP2 SWAP1 SSTORE POP CALLVALUE PUSH1 0x2 PUSH0 DUP5 DUP2 MSTORE PUSH1 0x20 ADD SWAP1 DUP2 MSTORE PUSH1 0x20 ADD PUSH0 KECCAK256 PUSH0 CALLER PUSH20 0xFFFFFFFFFFFFFFFFFFFFFFFFFFFFFFFFFFFFFFFF AND PUSH20 0xFFFFFFFFFFFFFFFFFFFFFFFFFFFFFFFFFFFFFFFF AND DUP2 MSTORE PUSH1 0x20 ADD SWAP1 DUP2 MSTORE PUSH1 0x20 ADD PUSH0 KECCAK256 DUP2 SWAP1 SSTORE POP PUSH32 0x3138D8D517460C959FB333D4E8D87EA984F1CF15D6742C02E2955DD27A622B70 DUP3 CALLER CALLVALUE TIMESTAMP PUSH1 0x40 MLOAD PUSH2 0x985 SWAP5 SWAP4 SWAP3 SWAP2 SWAP1 PUSH2 0x2080 JUMP JUMPDEST PUSH1 0x40 MLOAD DUP1 SWAP2 SUB SWAP1 LOG1 POP POP JUMP JUMPDEST PUSH1 0x1 PUSH1 0x20 MSTORE DUP1 PUSH0 MSTORE PUSH1 0x40 PUSH0 KECCAK256 PUSH0 SWAP2 POP SWAP1 POP DUP1 PUSH0 ADD SLOAD SWAP1 DUP1 PUSH1 0x1 ADD PUSH0 SWAP1 SLOAD SWAP1 PUSH2 0x100 EXP SWAP1 DIV PUSH20 0xFFFFFFFFFFFFFFFFFFFFFFFFFFFFFFFFFFFFFFFF AND SWAP1 DUP1 PUSH1 0x2 ADD DUP1 SLOAD PUSH2 0x9DB SWAP1 PUSH2 0x20F0 JUMP JUMPDEST DUP1 PUSH1 0x1F ADD PUSH1 0x20 DUP1 SWAP2 DIV MUL PUSH1 0x20 ADD PUSH1 0x40 MLOAD SWAP1 DUP2 ADD PUSH1 0x40 MSTORE DUP1 SWAP3 SWAP2 SWAP1 DUP2 DUP2 MSTORE PUSH1 0x20 ADD DUP3 DUP1 SLOAD PUSH2 0xA07 SWAP1 PUSH2 0x20F0 JUMP JUMPDEST DUP1 ISZERO PUSH2 0xA52 JUMPI DUP1 PUSH1 0x1F LT PUSH2 0xA29 JUMPI PUSH2 0x100 DUP1 DUP4 SLOAD DIV MUL DUP4 MSTORE SWAP2 PUSH1 0x20 ADD SWAP2 PUSH2 0xA52 JUMP JUMPDEST DUP3 ADD SWAP2 SWAP1 PUSH0 MSTORE PUSH1 0x20 PUSH0 KECCAK256 SWAP1 JUMPDEST DUP2 SLOAD DUP2 MSTORE SWAP1 PUSH1 0x1 ADD SWAP1 PUSH1 0x20 ADD DUP1 DUP4 GT PUSH2 0xA35 JUMPI DUP3 SWAP1 SUB PUSH1 0x1F AND DUP3 ADD SWAP2 JUMPDEST POP POP POP POP POP SWAP1 DUP1 PUSH1 0x3 ADD SLOAD SWAP1 DUP1 PUSH1 0x4 ADD PUSH0 SWAP1 SLOAD SWAP1 PUSH2 0x100 EXP SWAP1 DIV PUSH20 0xFFFFFFFFFFFFFFFFFFFFFFFFFFFFFFFFFFFFFFFF AND SWAP1 DUP1 PUSH1 0x5 ADD SLOAD SWAP1 DUP1 PUSH1 0x6 ADD PUSH0 SWAP1 SLOAD SWAP1 PUSH2 0x100 EXP SWAP1 DIV PUSH1 0xFF AND SWAP1 POP DUP8 JUMP JUMPDEST PUSH0 PUSH0 PUSH1 0x1 PUSH0 DUP5 DUP2 MSTORE PUSH1 0x20 ADD SWAP1 DUP2 MSTORE PUSH1 0x20 ADD PUSH0 KECCAK256 SWAP1 POP PUSH0 DUP4 GT DUP1 ISZERO PUSH2 0xAC4 JUMPI POP PUSH0 SLOAD DUP4 GT ISZERO JUMPDEST PUSH2 0xB03 JUMPI PUSH1 0x40 MLOAD PUSH32 0x8C379A000000000000000000000000000000000000000000000000000000000 DUP2 MSTORE PUSH1 0x4 ADD PUSH2 0xAFA SWAP1 PUSH2 0x1C3A JUMP JUMPDEST PUSH1 0x40 MLOAD DUP1 SWAP2 SUB SWAP1 REVERT JUMPDEST DUP1 PUSH1 0x3 ADD SLOAD TIMESTAMP GT PUSH2 0xB49 JUMPI PUSH1 0x40 MLOAD PUSH32 0x8C379A000000000000000000000000000000000000000000000000000000000 DUP2 MSTORE PUSH1 0x4 ADD PUSH2 0xB40 SWAP1 PUSH2 0x1CA2 JUMP JUMPDEST PUSH1 0x40 MLOAD DUP1 SWAP2 SUB SWAP1 REVERT JUMPDEST CALLER PUSH20 0xFFFFFFFFFFFFFFFFFFFFFFFFFFFFFFFFFFFFFFFF AND DUP2 PUSH1 0x1 ADD PUSH0 SWAP1 SLOAD SWAP1 PUSH2 0x100 EXP SWAP1 DIV PUSH20 0xFFFFFFFFFFFFFFFFFFFFFFFFFFFFFFFFFFFFFFFF AND PUSH20 0xFFFFFFFFFFFFFFFFFFFFFFFFFFFFFFFFFFFFFFFF AND EQ PUSH2 0xBDA JUMPI PUSH1 0x40 MLOAD PUSH32 0x8C379A000000000000000000000000000000000000000000000000000000000 DUP2 MSTORE PUSH1 0x4 ADD PUSH2 0xBD1 SWAP1 PUSH2 0x2190 JUMP JUMPDEST PUSH1 0x40 MLOAD DUP1 SWAP2 SUB SWAP1 REVERT JUMPDEST PUSH1 0x2 DUP1 DUP2 GT ISZERO PUSH2 0xBED JUMPI PUSH2 0xBEC PUSH2 0x179A JUMP JUMPDEST JUMPDEST DUP2 PUSH1 0x6 ADD PUSH0 SWAP1 SLOAD SWAP1 PUSH2 0x100 EXP SWAP1 DIV PUSH1 0xFF AND PUSH1 0x2 DUP2 GT ISZERO PUSH2 0xC10 JUMPI PUSH2 0xC0F PUSH2 0x179A JUMP JUMPDEST JUMPDEST SUB PUSH2 0xC50 JUMPI PUSH1 0x40 MLOAD PUSH32 0x8C379A000000000000000000000000000000000000000000000000000000000 DUP2 MSTORE PUSH1 0x4 ADD PUSH2 0xC47 SWAP1 PUSH2 0x21F8 JUMP JUMPDEST PUSH1 0x40 MLOAD DUP1 SWAP2 SUB SWAP1 REVERT JUMPDEST PUSH1 0x1 PUSH1 0x2 DUP2 GT ISZERO PUSH2 0xC64 JUMPI PUSH2 0xC63 PUSH2 0x179A JUMP JUMPDEST JUMPDEST DUP2 PUSH1 0x6 ADD PUSH0 SWAP1 SLOAD SWAP1 PUSH2 0x100 EXP SWAP1 DIV PUSH1 0xFF AND PUSH1 0x2 DUP2 GT ISZERO PUSH2 0xC87 JUMPI PUSH2 0xC86 PUSH2 0x179A JUMP JUMPDEST JUMPDEST EQ PUSH2 0xCC7 JUMPI PUSH1 0x40 MLOAD PUSH32 0x8C379A000000000000000000000000000000000000000000000000000000000 DUP2 MSTORE PUSH1 0x4 ADD PUSH2 0xCBE SWAP1 PUSH2 0x2286 JUMP JUMPDEST PUSH1 0x40 MLOAD DUP1 SWAP2 SUB SWAP1 REVERT JUMPDEST PUSH0 DUP2 PUSH1 0x5 ADD SLOAD SWAP1 POP PUSH0 DUP2 GT PUSH2 0xD11 JUMPI PUSH1 0x40 MLOAD PUSH32 0x8C379A000000000000000000000000000000000000000000000000000000000 DUP2 MSTORE PUSH1 0x4 ADD PUSH2 0xD08 SWAP1 PUSH2 0x22EE JUMP JUMPDEST PUSH1 0x40 MLOAD DUP1 SWAP2 SUB SWAP1 REVERT JUMPDEST PUSH0 CALLER PUSH20 0xFFFFFFFFFFFFFFFFFFFFFFFFFFFFFFFFFFFFFFFF AND DUP3 PUSH1 0x40 MLOAD PUSH2 0xD36 SWAP1 PUSH2 0x1DE3 JUMP JUMPDEST PUSH0 PUSH1 0x40 MLOAD DUP1 DUP4 SUB DUP2 DUP6 DUP8 GAS CALL SWAP3 POP POP POP RETURNDATASIZE DUP1 PUSH0 DUP2 EQ PUSH2 0xD70 JUMPI PUSH1 0x40 MLOAD SWAP2 POP PUSH1 0x1F NOT PUSH1 0x3F RETURNDATASIZE ADD AND DUP3 ADD PUSH1 0x40 MSTORE RETURNDATASIZE DUP3 MSTORE RETURNDATASIZE PUSH0 PUSH1 0x20 DUP5 ADD RETURNDATACOPY PUSH2 0xD75 JUMP JUMPDEST PUSH1 0x60 SWAP2 POP JUMPDEST POP POP SWAP1 POP DUP1 PUSH2 0xDB9 JUMPI PUSH1 0x40 MLOAD PUSH32 0x8C379A000000000000000000000000000000000000000000000000000000000 DUP2 MSTORE PUSH1 0x4 ADD PUSH2 0xDB0 SWAP1 PUSH2 0x1E41 JUMP JUMPDEST PUSH1 0x40 MLOAD DUP1 SWAP2 SUB SWAP1 REVERT JUMPDEST PUSH32 0x9DA6493A92039DAF47D1F2D7A782299C5994C6323EB1E972F69C432089EC52BF DUP6 CALLER DUP5 PUSH1 0x40 MLOAD PUSH2 0xDEC SWAP4 SWAP3 SWAP2 SWAP1 PUSH2 0x1E5F JUMP JUMPDEST PUSH1 0x40 MLOAD DUP1 SWAP2 SUB SWAP1 LOG1 PUSH1 0x2 DUP4 PUSH1 0x6 ADD PUSH0 PUSH2 0x100 EXP DUP2 SLOAD DUP2 PUSH1 0xFF MUL NOT AND SWAP1 DUP4 PUSH1 0x2 DUP2 GT ISZERO PUSH2 0xE1B JUMPI PUSH2 0xE1A PUSH2 0x179A JUMP JUMPDEST JUMPDEST MUL OR SWAP1 SSTORE POP DUP2 SWAP4 POP POP POP POP SWAP2 SWAP1 POP JUMP JUMPDEST PUSH0 PUSH1 0x1 PUSH0 DUP4 DUP2 MSTORE PUSH1 0x20 ADD SWAP1 DUP2 MSTORE PUSH1 0x20 ADD PUSH0 KECCAK256 SWAP1 POP PUSH0 DUP3 GT DUP1 ISZERO PUSH2 0xE4F JUMPI POP PUSH0 SLOAD DUP3 GT ISZERO JUMPDEST PUSH2 0xE8E JUMPI PUSH1 0x40 MLOAD PUSH32 0x8C379A000000000000000000000000000000000000000000000000000000000 DUP2 MSTORE PUSH1 0x4 ADD PUSH2 0xE85 SWAP1 PUSH2 0x1C3A JUMP JUMPDEST PUSH1 0x40 MLOAD DUP1 SWAP2 SUB SWAP1 REVERT JUMPDEST DUP1 PUSH1 0x3 ADD SLOAD TIMESTAMP GT PUSH2 0xED4 JUMPI PUSH1 0x40 MLOAD PUSH32 0x8C379A000000000000000000000000000000000000000000000000000000000 DUP2 MSTORE PUSH1 0x4 ADD PUSH2 0xECB SWAP1 PUSH2 0x1CA2 JUMP JUMPDEST PUSH1 0x40 MLOAD DUP1 SWAP2 SUB SWAP1 REVERT JUMPDEST PUSH1 0x1 PUSH1 0x2 DUP2 GT ISZERO PUSH2 0xEE8 JUMPI PUSH2 0xEE7 PUSH2 0x179A JUMP JUMPDEST JUMPDEST DUP2 PUSH1 0x6 ADD PUSH0 SWAP1 SLOAD SWAP1 PUSH2 0x100 EXP SWAP1 DIV PUSH1 0xFF AND PUSH1 0x2 DUP2 GT ISZERO PUSH2 0xF0B JUMPI PUSH2 0xF0A PUSH2 0x179A JUMP JUMPDEST JUMPDEST LT PUSH2 0xF4B JUMPI PUSH1 0x40 MLOAD PUSH32 0x8C379A000000000000000000000000000000000000000000000000000000000 DUP2 MSTORE PUSH1 0x4 ADD PUSH2 0xF42 SWAP1 PUSH2 0x2356 JUMP JUMPDEST PUSH1 0x40 MLOAD DUP1 SWAP2 SUB SWAP1 REVERT JUMPDEST CALLER PUSH20 0xFFFFFFFFFFFFFFFFFFFFFFFFFFFFFFFFFFFFFFFF AND DUP2 PUSH1 0x4 ADD PUSH0 SWAP1 SLOAD SWAP1 PUSH2 0x100 EXP SWAP1 DIV PUSH20 0xFFFFFFFFFFFFFFFFFFFFFFFFFFFFFFFFFFFFFFFF AND PUSH20 0xFFFFFFFFFFFFFFFFFFFFFFFFFFFFFFFFFFFFFFFF AND EQ PUSH2 0xFDC JUMPI PUSH1 0x40 MLOAD PUSH32 0x8C379A000000000000000000000000000000000000000000000000000000000 DUP2 MSTORE PUSH1 0x4 ADD PUSH2 0xFD3 SWAP1 PUSH2 0x23E4 JUMP JUMPDEST PUSH1 0x40 MLOAD DUP1 SWAP2 SUB SWAP1 REVERT JUMPDEST PUSH1 0x1 DUP2 PUSH1 0x6 ADD PUSH0 PUSH2 0x100 EXP DUP2 SLOAD DUP2 PUSH1 0xFF MUL NOT AND SWAP1 DUP4 PUSH1 0x2 DUP2 GT ISZERO PUSH2 0x1003 JUMPI PUSH2 0x1002 PUSH2 0x179A JUMP JUMPDEST JUMPDEST MUL OR SWAP1 SSTORE POP PUSH32 0x4D1B16DAA5EB3F85F29FB9542C90C5A370533AB7FD32EF5787E27193ED2FAAA6 DUP3 CALLER PUSH1 0x40 MLOAD PUSH2 0x1039 SWAP3 SWAP2 SWAP1 PUSH2 0x2402 JUMP JUMPDEST PUSH1 0x40 MLOAD DUP1 SWAP2 SUB SWAP1 LOG1 POP POP JUMP JUMPDEST PUSH1 0x60 PUSH0 PUSH0 SLOAD PUSH8 0xFFFFFFFFFFFFFFFF DUP2 GT ISZERO PUSH2 0x1063 JUMPI PUSH2 0x1062 PUSH2 0x1A72 JUMP JUMPDEST JUMPDEST PUSH1 0x40 MLOAD SWAP1 DUP1 DUP3 MSTORE DUP1 PUSH1 0x20 MUL PUSH1 0x20 ADD DUP3 ADD PUSH1 0x40 MSTORE DUP1 ISZERO PUSH2 0x109C JUMPI DUP2 PUSH1 0x20 ADD JUMPDEST PUSH2 0x1089 PUSH2 0x155E JUMP JUMPDEST DUP2 MSTORE PUSH1 0x20 ADD SWAP1 PUSH1 0x1 SWAP1 SUB SWAP1 DUP2 PUSH2 0x1081 JUMPI SWAP1 POP JUMPDEST POP SWAP1 POP PUSH0 PUSH0 SWAP1 POP JUMPDEST PUSH0 SLOAD DUP2 LT ISZERO PUSH2 0x1291 JUMPI PUSH1 0x1 PUSH0 PUSH1 0x1 DUP4 PUSH2 0x10BD SWAP2 SWAP1 PUSH2 0x2456 JUMP JUMPDEST DUP2 MSTORE PUSH1 0x20 ADD SWAP1 DUP2 MSTORE PUSH1 0x20 ADD PUSH0 KECCAK256 PUSH1 0x40 MLOAD DUP1 PUSH1 0xE0 ADD PUSH1 0x40 MSTORE SWAP1 DUP2 PUSH0 DUP3 ADD SLOAD DUP2 MSTORE PUSH1 0x20 ADD PUSH1 0x1 DUP3 ADD PUSH0 SWAP1 SLOAD SWAP1 PUSH2 0x100 EXP SWAP1 DIV PUSH20 0xFFFFFFFFFFFFFFFFFFFFFFFFFFFFFFFFFFFFFFFF AND PUSH20 0xFFFFFFFFFFFFFFFFFFFFFFFFFFFFFFFFFFFFFFFF AND PUSH20 0xFFFFFFFFFFFFFFFFFFFFFFFFFFFFFFFFFFFFFFFF AND DUP2 MSTORE PUSH1 0x20 ADD PUSH1 0x2 DUP3 ADD DUP1 SLOAD PUSH2 0x1143 SWAP1 PUSH2 0x20F0 JUMP JUMPDEST DUP1 PUSH1 0x1F ADD PUSH1 0x20 DUP1 SWAP2 DIV MUL PUSH1 0x20 ADD PUSH1 0x40 MLOAD SWAP1 DUP2 ADD PUSH1 0x40 MSTORE DUP1 SWAP3 SWAP2 SWAP1 DUP2 DUP2 MSTORE PUSH1 0x20 ADD DUP3 DUP1 SLOAD PUSH2 0x116F SWAP1 PUSH2 0x20F0 JUMP JUMPDEST DUP1 ISZERO PUSH2 0x11BA JUMPI DUP1 PUSH1 0x1F LT PUSH2 0x1191 JUMPI PUSH2 0x100 DUP1 DUP4 SLOAD DIV MUL DUP4 MSTORE SWAP2 PUSH1 0x20 ADD SWAP2 PUSH2 0x11BA JUMP JUMPDEST DUP3 ADD SWAP2 SWAP1 PUSH0 MSTORE PUSH1 0x20 PUSH0 KECCAK256 SWAP1 JUMPDEST DUP2 SLOAD DUP2 MSTORE SWAP1 PUSH1 0x1 ADD SWAP1 PUSH1 0x20 ADD DUP1 DUP4 GT PUSH2 0x119D JUMPI DUP3 SWAP1 SUB PUSH1 0x1F AND DUP3 ADD SWAP2 JUMPDEST POP POP POP POP POP DUP2 MSTORE PUSH1 0x20 ADD PUSH1 0x3 DUP3 ADD SLOAD DUP2 MSTORE PUSH1 0x20 ADD PUSH1 0x4 DUP3 ADD PUSH0 SWAP1 SLOAD SWAP1 PUSH2 0x100 EXP SWAP1 DIV PUSH20 0xFFFFFFFFFFFFFFFFFFFFFFFFFFFFFFFFFFFFFFFF AND PUSH20 0xFFFFFFFFFFFFFFFFFFFFFFFFFFFFFFFFFFFFFFFF AND PUSH20 0xFFFFFFFFFFFFFFFFFFFFFFFFFFFFFFFFFFFFFFFF AND DUP2 MSTORE PUSH1 0x20 ADD PUSH1 0x5 DUP3 ADD SLOAD DUP2 MSTORE PUSH1 0x20 ADD PUSH1 0x6 DUP3 ADD PUSH0 SWAP1 SLOAD SWAP1 PUSH2 0x100 EXP SWAP1 DIV PUSH1 0xFF AND PUSH1 0x2 DUP2 GT ISZERO PUSH2 0x1250 JUMPI PUSH2 0x124F PUSH2 0x179A JUMP JUMPDEST JUMPDEST PUSH1 0x2 DUP2 GT ISZERO PUSH2 0x1262 JUMPI PUSH2 0x1261 PUSH2 0x179A JUMP JUMPDEST JUMPDEST DUP2 MSTORE POP POP DUP3 DUP3 DUP2 MLOAD DUP2 LT PUSH2 0x1279 JUMPI PUSH2 0x1278 PUSH2 0x2489 JUMP JUMPDEST JUMPDEST PUSH1 0x20 MUL PUSH1 0x20 ADD ADD DUP2 SWAP1 MSTORE POP DUP1 DUP1 PUSH1 0x1 ADD SWAP2 POP POP PUSH2 0x10A4 JUMP JUMPDEST POP DUP1 SWAP2 POP POP SWAP1 JUMP JUMPDEST PUSH0 PUSH0 PUSH1 0x3C DUP4 PUSH2 0x12A8 SWAP2 SWAP1 PUSH2 0x24B6 JUMP JUMPDEST SWAP1 POP PUSH1 0x3C DUP2 LT ISZERO DUP1 ISZERO PUSH2 0x12BE JUMPI POP PUSH3 0x93A80 DUP2 GT ISZERO JUMPDEST PUSH2 0x12FD JUMPI PUSH1 0x40 MLOAD PUSH32 0x8C379A000000000000000000000000000000000000000000000000000000000 DUP2 MSTORE PUSH1 0x4 ADD PUSH2 0x12F4 SWAP1 PUSH2 0x2567 JUMP JUMPDEST PUSH1 0x40 MLOAD DUP1 SWAP2 SUB SWAP1 REVERT JUMPDEST PUSH0 DUP5 MLOAD GT PUSH2 0x1340 JUMPI PUSH1 0x40 MLOAD PUSH32 0x8C379A000000000000000000000000000000000000000000000000000000000 DUP2 MSTORE PUSH1 0x4 ADD PUSH2 0x1337 SWAP1 PUSH2 0x25F5 JUMP JUMPDEST PUSH1 0x40 MLOAD DUP1 SWAP2 SUB SWAP1 REVERT JUMPDEST PUSH0 PUSH0 DUP2 SLOAD PUSH2 0x134D SWAP1 PUSH2 0x2613 JUMP JUMPDEST SWAP2 SWAP1 POP DUP2 SWAP1 SSTORE POP PUSH1 0x40 MLOAD DUP1 PUSH1 0xE0 ADD PUSH1 0x40 MSTORE DUP1 PUSH0 SLOAD DUP2 MSTORE PUSH1 0x20 ADD CALLER PUSH20 0xFFFFFFFFFFFFFFFFFFFFFFFFFFFFFFFFFFFFFFFF AND DUP2 MSTORE PUSH1 0x20 ADD DUP6 DUP2 MSTORE PUSH1 0x20 ADD DUP3 TIMESTAMP PUSH2 0x1394 SWAP2 SWAP1 PUSH2 0x2456 JUMP JUMPDEST DUP2 MSTORE PUSH1 0x20 ADD PUSH0 PUSH20 0xFFFFFFFFFFFFFFFFFFFFFFFFFFFFFFFFFFFFFFFF AND DUP2 MSTORE PUSH1 0x20 ADD PUSH0 DUP2 MSTORE PUSH1 0x20 ADD PUSH0 PUSH1 0x2 DUP2 GT ISZERO PUSH2 0x13CE JUMPI PUSH2 0x13CD PUSH2 0x179A JUMP JUMPDEST JUMPDEST DUP2 MSTORE POP PUSH1 0x1 PUSH0 PUSH0 SLOAD DUP2 MSTORE PUSH1 0x20 ADD SWAP1 DUP2 MSTORE PUSH1 0x20 ADD PUSH0 KECCAK256 PUSH0 DUP3 ADD MLOAD DUP2 PUSH0 ADD SSTORE PUSH1 0x20 DUP3 ADD MLOAD DUP2 PUSH1 0x1 ADD PUSH0 PUSH2 0x100 EXP DUP2 SLOAD DUP2 PUSH20 0xFFFFFFFFFFFFFFFFFFFFFFFFFFFFFFFFFFFFFFFF MUL NOT AND SWAP1 DUP4 PUSH20 0xFFFFFFFFFFFFFFFFFFFFFFFFFFFFFFFFFFFFFFFF AND MUL OR SWAP1 SSTORE POP PUSH1 0x40 DUP3 ADD MLOAD DUP2 PUSH1 0x2 ADD SWAP1 DUP2 PUSH2 0x1446 SWAP2 SWAP1 PUSH2 0x27FA JUMP JUMPDEST POP PUSH1 0x60 DUP3 ADD MLOAD DUP2 PUSH1 0x3 ADD SSTORE PUSH1 0x80 DUP3 ADD MLOAD DUP2 PUSH1 0x4 ADD PUSH0 PUSH2 0x100 EXP DUP2 SLOAD DUP2 PUSH20 0xFFFFFFFFFFFFFFFFFFFFFFFFFFFFFFFFFFFFFFFF MUL NOT AND SWAP1 DUP4 PUSH20 0xFFFFFFFFFFFFFFFFFFFFFFFFFFFFFFFFFFFFFFFF AND MUL OR SWAP1 SSTORE POP PUSH1 0xA0 DUP3 ADD MLOAD DUP2 PUSH1 0x5 ADD SSTORE PUSH1 0xC0 DUP3 ADD MLOAD DUP2 PUSH1 0x6 ADD PUSH0 PUSH2 0x100 EXP DUP2 SLOAD DUP2 PUSH1 0xFF MUL NOT AND SWAP1 DUP4 PUSH1 0x2 DUP2 GT ISZERO PUSH2 0x14CB JUMPI PUSH2 0x14CA PUSH2 0x179A JUMP JUMPDEST JUMPDEST MUL OR SWAP1 SSTORE POP SWAP1 POP POP PUSH0 PUSH1 0x1 PUSH0 PUSH0 SLOAD DUP2 MSTORE PUSH1 0x20 ADD SWAP1 DUP2 MSTORE PUSH1 0x20 ADD PUSH0 KECCAK256 SWAP1 POP PUSH32 0x568694AA4B5066FE5362111FCFDA3F97F456688BC2ADC2538C2F2C1ACF954B34 DUP2 PUSH0 ADD SLOAD DUP3 PUSH1 0x1 ADD PUSH0 SWAP1 SLOAD SWAP1 PUSH2 0x100 EXP SWAP1 DIV PUSH20 0xFFFFFFFFFFFFFFFFFFFFFFFFFFFFFFFFFFFFFFFF AND DUP4 PUSH1 0x2 ADD DUP5 PUSH1 0x3 ADD SLOAD PUSH1 0x40 MLOAD PUSH2 0x154A SWAP5 SWAP4 SWAP3 SWAP2 SWAP1 PUSH2 0x294A JUMP JUMPDEST PUSH1 0x40 MLOAD DUP1 SWAP2 SUB SWAP1 LOG1 PUSH0 SLOAD SWAP3 POP POP POP SWAP3 SWAP2 POP POP JUMP JUMPDEST PUSH1 0x40 MLOAD DUP1 PUSH1 0xE0 ADD PUSH1 0x40 MSTORE DUP1 PUSH0 DUP2 MSTORE PUSH1 0x20 ADD PUSH0 PUSH20 0xFFFFFFFFFFFFFFFFFFFFFFFFFFFFFFFFFFFFFFFF AND DUP2 MSTORE PUSH1 0x20 ADD PUSH1 0x60 DUP2 MSTORE PUSH1 0x20 ADD PUSH0 DUP2 MSTORE PUSH1 0x20 ADD PUSH0 PUSH20 0xFFFFFFFFFFFFFFFFFFFFFFFFFFFFFFFFFFFFFFFF AND DUP2 MSTORE PUSH1 0x20 ADD PUSH0 DUP2 MSTORE PUSH1 0x20 ADD PUSH0 PUSH1 0x2 DUP2 GT ISZERO PUSH2 0x15CD JUMPI PUSH2 0x15CC PUSH2 0x179A JUMP JUMPDEST JUMPDEST DUP2 MSTORE POP SWAP1 JUMP JUMPDEST PUSH0 PUSH1 0x40 MLOAD SWAP1 POP SWAP1 JUMP JUMPDEST PUSH0 PUSH0 REVERT JUMPDEST PUSH0 PUSH0 REVERT JUMPDEST PUSH0 DUP2 SWAP1 POP SWAP2 SWAP1 POP JUMP JUMPDEST PUSH2 0x15F6 DUP2 PUSH2 0x15E4 JUMP JUMPDEST DUP2 EQ PUSH2 0x1600 JUMPI PUSH0 PUSH0 REVERT JUMPDEST POP JUMP JUMPDEST PUSH0 DUP2 CALLDATALOAD SWAP1 POP PUSH2 0x1611 DUP2 PUSH2 0x15ED JUMP JUMPDEST SWAP3 SWAP2 POP POP JUMP JUMPDEST PUSH0 PUSH1 0x20 DUP3 DUP5 SUB SLT ISZERO PUSH2 0x162C JUMPI PUSH2 0x162B PUSH2 0x15DC JUMP JUMPDEST JUMPDEST PUSH0 PUSH2 0x1639 DUP5 DUP3 DUP6 ADD PUSH2 0x1603 JUMP JUMPDEST SWAP2 POP POP SWAP3 SWAP2 POP POP JUMP JUMPDEST PUSH2 0x164B DUP2 PUSH2 0x15E4 JUMP JUMPDEST DUP3 MSTORE POP POP JUMP JUMPDEST PUSH0 PUSH1 0x20 DUP3 ADD SWAP1 POP PUSH2 0x1664 PUSH0 DUP4 ADD DUP5 PUSH2 0x1642 JUMP JUMPDEST SWAP3 SWAP2 POP POP JUMP JUMPDEST PUSH0 PUSH20 0xFFFFFFFFFFFFFFFFFFFFFFFFFFFFFFFFFFFFFFFF DUP3 AND SWAP1 POP SWAP2 SWAP1 POP JUMP JUMPDEST PUSH0 PUSH2 0x1693 DUP3 PUSH2 0x166A JUMP JUMPDEST SWAP1 POP SWAP2 SWAP1 POP JUMP JUMPDEST PUSH2 0x16A3 DUP2 PUSH2 0x1689 JUMP JUMPDEST DUP2 EQ PUSH2 0x16AD JUMPI PUSH0 PUSH0 REVERT JUMPDEST POP JUMP JUMPDEST PUSH0 DUP2 CALLDATALOAD SWAP1 POP PUSH2 0x16BE DUP2 PUSH2 0x169A JUMP JUMPDEST SWAP3 SWAP2 POP POP JUMP JUMPDEST PUSH0 PUSH0 PUSH1 0x40 DUP4 DUP6 SUB SLT ISZERO PUSH2 0x16DA JUMPI PUSH2 0x16D9 PUSH2 0x15DC JUMP JUMPDEST JUMPDEST PUSH0 PUSH2 0x16E7 DUP6 DUP3 DUP7 ADD PUSH2 0x1603 JUMP JUMPDEST SWAP3 POP POP PUSH1 0x20 PUSH2 0x16F8 DUP6 DUP3 DUP7 ADD PUSH2 0x16B0 JUMP JUMPDEST SWAP2 POP POP SWAP3 POP SWAP3 SWAP1 POP JUMP JUMPDEST PUSH2 0x170B DUP2 PUSH2 0x1689 JUMP JUMPDEST DUP3 MSTORE POP POP JUMP JUMPDEST PUSH0 PUSH1 0x20 DUP3 ADD SWAP1 POP PUSH2 0x1724 PUSH0 DUP4 ADD DUP5 PUSH2 0x1702 JUMP JUMPDEST SWAP3 SWAP2 POP POP JUMP JUMPDEST PUSH0 DUP2 MLOAD SWAP1 POP SWAP2 SWAP1 POP JUMP JUMPDEST PUSH0 DUP3 DUP3 MSTORE PUSH1 0x20 DUP3 ADD SWAP1 POP SWAP3 SWAP2 POP POP JUMP JUMPDEST DUP3 DUP2 DUP4 MCOPY PUSH0 DUP4 DUP4 ADD MSTORE POP POP POP JUMP JUMPDEST PUSH0 PUSH1 0x1F NOT PUSH1 0x1F DUP4 ADD AND SWAP1 POP SWAP2 SWAP1 POP JUMP JUMPDEST PUSH0 PUSH2 0x176C DUP3 PUSH2 0x172A JUMP JUMPDEST PUSH2 0x1776 DUP2 DUP6 PUSH2 0x1734 JUMP JUMPDEST SWAP4 POP PUSH2 0x1786 DUP2 DUP6 PUSH1 0x20 DUP7 ADD PUSH2 0x1744 JUMP JUMPDEST PUSH2 0x178F DUP2 PUSH2 0x1752 JUMP JUMPDEST DUP5 ADD SWAP2 POP POP SWAP3 SWAP2 POP POP JUMP JUMPDEST PUSH32 0x4E487B7100000000000000000000000000000000000000000000000000000000 PUSH0 MSTORE PUSH1 0x21 PUSH1 0x4 MSTORE PUSH1 0x24 PUSH0 REVERT JUMPDEST PUSH1 0x3 DUP2 LT PUSH2 0x17D8 JUMPI PUSH2 0x17D7 PUSH2 0x179A JUMP JUMPDEST JUMPDEST POP JUMP JUMPDEST PUSH0 DUP2 SWAP1 POP PUSH2 0x17E8 DUP3 PUSH2 0x17C7 JUMP JUMPDEST SWAP2 SWAP1 POP JUMP JUMPDEST PUSH0 PUSH2 0x17F7 DUP3 PUSH2 0x17DB JUMP JUMPDEST SWAP1 POP SWAP2 SWAP1 POP JUMP JUMPDEST PUSH2 0x1807 DUP2 PUSH2 0x17ED JUMP JUMPDEST DUP3 MSTORE POP POP JUMP JUMPDEST PUSH0 PUSH1 0xE0 DUP3 ADD SWAP1 POP PUSH2 0x1820 PUSH0 DUP4 ADD DUP11 PUSH2 0x1642 JUMP JUMPDEST PUSH2 0x182D PUSH1 0x20 DUP4 ADD DUP10 PUSH2 0x1702 JUMP JUMPDEST DUP2 DUP2 SUB PUSH1 0x40 DUP4 ADD MSTORE PUSH2 0x183F DUP2 DUP9 PUSH2 0x1762 JUMP JUMPDEST SWAP1 POP PUSH2 0x184E PUSH1 0x60 DUP4 ADD DUP8 PUSH2 0x1642 JUMP JUMPDEST PUSH2 0x185B PUSH1 0x80 DUP4 ADD DUP7 PUSH2 0x1702 JUMP JUMPDEST PUSH2 0x1868 PUSH1 0xA0 DUP4 ADD DUP6 PUSH2 0x1642 JUMP JUMPDEST PUSH2 0x1875 PUSH1 0xC0 DUP4 ADD DUP5 PUSH2 0x17FE JUMP JUMPDEST SWAP9 SWAP8 POP POP POP POP POP POP POP POP JUMP JUMPDEST PUSH0 DUP2 MLOAD SWAP1 POP SWAP2 SWAP1 POP JUMP JUMPDEST PUSH0 DUP3 DUP3 MSTORE PUSH1 0x20 DUP3 ADD SWAP1 POP SWAP3 SWAP2 POP POP JUMP JUMPDEST PUSH0 DUP2 SWAP1 POP PUSH1 0x20 DUP3 ADD SWAP1 POP SWAP2 SWAP1 POP JUMP JUMPDEST PUSH2 0x18B3 DUP2 PUSH2 0x15E4 JUMP JUMPDEST DUP3 MSTORE POP POP JUMP JUMPDEST PUSH2 0x18C2 DUP2 PUSH2 0x1689 JUMP JUMPDEST DUP3 MSTORE POP POP JUMP JUMPDEST PUSH0 DUP3 DUP3 MSTORE PUSH1 0x20 DUP3 ADD SWAP1 POP SWAP3 SWAP2 POP POP JUMP JUMPDEST PUSH0 PUSH2 0x18E2 DUP3 PUSH2 0x172A JUMP JUMPDEST PUSH2 0x18EC DUP2 DUP6 PUSH2 0x18C8 JUMP JUMPDEST SWAP4 POP PUSH2 0x18FC DUP2 DUP6 PUSH1 0x20 DUP7 ADD PUSH2 0x1744 JUMP JUMPDEST PUSH2 0x1905 DUP2 PUSH2 0x1752 JUMP JUMPDEST DUP5 ADD SWAP2 POP POP SWAP3 SWAP2 POP POP JUMP JUMPDEST PUSH2 0x1919 DUP2 PUSH2 0x17ED JUMP JUMPDEST DUP3 MSTORE POP POP JUMP JUMPDEST PUSH0 PUSH1 0xE0 DUP4 ADD PUSH0 DUP4 ADD MLOAD PUSH2 0x1934 PUSH0 DUP7 ADD DUP3 PUSH2 0x18AA JUMP JUMPDEST POP PUSH1 0x20 DUP4 ADD MLOAD PUSH2 0x1947 PUSH1 0x20 DUP7 ADD DUP3 PUSH2 0x18B9 JUMP JUMPDEST POP PUSH1 0x40 DUP4 ADD MLOAD DUP5 DUP3 SUB PUSH1 0x40 DUP7 ADD MSTORE PUSH2 0x195F DUP3 DUP3 PUSH2 0x18D8 JUMP JUMPDEST SWAP2 POP POP PUSH1 0x60 DUP4 ADD MLOAD PUSH2 0x1974 PUSH1 0x60 DUP7 ADD DUP3 PUSH2 0x18AA JUMP JUMPDEST POP PUSH1 0x80 DUP4 ADD MLOAD PUSH2 0x1987 PUSH1 0x80 DUP7 ADD DUP3 PUSH2 0x18B9 JUMP JUMPDEST POP PUSH1 0xA0 DUP4 ADD MLOAD PUSH2 0x199A PUSH1 0xA0 DUP7 ADD DUP3 PUSH2 0x18AA JUMP JUMPDEST POP PUSH1 0xC0 DUP4 ADD MLOAD PUSH2 0x19AD PUSH1 0xC0 DUP7 ADD DUP3 PUSH2 0x1910 JUMP JUMPDEST POP DUP1 SWAP2 POP POP SWAP3 SWAP2 POP POP JUMP JUMPDEST PUSH0 PUSH2 0x19C3 DUP4 DUP4 PUSH2 0x191F JUMP JUMPDEST SWAP1 POP SWAP3 SWAP2 POP POP JUMP JUMPDEST PUSH0 PUSH1 0x20 DUP3 ADD SWAP1 POP SWAP2 SWAP1 POP JUMP JUMPDEST PUSH0 PUSH2 0x19E1 DUP3 PUSH2 0x1881 JUMP JUMPDEST PUSH2 0x19EB DUP2 DUP6 PUSH2 0x188B JUMP JUMPDEST SWAP4 POP DUP4 PUSH1 0x20 DUP3 MUL DUP6 ADD PUSH2 0x19FD DUP6 PUSH2 0x189B JUMP JUMPDEST DUP1 PUSH0 JUMPDEST DUP6 DUP2 LT ISZERO PUSH2 0x1A38 JUMPI DUP5 DUP5 SUB DUP10 MSTORE DUP2 MLOAD PUSH2 0x1A19 DUP6 DUP3 PUSH2 0x19B8 JUMP JUMPDEST SWAP5 POP PUSH2 0x1A24 DUP4 PUSH2 0x19CB JUMP JUMPDEST SWAP3 POP PUSH1 0x20 DUP11 ADD SWAP10 POP POP PUSH1 0x1 DUP2 ADD SWAP1 POP PUSH2 0x1A00 JUMP JUMPDEST POP DUP3 SWAP8 POP DUP8 SWAP6 POP POP POP POP POP POP SWAP3 SWAP2 POP POP JUMP JUMPDEST PUSH0 PUSH1 0x20 DUP3 ADD SWAP1 POP DUP2 DUP2 SUB PUSH0 DUP4 ADD MSTORE PUSH2 0x1A62 DUP2 DUP5 PUSH2 0x19D7 JUMP JUMPDEST SWAP1 POP SWAP3 SWAP2 POP POP JUMP JUMPDEST PUSH0 PUSH0 REVERT JUMPDEST PUSH0 PUSH0 REVERT JUMPDEST PUSH32 0x4E487B7100000000000000000000000000000000000000000000000000000000 PUSH0 MSTORE PUSH1 0x41 PUSH1 0x4 MSTORE PUSH1 0x24 PUSH0 REVERT JUMPDEST PUSH2 0x1AA8 DUP3 PUSH2 0x1752 JUMP JUMPDEST DUP2 ADD DUP2 DUP2 LT PUSH8 0xFFFFFFFFFFFFFFFF DUP3 GT OR ISZERO PUSH2 0x1AC7 JUMPI PUSH2 0x1AC6 PUSH2 0x1A72 JUMP JUMPDEST JUMPDEST DUP1 PUSH1 0x40 MSTORE POP POP POP JUMP JUMPDEST PUSH0 PUSH2 0x1AD9 PUSH2 0x15D3 JUMP JUMPDEST SWAP1 POP PUSH2 0x1AE5 DUP3 DUP3 PUSH2 0x1A9F JUMP JUMPDEST SWAP2 SWAP1 POP JUMP JUMPDEST PUSH0 PUSH8 0xFFFFFFFFFFFFFFFF DUP3 GT ISZERO PUSH2 0x1B04 JUMPI PUSH2 0x1B03 PUSH2 0x1A72 JUMP JUMPDEST JUMPDEST PUSH2 0x1B0D DUP3 PUSH2 0x1752 JUMP JUMPDEST SWAP1 POP PUSH1 0x20 DUP2 ADD SWAP1 POP SWAP2 SWAP1 POP JUMP JUMPDEST DUP3 DUP2 DUP4 CALLDATACOPY PUSH0 DUP4 DUP4 ADD MSTORE POP POP POP JUMP JUMPDEST PUSH0 PUSH2 0x1B3A PUSH2 0x1B35 DUP5 PUSH2 0x1AEA JUMP JUMPDEST PUSH2 0x1AD0 JUMP JUMPDEST SWAP1 POP DUP3 DUP2 MSTORE PUSH1 0x20 DUP2 ADD DUP5 DUP5 DUP5 ADD GT ISZERO PUSH2 0x1B56 JUMPI PUSH2 0x1B55 PUSH2 0x1A6E JUMP JUMPDEST JUMPDEST PUSH2 0x1B61 DUP5 DUP3 DUP6 PUSH2 0x1B1A JUMP JUMPDEST POP SWAP4 SWAP3 POP POP POP JUMP JUMPDEST PUSH0 DUP3 PUSH1 0x1F DUP4 ADD SLT PUSH2 0x1B7D JUMPI PUSH2 0x1B7C PUSH2 0x1A6A JUMP JUMPDEST JUMPDEST DUP2 CALLDATALOAD PUSH2 0x1B8D DUP5 DUP3 PUSH1 0x20 DUP7 ADD PUSH2 0x1B28 JUMP JUMPDEST SWAP2 POP POP SWAP3 SWAP2 POP POP JUMP JUMPDEST PUSH0 PUSH0 PUSH1 0x40 DUP4 DUP6 SUB SLT ISZERO PUSH2 0x1BAC JUMPI PUSH2 0x1BAB PUSH2 0x15DC JUMP JUMPDEST JUMPDEST PUSH0 DUP4 ADD CALLDATALOAD PUSH8 0xFFFFFFFFFFFFFFFF DUP2 GT ISZERO PUSH2 0x1BC9 JUMPI PUSH2 0x1BC8 PUSH2 0x15E0 JUMP JUMPDEST JUMPDEST PUSH2 0x1BD5 DUP6 DUP3 DUP7 ADD PUSH2 0x1B69 JUMP JUMPDEST SWAP3 POP POP PUSH1 0x20 PUSH2 0x1BE6 DUP6 DUP3 DUP7 ADD PUSH2 0x1603 JUMP JUMPDEST SWAP2 POP POP SWAP3 POP SWAP3 SWAP1 POP JUMP JUMPDEST PUSH32 0x4C612073756261737461206E6F206578697374652E0000000000000000000000 PUSH0 DUP3 ADD MSTORE POP JUMP JUMPDEST PUSH0 PUSH2 0x1C24 PUSH1 0x15 DUP4 PUSH2 0x1734 JUMP JUMPDEST SWAP2 POP PUSH2 0x1C2F DUP3 PUSH2 0x1BF0 JUMP JUMPDEST PUSH1 0x20 DUP3 ADD SWAP1 POP SWAP2 SWAP1 POP JUMP JUMPDEST PUSH0 PUSH1 0x20 DUP3 ADD SWAP1 POP DUP2 DUP2 SUB PUSH0 DUP4 ADD MSTORE PUSH2 0x1C51 DUP2 PUSH2 0x1C18 JUMP JUMPDEST SWAP1 POP SWAP2 SWAP1 POP JUMP JUMPDEST PUSH32 0x4C612073756261737461206E6F206861207465726D696E61646F2E0000000000 PUSH0 DUP3 ADD MSTORE POP JUMP JUMPDEST PUSH0 PUSH2 0x1C8C PUSH1 0x1B DUP4 PUSH2 0x1734 JUMP JUMPDEST SWAP2 POP PUSH2 0x1C97 DUP3 PUSH2 0x1C58 JUMP JUMPDEST PUSH1 0x20 DUP3 ADD SWAP1 POP SWAP2 SWAP1 POP JUMP JUMPDEST PUSH0 PUSH1 0x20 DUP3 ADD SWAP1 POP DUP2 DUP2 SUB PUSH0 DUP4 ADD MSTORE PUSH2 0x1CB9 DUP2 PUSH2 0x1C80 JUMP JUMPDEST SWAP1 POP SWAP2 SWAP1 POP JUMP JUMPDEST PUSH32 0x4E6F2070756564657320726574697261722074752070756A612C206861732067 PUSH0 DUP3 ADD MSTORE PUSH32 0x616E61646F206C61207375626173746100000000000000000000000000000000 PUSH1 0x20 DUP3 ADD MSTORE POP JUMP JUMPDEST PUSH0 PUSH2 0x1D1A PUSH1 0x30 DUP4 PUSH2 0x1734 JUMP JUMPDEST SWAP2 POP PUSH2 0x1D25 DUP3 PUSH2 0x1CC0 JUMP JUMPDEST PUSH1 0x40 DUP3 ADD SWAP1 POP SWAP2 SWAP1 POP JUMP JUMPDEST PUSH0 PUSH1 0x20 DUP3 ADD SWAP1 POP DUP2 DUP2 SUB PUSH0 DUP4 ADD MSTORE PUSH2 0x1D47 DUP2 PUSH2 0x1D0E JUMP JUMPDEST SWAP1 POP SWAP2 SWAP1 POP JUMP JUMPDEST PUSH32 0x4E6F206861732070756A61646F20656E206573746120737562617374612E0000 PUSH0 DUP3 ADD MSTORE POP JUMP JUMPDEST PUSH0 PUSH2 0x1D82 PUSH1 0x1E DUP4 PUSH2 0x1734 JUMP JUMPDEST SWAP2 POP PUSH2 0x1D8D DUP3 PUSH2 0x1D4E JUMP JUMPDEST PUSH1 0x20 DUP3 ADD SWAP1 POP SWAP2 SWAP1 POP JUMP JUMPDEST PUSH0 PUSH1 0x20 DUP3 ADD SWAP1 POP DUP2 DUP2 SUB PUSH0 DUP4 ADD MSTORE PUSH2 0x1DAF DUP2 PUSH2 0x1D76 JUMP JUMPDEST SWAP1 POP SWAP2 SWAP1 POP JUMP JUMPDEST PUSH0 DUP2 SWAP1 POP SWAP3 SWAP2 POP POP JUMP JUMPDEST POP JUMP JUMPDEST PUSH0 PUSH2 0x1DCE PUSH0 DUP4 PUSH2 0x1DB6 JUMP JUMPDEST SWAP2 POP PUSH2 0x1DD9 DUP3 PUSH2 0x1DC0 JUMP JUMPDEST PUSH0 DUP3 ADD SWAP1 POP SWAP2 SWAP1 POP JUMP JUMPDEST PUSH0 PUSH2 0x1DED DUP3 PUSH2 0x1DC3 JUMP JUMPDEST SWAP2 POP DUP2 SWAP1 POP SWAP2 SWAP1 POP JUMP JUMPDEST PUSH32 0x4C61207472616E73666572656E6369612068612066616C6C61646F0000000000 PUSH0 DUP3 ADD MSTORE POP JUMP JUMPDEST PUSH0 PUSH2 0x1E2B PUSH1 0x1B DUP4 PUSH2 0x1734 JUMP JUMPDEST SWAP2 POP PUSH2 0x1E36 DUP3 PUSH2 0x1DF7 JUMP JUMPDEST PUSH1 0x20 DUP3 ADD SWAP1 POP SWAP2 SWAP1 POP JUMP JUMPDEST PUSH0 PUSH1 0x20 DUP3 ADD SWAP1 POP DUP2 DUP2 SUB PUSH0 DUP4 ADD MSTORE PUSH2 0x1E58 DUP2 PUSH2 0x1E1F JUMP JUMPDEST SWAP1 POP SWAP2 SWAP1 POP JUMP JUMPDEST PUSH0 PUSH1 0x60 DUP3 ADD SWAP1 POP PUSH2 0x1E72 PUSH0 DUP4 ADD DUP7 PUSH2 0x1642 JUMP JUMPDEST PUSH2 0x1E7F PUSH1 0x20 DUP4 ADD DUP6 PUSH2 0x1702 JUMP JUMPDEST PUSH2 0x1E8C PUSH1 0x40 DUP4 ADD DUP5 PUSH2 0x1642 JUMP JUMPDEST SWAP5 SWAP4 POP POP POP POP JUMP JUMPDEST PUSH32 0x4C612070756A61207469656E65207175652073657220646520616C206D656E6F PUSH0 DUP3 ADD MSTORE PUSH32 0x7320302E30312065746865722E00000000000000000000000000000000000000 PUSH1 0x20 DUP3 ADD MSTORE POP JUMP JUMPDEST PUSH0 PUSH2 0x1EEE PUSH1 0x2D DUP4 PUSH2 0x1734 JUMP JUMPDEST SWAP2 POP PUSH2 0x1EF9 DUP3 PUSH2 0x1E94 JUMP JUMPDEST PUSH1 0x40 DUP3 ADD SWAP1 POP SWAP2 SWAP1 POP JUMP JUMPDEST PUSH0 PUSH1 0x20 DUP3 ADD SWAP1 POP DUP2 DUP2 SUB PUSH0 DUP4 ADD MSTORE PUSH2 0x1F1B DUP2 PUSH2 0x1EE2 JUMP JUMPDEST SWAP1 POP SWAP2 SWAP1 POP JUMP JUMPDEST PUSH32 0x4E6F2070756564657320766F6C76657220612070756A61722E00000000000000 PUSH0 DUP3 ADD MSTORE POP JUMP JUMPDEST PUSH0 PUSH2 0x1F56 PUSH1 0x19 DUP4 PUSH2 0x1734 JUMP JUMPDEST SWAP2 POP PUSH2 0x1F61 DUP3 PUSH2 0x1F22 JUMP JUMPDEST PUSH1 0x20 DUP3 ADD SWAP1 POP SWAP2 SWAP1 POP JUMP JUMPDEST PUSH0 PUSH1 0x20 DUP3 ADD SWAP1 POP DUP2 DUP2 SUB PUSH0 DUP4 ADD MSTORE PUSH2 0x1F83 DUP2 PUSH2 0x1F4A JUMP JUMPDEST SWAP1 POP SWAP2 SWAP1 POP JUMP JUMPDEST PUSH32 0x4C612073756261737461207961206861207465726D696E61646F2E0000000000 PUSH0 DUP3 ADD MSTORE POP JUMP JUMPDEST PUSH0 PUSH2 0x1FBE PUSH1 0x1B DUP4 PUSH2 0x1734 JUMP JUMPDEST SWAP2 POP PUSH2 0x1FC9 DUP3 PUSH2 0x1F8A JUMP JUMPDEST PUSH1 0x20 DUP3 ADD SWAP1 POP SWAP2 SWAP1 POP JUMP JUMPDEST PUSH0 PUSH1 0x20 DUP3 ADD SWAP1 POP DUP2 DUP2 SUB PUSH0 DUP4 ADD MSTORE PUSH2 0x1FEB DUP2 PUSH2 0x1FB2 JUMP JUMPDEST SWAP1 POP SWAP2 SWAP1 POP JUMP JUMPDEST PUSH32 0x4C612070756A61207469656E652071756520736572206D61796F722071756520 PUSH0 DUP3 ADD MSTORE PUSH32 0x6C612070756A612061637475616C2E0000000000000000000000000000000000 PUSH1 0x20 DUP3 ADD MSTORE POP JUMP JUMPDEST PUSH0 PUSH2 0x204C PUSH1 0x2F DUP4 PUSH2 0x1734 JUMP JUMPDEST SWAP2 POP PUSH2 0x2057 DUP3 PUSH2 0x1FF2 JUMP JUMPDEST PUSH1 0x40 DUP3 ADD SWAP1 POP SWAP2 SWAP1 POP JUMP JUMPDEST PUSH0 PUSH1 0x20 DUP3 ADD SWAP1 POP DUP2 DUP2 SUB PUSH0 DUP4 ADD MSTORE PUSH2 0x2079 DUP2 PUSH2 0x2040 JUMP JUMPDEST SWAP1 POP SWAP2 SWAP1 POP JUMP JUMPDEST PUSH0 PUSH1 0x80 DUP3 ADD SWAP1 POP PUSH2 0x2093 PUSH0 DUP4 ADD DUP8 PUSH2 0x1642 JUMP JUMPDEST PUSH2 0x20A0 PUSH1 0x20 DUP4 ADD DUP7 PUSH2 0x1702 JUMP JUMPDEST PUSH2 0x20AD PUSH1 0x40 DUP4 ADD DUP6 PUSH2 0x1642 JUMP JUMPDEST PUSH2 0x20BA PUSH1 0x60 DUP4 ADD DUP5 PUSH2 0x1642 JUMP JUMPDEST SWAP6 SWAP5 POP POP POP POP POP JUMP JUMPDEST PUSH32 0x4E487B7100000000000000000000000000000000000000000000000000000000 PUSH0 MSTORE PUSH1 0x22 PUSH1 0x4 MSTORE PUSH1 0x24 PUSH0 REVERT JUMPDEST PUSH0 PUSH1 0x2 DUP3 DIV SWAP1 POP PUSH1 0x1 DUP3 AND DUP1 PUSH2 0x2107 JUMPI PUSH1 0x7F DUP3 AND SWAP2 POP JUMPDEST PUSH1 0x20 DUP3 LT DUP2 SUB PUSH2 0x211A JUMPI PUSH2 0x2119 PUSH2 0x20C3 JUMP JUMPDEST JUMPDEST POP SWAP2 SWAP1 POP JUMP JUMPDEST PUSH32 0x536F6C6F20656C2063726561646F72206465206C612073756261737461207075 PUSH0 DUP3 ADD MSTORE PUSH32 0x65646520636F627261726C610000000000000000000000000000000000000000 PUSH1 0x20 DUP3 ADD MSTORE POP JUMP JUMPDEST PUSH0 PUSH2 0x217A PUSH1 0x2C DUP4 PUSH2 0x1734 JUMP JUMPDEST SWAP2 POP PUSH2 0x2185 DUP3 PUSH2 0x2120 JUMP JUMPDEST PUSH1 0x40 DUP3 ADD SWAP1 POP SWAP2 SWAP1 POP JUMP JUMPDEST PUSH0 PUSH1 0x20 DUP3 ADD SWAP1 POP DUP2 DUP2 SUB PUSH0 DUP4 ADD MSTORE PUSH2 0x21A7 DUP2 PUSH2 0x216E JUMP JUMPDEST SWAP1 POP SWAP2 SWAP1 POP JUMP JUMPDEST PUSH32 0x596120736520636F62726F206C6120737562617374612E000000000000000000 PUSH0 DUP3 ADD MSTORE POP JUMP JUMPDEST PUSH0 PUSH2 0x21E2 PUSH1 0x17 DUP4 PUSH2 0x1734 JUMP JUMPDEST SWAP2 POP PUSH2 0x21ED DUP3 PUSH2 0x21AE JUMP JUMPDEST PUSH1 0x20 DUP3 ADD SWAP1 POP SWAP2 SWAP1 POP JUMP JUMPDEST PUSH0 PUSH1 0x20 DUP3 ADD SWAP1 POP DUP2 DUP2 SUB PUSH0 DUP4 ADD MSTORE PUSH2 0x220F DUP2 PUSH2 0x21D6 JUMP JUMPDEST SWAP1 POP SWAP2 SWAP1 POP JUMP JUMPDEST PUSH32 0x456C20636F6D707261646F72206E6F20686120636F6E6669726D61646F206C61 PUSH0 DUP3 ADD MSTORE PUSH32 0x20656E74726567612064656C206172746963756C6F0000000000000000000000 PUSH1 0x20 DUP3 ADD MSTORE POP JUMP JUMPDEST PUSH0 PUSH2 0x2270 PUSH1 0x35 DUP4 PUSH2 0x1734 JUMP JUMPDEST SWAP2 POP PUSH2 0x227B DUP3 PUSH2 0x2216 JUMP JUMPDEST PUSH1 0x40 DUP3 ADD SWAP1 POP SWAP2 SWAP1 POP JUMP JUMPDEST PUSH0 PUSH1 0x20 DUP3 ADD SWAP1 POP DUP2 DUP2 SUB PUSH0 DUP4 ADD MSTORE PUSH2 0x229D DUP2 PUSH2 0x2264 JUMP JUMPDEST SWAP1 POP SWAP2 SWAP1 POP JUMP JUMPDEST PUSH32 0x4E6F2068617920666F6E646F73207061726120726574697261722E0000000000 PUSH0 DUP3 ADD MSTORE POP JUMP JUMPDEST PUSH0 PUSH2 0x22D8 PUSH1 0x1B DUP4 PUSH2 0x1734 JUMP JUMPDEST SWAP2 POP PUSH2 0x22E3 DUP3 PUSH2 0x22A4 JUMP JUMPDEST PUSH1 0x20 DUP3 ADD SWAP1 POP SWAP2 SWAP1 POP JUMP JUMPDEST PUSH0 PUSH1 0x20 DUP3 ADD SWAP1 POP DUP2 DUP2 SUB PUSH0 DUP4 ADD MSTORE PUSH2 0x2305 DUP2 PUSH2 0x22CC JUMP JUMPDEST SWAP1 POP SWAP2 SWAP1 POP JUMP JUMPDEST PUSH32 0x4C6120656E7472656761207961206861207369646F20636F6E6669726D616461 PUSH0 DUP3 ADD MSTORE POP JUMP JUMPDEST PUSH0 PUSH2 0x2340 PUSH1 0x20 DUP4 PUSH2 0x1734 JUMP JUMPDEST SWAP2 POP PUSH2 0x234B DUP3 PUSH2 0x230C JUMP JUMPDEST PUSH1 0x20 DUP3 ADD SWAP1 POP SWAP2 SWAP1 POP JUMP JUMPDEST PUSH0 PUSH1 0x20 DUP3 ADD SWAP1 POP DUP2 DUP2 SUB PUSH0 DUP4 ADD MSTORE PUSH2 0x236D DUP2 PUSH2 0x2334 JUMP JUMPDEST SWAP1 POP SWAP2 SWAP1 POP JUMP JUMPDEST PUSH32 0x536F6C6F206C612070756A612067616E61646F726120707565646520636F6E66 PUSH0 DUP3 ADD MSTORE PUSH32 0x69726D6172206C6120656E74726567612064656C206172746963756C6F000000 PUSH1 0x20 DUP3 ADD MSTORE POP JUMP JUMPDEST PUSH0 PUSH2 0x23CE PUSH1 0x3D DUP4 PUSH2 0x1734 JUMP JUMPDEST SWAP2 POP PUSH2 0x23D9 DUP3 PUSH2 0x2374 JUMP JUMPDEST PUSH1 0x40 DUP3 ADD SWAP1 POP SWAP2 SWAP1 POP JUMP JUMPDEST PUSH0 PUSH1 0x20 DUP3 ADD SWAP1 POP DUP2 DUP2 SUB PUSH0 DUP4 ADD MSTORE PUSH2 0x23FB DUP2 PUSH2 0x23C2 JUMP JUMPDEST SWAP1 POP SWAP2 SWAP1 POP JUMP JUMPDEST PUSH0 PUSH1 0x40 DUP3 ADD SWAP1 POP PUSH2 0x2415 PUSH0 DUP4 ADD DUP6 PUSH2 0x1642 JUMP JUMPDEST PUSH2 0x2422 PUSH1 0x20 DUP4 ADD DUP5 PUSH2 0x1702 JUMP JUMPDEST SWAP4 SWAP3 POP POP POP JUMP JUMPDEST PUSH32 0x4E487B7100000000000000000000000000000000000000000000000000000000 PUSH0 MSTORE PUSH1 0x11 PUSH1 0x4 MSTORE PUSH1 0x24 PUSH0 REVERT JUMPDEST PUSH0 PUSH2 0x2460 DUP3 PUSH2 0x15E4 JUMP JUMPDEST SWAP2 POP PUSH2 0x246B DUP4 PUSH2 0x15E4 JUMP JUMPDEST SWAP3 POP DUP3 DUP3 ADD SWAP1 POP DUP1 DUP3 GT ISZERO PUSH2 0x2483 JUMPI PUSH2 0x2482 PUSH2 0x2429 JUMP JUMPDEST JUMPDEST SWAP3 SWAP2 POP POP JUMP JUMPDEST PUSH32 0x4E487B7100000000000000000000000000000000000000000000000000000000 PUSH0 MSTORE PUSH1 0x32 PUSH1 0x4 MSTORE PUSH1 0x24 PUSH0 REVERT JUMPDEST PUSH0 PUSH2 0x24C0 DUP3 PUSH2 0x15E4 JUMP JUMPDEST SWAP2 POP PUSH2 0x24CB DUP4 PUSH2 0x15E4 JUMP JUMPDEST SWAP3 POP DUP3 DUP3 MUL PUSH2 0x24D9 DUP2 PUSH2 0x15E4 JUMP JUMPDEST SWAP2 POP DUP3 DUP3 DIV DUP5 EQ DUP4 ISZERO OR PUSH2 0x24F0 JUMPI PUSH2 0x24EF PUSH2 0x2429 JUMP JUMPDEST JUMPDEST POP SWAP3 SWAP2 POP POP JUMP JUMPDEST PUSH32 0x456C207469656D706F2064652073756261737461206E6F2065732076616C6964 PUSH0 DUP3 ADD MSTORE PUSH32 0x61646F0000000000000000000000000000000000000000000000000000000000 PUSH1 0x20 DUP3 ADD MSTORE POP JUMP JUMPDEST PUSH0 PUSH2 0x2551 PUSH1 0x23 DUP4 PUSH2 0x1734 JUMP JUMPDEST SWAP2 POP PUSH2 0x255C DUP3 PUSH2 0x24F7 JUMP JUMPDEST PUSH1 0x40 DUP3 ADD SWAP1 POP SWAP2 SWAP1 POP JUMP JUMPDEST PUSH0 PUSH1 0x20 DUP3 ADD SWAP1 POP DUP2 DUP2 SUB PUSH0 DUP4 ADD MSTORE PUSH2 0x257E DUP2 PUSH2 0x2545 JUMP JUMPDEST SWAP1 POP SWAP2 SWAP1 POP JUMP JUMPDEST PUSH32 0x4C61206465736372697063696F6E206E6F207075656465206573746172207661 PUSH0 DUP3 ADD MSTORE PUSH32 0x6369610000000000000000000000000000000000000000000000000000000000 PUSH1 0x20 DUP3 ADD MSTORE POP JUMP JUMPDEST PUSH0 PUSH2 0x25DF PUSH1 0x23 DUP4 PUSH2 0x1734 JUMP JUMPDEST SWAP2 POP PUSH2 0x25EA DUP3 PUSH2 0x2585 JUMP JUMPDEST PUSH1 0x40 DUP3 ADD SWAP1 POP SWAP2 SWAP1 POP JUMP JUMPDEST PUSH0 PUSH1 0x20 DUP3 ADD SWAP1 POP DUP2 DUP2 SUB PUSH0 DUP4 ADD MSTORE PUSH2 0x260C DUP2 PUSH2 0x25D3 JUMP JUMPDEST SWAP1 POP SWAP2 SWAP1 POP JUMP JUMPDEST PUSH0 PUSH2 0x261D DUP3 PUSH2 0x15E4 JUMP JUMPDEST SWAP2 POP PUSH32 0xFFFFFFFFFFFFFFFFFFFFFFFFFFFFFFFFFFFFFFFFFFFFFFFFFFFFFFFFFFFFFFFF DUP3 SUB PUSH2 0x264F JUMPI PUSH2 0x264E PUSH2 0x2429 JUMP JUMPDEST JUMPDEST PUSH1 0x1 DUP3 ADD SWAP1 POP SWAP2 SWAP1 POP JUMP JUMPDEST PUSH0 DUP2 SWAP1 POP DUP2 PUSH0 MSTORE PUSH1 0x20 PUSH0 KECCAK256 SWAP1 POP SWAP2 SWAP1 POP JUMP JUMPDEST PUSH0 PUSH1 0x20 PUSH1 0x1F DUP4 ADD DIV SWAP1 POP SWAP2 SWAP1 POP JUMP JUMPDEST PUSH0 DUP3 DUP3 SHL SWAP1 POP SWAP3 SWAP2 POP POP JUMP JUMPDEST PUSH0 PUSH1 0x8 DUP4 MUL PUSH2 0x26B6 PUSH32 0xFFFFFFFFFFFFFFFFFFFFFFFFFFFFFFFFFFFFFFFFFFFFFFFFFFFFFFFFFFFFFFFF DUP3 PUSH2 0x267B JUMP JUMPDEST PUSH2 0x26C0 DUP7 DUP4 PUSH2 0x267B JUMP JUMPDEST SWAP6 POP DUP1 NOT DUP5 AND SWAP4 POP DUP1 DUP7 AND DUP5 OR SWAP3 POP POP POP SWAP4 SWAP3 POP POP POP JUMP JUMPDEST PUSH0 DUP2 SWAP1 POP SWAP2 SWAP1 POP JUMP JUMPDEST PUSH0 PUSH2 0x26FB PUSH2 0x26F6 PUSH2 0x26F1 DUP5 PUSH2 0x15E4 JUMP JUMPDEST PUSH2 0x26D8 JUMP JUMPDEST PUSH2 0x15E4 JUMP JUMPDEST SWAP1 POP SWAP2 SWAP1 POP JUMP JUMPDEST PUSH0 DUP2 SWAP1 POP SWAP2 SWAP1 POP JUMP JUMPDEST PUSH2 0x2714 DUP4 PUSH2 0x26E1 JUMP JUMPDEST PUSH2 0x2728 PUSH2 0x2720 DUP3 PUSH2 0x2702 JUMP JUMPDEST DUP5 DUP5 SLOAD PUSH2 0x2687 JUMP JUMPDEST DUP3 SSTORE POP POP POP POP JUMP JUMPDEST PUSH0 PUSH0 SWAP1 POP SWAP1 JUMP JUMPDEST PUSH2 0x273F PUSH2 0x2730 JUMP JUMPDEST PUSH2 0x274A DUP2 DUP5 DUP5 PUSH2 0x270B JUMP JUMPDEST POP POP POP JUMP JUMPDEST JUMPDEST DUP2 DUP2 LT ISZERO PUSH2 0x276D JUMPI PUSH2 0x2762 PUSH0 DUP3 PUSH2 0x2737 JUMP JUMPDEST PUSH1 0x1 DUP2 ADD SWAP1 POP PUSH2 0x2750 JUMP JUMPDEST POP POP JUMP JUMPDEST PUSH1 0x1F DUP3 GT ISZERO PUSH2 0x27B2 JUMPI PUSH2 0x2783 DUP2 PUSH2 0x265A JUMP JUMPDEST PUSH2 0x278C DUP5 PUSH2 0x266C JUMP JUMPDEST DUP2 ADD PUSH1 0x20 DUP6 LT ISZERO PUSH2 0x279B JUMPI DUP2 SWAP1 POP JUMPDEST PUSH2 0x27AF PUSH2 0x27A7 DUP6 PUSH2 0x266C JUMP JUMPDEST DUP4 ADD DUP3 PUSH2 0x274F JUMP JUMPDEST POP POP JUMPDEST POP POP POP JUMP JUMPDEST PUSH0 DUP3 DUP3 SHR SWAP1 POP SWAP3 SWAP2 POP POP JUMP JUMPDEST PUSH0 PUSH2 0x27D2 PUSH0 NOT DUP5 PUSH1 0x8 MUL PUSH2 0x27B7 JUMP JUMPDEST NOT DUP1 DUP4 AND SWAP2 POP POP SWAP3 SWAP2 POP POP JUMP JUMPDEST PUSH0 PUSH2 0x27EA DUP4 DUP4 PUSH2 0x27C3 JUMP JUMPDEST SWAP2 POP DUP3 PUSH1 0x2 MUL DUP3 OR SWAP1 POP SWAP3 SWAP2 POP POP JUMP JUMPDEST PUSH2 0x2803 DUP3 PUSH2 0x172A JUMP JUMPDEST PUSH8 0xFFFFFFFFFFFFFFFF DUP2 GT ISZERO PUSH2 0x281C JUMPI PUSH2 0x281B PUSH2 0x1A72 JUMP JUMPDEST JUMPDEST PUSH2 0x2826 DUP3 SLOAD PUSH2 0x20F0 JUMP JUMPDEST PUSH2 0x2831 DUP3 DUP3 DUP6 PUSH2 0x2771 JUMP JUMPDEST PUSH0 PUSH1 0x20 SWAP1 POP PUSH1 0x1F DUP4 GT PUSH1 0x1 DUP2 EQ PUSH2 0x2862 JUMPI PUSH0 DUP5 ISZERO PUSH2 0x2850 JUMPI DUP3 DUP8 ADD MLOAD SWAP1 POP JUMPDEST PUSH2 0x285A DUP6 DUP3 PUSH2 0x27DF JUMP JUMPDEST DUP7 SSTORE POP PUSH2 0x28C1 JUMP JUMPDEST PUSH1 0x1F NOT DUP5 AND PUSH2 0x2870 DUP7 PUSH2 0x265A JUMP JUMPDEST PUSH0 JUMPDEST DUP3 DUP2 LT ISZERO PUSH2 0x2897 JUMPI DUP5 DUP10 ADD MLOAD DUP3 SSTORE PUSH1 0x1 DUP3 ADD SWAP2 POP PUSH1 0x20 DUP6 ADD SWAP5 POP PUSH1 0x20 DUP2 ADD SWAP1 POP PUSH2 0x2872 JUMP JUMPDEST DUP7 DUP4 LT ISZERO PUSH2 0x28B4 JUMPI DUP5 DUP10 ADD MLOAD PUSH2 0x28B0 PUSH1 0x1F DUP10 AND DUP3 PUSH2 0x27C3 JUMP JUMPDEST DUP4 SSTORE POP JUMPDEST PUSH1 0x1 PUSH1 0x2 DUP9 MUL ADD DUP9 SSTORE POP POP POP JUMPDEST POP POP POP POP POP POP JUMP JUMPDEST PUSH0 DUP2 SLOAD PUSH2 0x28D5 DUP2 PUSH2 0x20F0 JUMP JUMPDEST PUSH2 0x28DF DUP2 DUP7 PUSH2 0x1734 JUMP JUMPDEST SWAP5 POP PUSH1 0x1 DUP3 AND PUSH0 DUP2 EQ PUSH2 0x28F9 JUMPI PUSH1 0x1 DUP2 EQ PUSH2 0x290F JUMPI PUSH2 0x2941 JUMP JUMPDEST PUSH1 0xFF NOT DUP4 AND DUP7 MSTORE DUP2 ISZERO ISZERO PUSH1 0x20 MUL DUP7 ADD SWAP4 POP PUSH2 0x2941 JUMP JUMPDEST PUSH2 0x2918 DUP6 PUSH2 0x265A JUMP JUMPDEST PUSH0 JUMPDEST DUP4 DUP2 LT ISZERO PUSH2 0x2939 JUMPI DUP2 SLOAD DUP2 DUP10 ADD MSTORE PUSH1 0x1 DUP3 ADD SWAP2 POP PUSH1 0x20 DUP2 ADD SWAP1 POP PUSH2 0x291A JUMP JUMPDEST DUP1 DUP9 ADD SWAP6 POP POP POP JUMPDEST POP POP POP SWAP3 SWAP2 POP POP JUMP JUMPDEST PUSH0 PUSH1 0x80 DUP3 ADD SWAP1 POP PUSH2 0x295D PUSH0 DUP4 ADD DUP8 PUSH2 0x1642 JUMP JUMPDEST PUSH2 0x296A PUSH1 0x20 DUP4 ADD DUP7 PUSH2 0x1702 JUMP JUMPDEST DUP2 DUP2 SUB PUSH1 0x40 DUP4 ADD MSTORE PUSH2 0x297C DUP2 DUP6 PUSH2 0x28C9 JUMP JUMPDEST SWAP1 POP PUSH2 0x298B PUSH1 0x60 DUP4 ADD DUP5 PUSH2 0x1642 JUMP JUMPDEST SWAP6 SWAP5 POP POP POP POP POP JUMP INVALID LOG2 PUSH5 0x6970667358 0x22 SLT KECCAK256 PUSH26 0x6FF6722026B2745884643969C55812005BC4D5A35E7050A3B792 PUSH13 0xEE9FEA6A64736F6C634300081F STOP CALLER "
		},
		"gasEstimates": {
			"creation": {
				"codeDepositCost": "2139600",
				"executionCost": "2278",
				"totalCost": "2141878"
			},
			"external": {
				"auctionCount()": "2447",
				"auctionWithdraw(uint256)": "infinite",
				"auctions(uint256)": "infinite",
				"bid(uint256)": "infinite",
				"bids(uint256,address)": "infinite",
				"createAuction(string,uint256)": "infinite",
				"getAuctions()": "infinite",
				"getWinner(uint256)": "7220",
				"receipt(uint256)": "infinite",
				"refund(uint256)": "infinite"
			}
		},
		"methodIdentifiers": {
			"auctionCount()": "2ad71573",
			"auctionWithdraw(uint256)": "6718afb3",
			"auctions(uint256)": "571a26a0",
			"bid(uint256)": "454a2ab3",
			"bids(uint256,address)": "3f1ffcec",
			"createAuction(string,uint256)": "ff895239",
			"getAuctions()": "d7c06919",
			"getWinner(uint256)": "4129b2c9",
			"receipt(uint256)": "a2aa4337",
			"refund(uint256)": "278ecde1"
		}
	},
	"abi": [
		{
			"inputs": [],
			"stateMutability": "nonpayable",
			"type": "constructor"
		},
		{
			"anonymous": false,
			"inputs": [
				{
					"indexed": false,
					"internalType": "uint256",
					"name": "auctionId",
					"type": "uint256"
				},
				{
					"indexed": false,
					"internalType": "address",
					"name": "creator",
					"type": "address"
				},
				{
					"indexed": false,
					"internalType": "string",
					"name": "description",
					"type": "string"
				},
				{
					"indexed": false,
					"internalType": "uint256",
					"name": "deadline",
					"type": "uint256"
				}
			],
			"name": "AuctionCreated",
			"type": "event"
		},
		{
			"anonymous": false,
			"inputs": [
				{
					"indexed": false,
					"internalType": "uint256",
					"name": "auctionId",
					"type": "uint256"
				},
				{
					"indexed": false,
					"internalType": "address",
					"name": "bidder",
					"type": "address"
				},
				{
					"indexed": false,
					"internalType": "uint256",
					"name": "amount",
					"type": "uint256"
				},
				{
					"indexed": false,
					"internalType": "uint256",
					"name": "timestamp",
					"type": "uint256"
				}
			],
			"name": "Bid",
			"type": "event"
		},
		{
			"anonymous": false,
			"inputs": [
				{
					"indexed": false,
					"internalType": "uint256",
					"name": "auctionId",
					"type": "uint256"
				},
				{
					"indexed": false,
					"internalType": "address",
					"name": "winner",
					"type": "address"
				}
			],
			"name": "Receipt",
			"type": "event"
		},
		{
			"anonymous": false,
			"inputs": [
				{
					"indexed": false,
					"internalType": "uint256",
					"name": "auctionId",
					"type": "uint256"
				},
				{
					"indexed": false,
					"internalType": "address",
					"name": "bidder",
					"type": "address"
				},
				{
					"indexed": false,
					"internalType": "uint256",
					"name": "refundAmount",
					"type": "uint256"
				}
			],
			"name": "Refund",
			"type": "event"
		},
		{
			"anonymous": false,
			"inputs": [
				{
					"indexed": false,
					"internalType": "uint256",
					"name": "auctionId",
					"type": "uint256"
				},
				{
					"indexed": false,
					"internalType": "address",
					"name": "creator",
					"type": "address"
				},
				{
					"indexed": false,
					"internalType": "uint256",
					"name": "withdrawAmount",
					"type": "uint256"
				}
			],
			"name": "Withdraw",
			"type": "event"
		},
		{
			"inputs": [],
			"name": "auctionCount",
			"outputs": [
				{
					"internalType": "uint256",
					"name": "",
					"type": "uint256"
				}
			],
			"stateMutability": "view",
			"type": "function"
		},
		{
			"inputs": [
				{
					"internalType": "uint256",
					"name": "_auctionId",
					"type": "uint256"
				}
			],
			"name": "auctionWithdraw",
			"outputs": [
				{
					"internalType": "uint256",
					"name": "",
					"type": "uint256"
				}
			],
			"stateMutability": "nonpayable",
			"type": "function"
		},
		{
			"inputs": [
				{
					"internalType": "uint256",
					"name": "",
					"type": "uint256"
				}
			],
			"name": "auctions",
			"outputs": [
				{
					"internalType": "uint256",
					"name": "auctionId",
					"type": "uint256"
				},
				{
					"internalType": "address",
					"name": "creator",
					"type": "address"
				},
				{
					"internalType": "string",
					"name": "description",
					"type": "string"
				},
				{
					"internalType": "uint256",
					"name": "deadline",
					"type": "uint256"
				},
				{
					"internalType": "address",
					"name": "highestBidder",
					"type": "address"
				},
				{
					"internalType": "uint256",
					"name": "highestBid",
					"type": "uint256"
				},
				{
					"internalType": "enum AuctionSystem.AuctionStatus",
					"name": "status",
					"type": "uint8"
				}
			],
			"stateMutability": "view",
			"type": "function"
		},
		{
			"inputs": [
				{
					"internalType": "uint256",
					"name": "_auctionId",
					"type": "uint256"
				}
			],
			"name": "bid",
			"outputs": [],
			"stateMutability": "payable",
			"type": "function"
		},
		{
			"inputs": [
				{
					"internalType": "uint256",
					"name": "",
					"type": "uint256"
				},
				{
					"internalType": "address",
					"name": "",
					"type": "address"
				}
			],
			"name": "bids",
			"outputs": [
				{
					"internalType": "uint256",
					"name": "",
					"type": "uint256"
				}
			],
			"stateMutability": "view",
			"type": "function"
		},
		{
			"inputs": [
				{
					"internalType": "string",
					"name": "_description",
					"type": "string"
				},
				{
					"internalType": "uint256",
					"name": "timeToLive",
					"type": "uint256"
				}
			],
			"name": "createAuction",
			"outputs": [
				{
					"internalType": "uint256",
					"name": "",
					"type": "uint256"
				}
			],
			"stateMutability": "nonpayable",
			"type": "function"
		},
		{
			"inputs": [],
			"name": "getAuctions",
			"outputs": [
				{
					"components": [
						{
							"internalType": "uint256",
							"name": "auctionId",
							"type": "uint256"
						},
						{
							"internalType": "address",
							"name": "creator",
							"type": "address"
						},
						{
							"internalType": "string",
							"name": "description",
							"type": "string"
						},
						{
							"internalType": "uint256",
							"name": "deadline",
							"type": "uint256"
						},
						{
							"internalType": "address",
							"name": "highestBidder",
							"type": "address"
						},
						{
							"internalType": "uint256",
							"name": "highestBid",
							"type": "uint256"
						},
						{
							"internalType": "enum AuctionSystem.AuctionStatus",
							"name": "status",
							"type": "uint8"
						}
					],
					"internalType": "struct AuctionSystem.Auction[]",
					"name": "",
					"type": "tuple[]"
				}
			],
			"stateMutability": "view",
			"type": "function"
		},
		{
			"inputs": [
				{
					"internalType": "uint256",
					"name": "_auctionId",
					"type": "uint256"
				}
			],
			"name": "getWinner",
			"outputs": [
				{
					"internalType": "address",
					"name": "",
					"type": "address"
				}
			],
			"stateMutability": "view",
			"type": "function"
		},
		{
			"inputs": [
				{
					"internalType": "uint256",
					"name": "_auctionId",
					"type": "uint256"
				}
			],
			"name": "receipt",
			"outputs": [],
			"stateMutability": "nonpayable",
			"type": "function"
		},
		{
			"inputs": [
				{
					"internalType": "uint256",
					"name": "_auctionId",
					"type": "uint256"
				}
			],
			"name": "refund",
			"outputs": [
				{
					"internalType": "uint256",
					"name": "",
					"type": "uint256"
				}
			],
			"stateMutability": "nonpayable",
			"type": "function"
		}
	]
}