{
	"data": {
		"bytecode": {
			"linkReferences": {},
			"object": "6080604052348015600e575f5ffd5b506121138061001c5f395ff3fe60806040526004361061007a575f3560e01c8063454a2ab31161004d578063454a2ab31461015c578063571a26a014610178578063d7c06919146101b9578063ff895239146101e35761007a565b8063278ecde11461007e5780632ad71573146100ba5780633f1ffcec146100e45780634129b2c914610120575b5f5ffd5b348015610089575f5ffd5b506100a4600480360381019061009f9190611071565b61021f565b6040516100b191906110ab565b60405180910390f35b3480156100c5575f5ffd5b506100ce61053c565b6040516100db91906110ab565b60405180910390f35b3480156100ef575f5ffd5b5061010a6004803603810190610105919061111e565b610541565b60405161011791906110ab565b60405180910390f35b34801561012b575f5ffd5b5061014660048036038101906101419190611071565b610561565b604051610153919061116b565b60405180910390f35b61017660048036038101906101719190611071565b6106c8565b005b348015610183575f5ffd5b5061019e60048036038101906101999190611071565b610a3c565b6040516101b0969594939291906111f4565b60405180910390f35b3480156101c4575f5ffd5b506101cd610b38565b6040516101da9190611401565b60405180910390f35b3480156101ee575f5ffd5b506102096004803603810190610204919061154d565b610d52565b60405161021691906110ab565b60405180910390f35b5f5f60015f8481526020019081526020015f2090505f8311801561024457505f548311155b610283576040517f08c379a000000000000000000000000000000000000000000000000000000000815260040161027a906115f1565b60405180910390fd5b806003015442116102c9576040517f08c379a00000000000000000000000000000000000000000000000000000000081526004016102c090611659565b60405180910390fd5b3373ffffffffffffffffffffffffffffffffffffffff16816004015f9054906101000a900473ffffffffffffffffffffffffffffffffffffffff1673ffffffffffffffffffffffffffffffffffffffff160361035a576040517f08c379a0000000000000000000000000000000000000000000000000000000008152600401610351906116e7565b60405180910390fd5b5f60025f8581526020019081526020015f205f3373ffffffffffffffffffffffffffffffffffffffff1673ffffffffffffffffffffffffffffffffffffffff1681526020019081526020015f2054116103e8576040517f08c379a00000000000000000000000000000000000000000000000000000000081526004016103df9061174f565b60405180910390fd5b5f60025f8581526020019081526020015f205f3373ffffffffffffffffffffffffffffffffffffffff1673ffffffffffffffffffffffffffffffffffffffff1681526020019081526020015f205490505f3373ffffffffffffffffffffffffffffffffffffffff168260405161045d9061179a565b5f6040518083038185875af1925050503d805f8114610497576040519150601f19603f3d011682016040523d82523d5f602084013e61049c565b606091505b50509050806104e0576040517f08c379a00000000000000000000000000000000000000000000000000000000081526004016104d7906117f8565b60405180910390fd5b5f60025f8781526020019081526020015f205f3373ffffffffffffffffffffffffffffffffffffffff1673ffffffffffffffffffffffffffffffffffffffff1681526020019081526020015f2081905550819350505050919050565b5f5481565b6002602052815f5260405f20602052805f5260405f205f91509150505481565b5f5f60015f8481526020019081526020015f2090505f8311801561058657505f548311155b6105c5576040517f08c379a00000000000000000000000000000000000000000000000000000000081526004016105bc906115f1565b60405180910390fd5b8060030154421161060b576040517f08c379a000000000000000000000000000000000000000000000000000000000815260040161060290611659565b60405180910390fd5b5f73ffffffffffffffffffffffffffffffffffffffff16816004015f9054906101000a900473ffffffffffffffffffffffffffffffffffffffff1673ffffffffffffffffffffffffffffffffffffffff160361069c576040517f08c379a000000000000000000000000000000000000000000000000000000000815260040161069390611860565b60405180910390fd5b806004015f9054906101000a900473ffffffffffffffffffffffffffffffffffffffff16915050919050565b5f60015f8381526020019081526020015f2090505f821180156106ec57505f548211155b61072b576040517f08c379a0000000000000000000000000000000000000000000000000000000008152600401610722906115f1565b60405180910390fd5b662386f26fc10000341015610775576040517f08c379a000000000000000000000000000000000000000000000000000000000815260040161076c906118ee565b60405180910390fd5b5f60025f8481526020019081526020015f205f3373ffffffffffffffffffffffffffffffffffffffff1673ffffffffffffffffffffffffffffffffffffffff1681526020019081526020015f205414610803576040517f08c379a00000000000000000000000000000000000000000000000000000000081526004016107fa90611956565b60405180910390fd5b80600301544210610849576040517f08c379a0000000000000000000000000000000000000000000000000000000008152600401610840906119be565b60405180910390fd5b8060050154341161088f576040517f08c379a000000000000000000000000000000000000000000000000000000000815260040161088690611a4c565b60405180910390fd5b33816004015f6101000a81548173ffffffffffffffffffffffffffffffffffffffff021916908373ffffffffffffffffffffffffffffffffffffffff1602179055503481600501819055503460025f8481526020019081526020015f205f3373ffffffffffffffffffffffffffffffffffffffff1673ffffffffffffffffffffffffffffffffffffffff1681526020019081526020015f20819055505f816004015f9054906101000a900473ffffffffffffffffffffffffffffffffffffffff1673ffffffffffffffffffffffffffffffffffffffff1682600501546040516109779061179a565b5f6040518083038185875af1925050503d805f81146109b1576040519150601f19603f3d011682016040523d82523d5f602084013e6109b6565b606091505b50509050806109fa576040517f08c379a00000000000000000000000000000000000000000000000000000000081526004016109f190611ab4565b60405180910390fd5b7f3138d8d517460c959fb333d4e8d87ea984f1cf15d6742c02e2955dd27a622b7083333442604051610a2f9493929190611ad2565b60405180910390a1505050565b6001602052805f5260405f205f91509050805f015490806001015f9054906101000a900473ffffffffffffffffffffffffffffffffffffffff1690806002018054610a8690611b42565b80601f0160208091040260200160405190810160405280929190818152602001828054610ab290611b42565b8015610afd5780601f10610ad457610100808354040283529160200191610afd565b820191905f5260205f20905b815481529060010190602001808311610ae057829003601f168201915b505050505090806003015490806004015f9054906101000a900473ffffffffffffffffffffffffffffffffffffffff16908060050154905086565b60605f5f5467ffffffffffffffff811115610b5657610b55611429565b5b604051908082528060200260200182016040528015610b8f57816020015b610b7c610fd0565b815260200190600190039081610b745790505b5090505f5f90505b5f54811015610d4a5760015f600183610bb09190611b9f565b81526020019081526020015f206040518060c00160405290815f8201548152602001600182015f9054906101000a900473ffffffffffffffffffffffffffffffffffffffff1673ffffffffffffffffffffffffffffffffffffffff1673ffffffffffffffffffffffffffffffffffffffff168152602001600282018054610c3690611b42565b80601f0160208091040260200160405190810160405280929190818152602001828054610c6290611b42565b8015610cad5780601f10610c8457610100808354040283529160200191610cad565b820191905f5260205f20905b815481529060010190602001808311610c9057829003601f168201915b5050505050815260200160038201548152602001600482015f9054906101000a900473ffffffffffffffffffffffffffffffffffffffff1673ffffffffffffffffffffffffffffffffffffffff1673ffffffffffffffffffffffffffffffffffffffff168152602001600582015481525050828281518110610d3257610d31611bd2565b5b60200260200101819052508080600101915050610b97565b508091505090565b5f5f603c83610d619190611bff565b9050603c8110158015610d77575062093a808111155b610db6576040517f08c379a0000000000000000000000000000000000000000000000000000000008152600401610dad90611cb0565b60405180910390fd5b5f845111610df9576040517f08c379a0000000000000000000000000000000000000000000000000000000008152600401610df090611d3e565b60405180910390fd5b5f5f8154610e0690611d5c565b919050819055506040518060c001604052805f5481526020013373ffffffffffffffffffffffffffffffffffffffff1681526020018581526020018242610e4d9190611b9f565b81526020015f73ffffffffffffffffffffffffffffffffffffffff1681526020015f81525060015f5f5481526020019081526020015f205f820151815f01556020820151816001015f6101000a81548173ffffffffffffffffffffffffffffffffffffffff021916908373ffffffffffffffffffffffffffffffffffffffff1602179055506040820151816002019081610ee79190611f43565b50606082015181600301556080820151816004015f6101000a81548173ffffffffffffffffffffffffffffffffffffffff021916908373ffffffffffffffffffffffffffffffffffffffff16021790555060a082015181600501559050505f60015f5f5481526020019081526020015f2090507f568694aa4b5066fe5362111fcfda3f97f456688bc2adc2538c2f2c1acf954b34815f0154826001015f9054906101000a900473ffffffffffffffffffffffffffffffffffffffff16836002018460030154604051610fbc9493929190612093565b60405180910390a15f549250505092915050565b6040518060c001604052805f81526020015f73ffffffffffffffffffffffffffffffffffffffff168152602001606081526020015f81526020015f73ffffffffffffffffffffffffffffffffffffffff1681526020015f81525090565b5f604051905090565b5f5ffd5b5f5ffd5b5f819050919050565b6110508161103e565b811461105a575f5ffd5b50565b5f8135905061106b81611047565b92915050565b5f6020828403121561108657611085611036565b5b5f6110938482850161105d565b91505092915050565b6110a58161103e565b82525050565b5f6020820190506110be5f83018461109c565b92915050565b5f73ffffffffffffffffffffffffffffffffffffffff82169050919050565b5f6110ed826110c4565b9050919050565b6110fd816110e3565b8114611107575f5ffd5b50565b5f81359050611118816110f4565b92915050565b5f5f6040838503121561113457611133611036565b5b5f6111418582860161105d565b92505060206111528582860161110a565b9150509250929050565b611165816110e3565b82525050565b5f60208201905061117e5f83018461115c565b92915050565b5f81519050919050565b5f82825260208201905092915050565b8281835e5f83830152505050565b5f601f19601f8301169050919050565b5f6111c682611184565b6111d0818561118e565b93506111e081856020860161119e565b6111e9816111ac565b840191505092915050565b5f60c0820190506112075f83018961109c565b611214602083018861115c565b818103604083015261122681876111bc565b9050611235606083018661109c565b611242608083018561115c565b61124f60a083018461109c565b979650505050505050565b5f81519050919050565b5f82825260208201905092915050565b5f819050602082019050919050565b61128c8161103e565b82525050565b61129b816110e3565b82525050565b5f82825260208201905092915050565b5f6112bb82611184565b6112c581856112a1565b93506112d581856020860161119e565b6112de816111ac565b840191505092915050565b5f60c083015f8301516112fe5f860182611283565b5060208301516113116020860182611292565b506040830151848203604086015261132982826112b1565b915050606083015161133e6060860182611283565b5060808301516113516080860182611292565b5060a083015161136460a0860182611283565b508091505092915050565b5f61137a83836112e9565b905092915050565b5f602082019050919050565b5f6113988261125a565b6113a28185611264565b9350836020820285016113b485611274565b805f5b858110156113ef57848403895281516113d0858261136f565b94506113db83611382565b925060208a019950506001810190506113b7565b50829750879550505050505092915050565b5f6020820190508181035f830152611419818461138e565b905092915050565b5f5ffd5b5f5ffd5b7f4e487b71000000000000000000000000000000000000000000000000000000005f52604160045260245ffd5b61145f826111ac565b810181811067ffffffffffffffff8211171561147e5761147d611429565b5b80604052505050565b5f61149061102d565b905061149c8282611456565b919050565b5f67ffffffffffffffff8211156114bb576114ba611429565b5b6114c4826111ac565b9050602081019050919050565b828183375f83830152505050565b5f6114f16114ec846114a1565b611487565b90508281526020810184848401111561150d5761150c611425565b5b6115188482856114d1565b509392505050565b5f82601f83011261153457611533611421565b5b81356115448482602086016114df565b91505092915050565b5f5f6040838503121561156357611562611036565b5b5f83013567ffffffffffffffff8111156115805761157f61103a565b5b61158c85828601611520565b925050602061159d8582860161105d565b9150509250929050565b7f4c612073756261737461206e6f206578697374652e00000000000000000000005f82015250565b5f6115db60158361118e565b91506115e6826115a7565b602082019050919050565b5f6020820190508181035f830152611608816115cf565b9050919050565b7f4c612073756261737461206e6f206861207465726d696e61646f2e00000000005f82015250565b5f611643601b8361118e565b915061164e8261160f565b602082019050919050565b5f6020820190508181035f83015261167081611637565b9050919050565b7f4e6f2070756564657320726574697261722074752070756a612c2068617320675f8201527f616e61646f206c61207375626173746100000000000000000000000000000000602082015250565b5f6116d160308361118e565b91506116dc82611677565b604082019050919050565b5f6020820190508181035f8301526116fe816116c5565b9050919050565b7f4e6f206861732070756a61646f20656e206573746120737562617374612e00005f82015250565b5f611739601e8361118e565b915061174482611705565b602082019050919050565b5f6020820190508181035f8301526117668161172d565b9050919050565b5f81905092915050565b50565b5f6117855f8361176d565b915061179082611777565b5f82019050919050565b5f6117a48261177a565b9150819050919050565b7f4c61207472616e73666572656e6369612068612066616c6c61646f00000000005f82015250565b5f6117e2601b8361118e565b91506117ed826117ae565b602082019050919050565b5f6020820190508181035f83015261180f816117d6565b9050919050565b7f4e616469652068612070756a61646f20656e206573746120737562617374612e5f82015250565b5f61184a60208361118e565b915061185582611816565b602082019050919050565b5f6020820190508181035f8301526118778161183e565b9050919050565b7f4c612070756a61207469656e65207175652073657220646520616c206d656e6f5f8201527f7320302e30312065746865722e00000000000000000000000000000000000000602082015250565b5f6118d8602d8361118e565b91506118e38261187e565b604082019050919050565b5f6020820190508181035f830152611905816118cc565b9050919050565b7f4e6f2070756564657320766f6c76657220612070756a61722e000000000000005f82015250565b5f61194060198361118e565b915061194b8261190c565b602082019050919050565b5f6020820190508181035f83015261196d81611934565b9050919050565b7f4c612073756261737461207961206861207465726d696e61646f2e00000000005f82015250565b5f6119a8601b8361118e565b91506119b382611974565b602082019050919050565b5f6020820190508181035f8301526119d58161199c565b9050919050565b7f4c612070756a61207469656e652071756520736572206d61796f7220717565205f8201527f6c612070756a612061637475616c2e0000000000000000000000000000000000602082015250565b5f611a36602f8361118e565b9150611a41826119dc565b604082019050919050565b5f6020820190508181035f830152611a6381611a2a565b9050919050565b7f5472616e73666572206661696c656400000000000000000000000000000000005f82015250565b5f611a9e600f8361118e565b9150611aa982611a6a565b602082019050919050565b5f6020820190508181035f830152611acb81611a92565b9050919050565b5f608082019050611ae55f83018761109c565b611af2602083018661115c565b611aff604083018561109c565b611b0c606083018461109c565b95945050505050565b7f4e487b71000000000000000000000000000000000000000000000000000000005f52602260045260245ffd5b5f6002820490506001821680611b5957607f821691505b602082108103611b6c57611b6b611b15565b5b50919050565b7f4e487b71000000000000000000000000000000000000000000000000000000005f52601160045260245ffd5b5f611ba98261103e565b9150611bb48361103e565b9250828201905080821115611bcc57611bcb611b72565b5b92915050565b7f4e487b71000000000000000000000000000000000000000000000000000000005f52603260045260245ffd5b5f611c098261103e565b9150611c148361103e565b9250828202611c228161103e565b91508282048414831517611c3957611c38611b72565b5b5092915050565b7f456c207469656d706f2064652073756261737461206e6f2065732076616c69645f8201527f61646f0000000000000000000000000000000000000000000000000000000000602082015250565b5f611c9a60238361118e565b9150611ca582611c40565b604082019050919050565b5f6020820190508181035f830152611cc781611c8e565b9050919050565b7f4c61206465736372697063696f6e206e6f2070756564652065737461722076615f8201527f6369610000000000000000000000000000000000000000000000000000000000602082015250565b5f611d2860238361118e565b9150611d3382611cce565b604082019050919050565b5f6020820190508181035f830152611d5581611d1c565b9050919050565b5f611d668261103e565b91507fffffffffffffffffffffffffffffffffffffffffffffffffffffffffffffffff8203611d9857611d97611b72565b5b600182019050919050565b5f819050815f5260205f209050919050565b5f6020601f8301049050919050565b5f82821b905092915050565b5f60088302611dff7fffffffffffffffffffffffffffffffffffffffffffffffffffffffffffffffff82611dc4565b611e098683611dc4565b95508019841693508086168417925050509392505050565b5f819050919050565b5f611e44611e3f611e3a8461103e565b611e21565b61103e565b9050919050565b5f819050919050565b611e5d83611e2a565b611e71611e6982611e4b565b848454611dd0565b825550505050565b5f5f905090565b611e88611e79565b611e93818484611e54565b505050565b5b81811015611eb657611eab5f82611e80565b600181019050611e99565b5050565b601f821115611efb57611ecc81611da3565b611ed584611db5565b81016020851015611ee4578190505b611ef8611ef085611db5565b830182611e98565b50505b505050565b5f82821c905092915050565b5f611f1b5f1984600802611f00565b1980831691505092915050565b5f611f338383611f0c565b9150826002028217905092915050565b611f4c82611184565b67ffffffffffffffff811115611f6557611f64611429565b5b611f6f8254611b42565b611f7a828285611eba565b5f60209050601f831160018114611fab575f8415611f99578287015190505b611fa38582611f28565b86555061200a565b601f198416611fb986611da3565b5f5b82811015611fe057848901518255600182019150602085019450602081019050611fbb565b86831015611ffd5784890151611ff9601f891682611f0c565b8355505b6001600288020188555050505b505050505050565b5f815461201e81611b42565b612028818661118e565b9450600182165f811461204257600181146120585761208a565b60ff19831686528115156020028601935061208a565b61206185611da3565b5f5b8381101561208257815481890152600182019150602081019050612063565b808801955050505b50505092915050565b5f6080820190506120a65f83018761109c565b6120b3602083018661115c565b81810360408301526120c58185612012565b90506120d4606083018461109c565b9594505050505056fea264697066735822122063dbaac2469841fa7432153c09733a6ad8603f46e6dda85b4713e658e935a8ff64736f6c634300081f0033",
			"opcodes": "PUSH1 0x80 PUSH1 0x40 MSTORE CALLVALUE DUP1 ISZERO PUSH1 0xE JUMPI PUSH0 PUSH0 REVERT JUMPDEST POP PUSH2 0x2113 DUP1 PUSH2 0x1C PUSH0 CODECOPY PUSH0 RETURN INVALID PUSH1 0x80 PUSH1 0x40 MSTORE PUSH1 0x4 CALLDATASIZE LT PUSH2 0x7A JUMPI PUSH0 CALLDATALOAD PUSH1 0xE0 SHR DUP1 PUSH4 0x454A2AB3 GT PUSH2 0x4D JUMPI DUP1 PUSH4 0x454A2AB3 EQ PUSH2 0x15C JUMPI DUP1 PUSH4 0x571A26A0 EQ PUSH2 0x178 JUMPI DUP1 PUSH4 0xD7C06919 EQ PUSH2 0x1B9 JUMPI DUP1 PUSH4 0xFF895239 EQ PUSH2 0x1E3 JUMPI PUSH2 0x7A JUMP JUMPDEST DUP1 PUSH4 0x278ECDE1 EQ PUSH2 0x7E JUMPI DUP1 PUSH4 0x2AD71573 EQ PUSH2 0xBA JUMPI DUP1 PUSH4 0x3F1FFCEC EQ PUSH2 0xE4 JUMPI DUP1 PUSH4 0x4129B2C9 EQ PUSH2 0x120 JUMPI JUMPDEST PUSH0 PUSH0 REVERT JUMPDEST CALLVALUE DUP1 ISZERO PUSH2 0x89 JUMPI PUSH0 PUSH0 REVERT JUMPDEST POP PUSH2 0xA4 PUSH1 0x4 DUP1 CALLDATASIZE SUB DUP2 ADD SWAP1 PUSH2 0x9F SWAP2 SWAP1 PUSH2 0x1071 JUMP JUMPDEST PUSH2 0x21F JUMP JUMPDEST PUSH1 0x40 MLOAD PUSH2 0xB1 SWAP2 SWAP1 PUSH2 0x10AB JUMP JUMPDEST PUSH1 0x40 MLOAD DUP1 SWAP2 SUB SWAP1 RETURN JUMPDEST CALLVALUE DUP1 ISZERO PUSH2 0xC5 JUMPI PUSH0 PUSH0 REVERT JUMPDEST POP PUSH2 0xCE PUSH2 0x53C JUMP JUMPDEST PUSH1 0x40 MLOAD PUSH2 0xDB SWAP2 SWAP1 PUSH2 0x10AB JUMP JUMPDEST PUSH1 0x40 MLOAD DUP1 SWAP2 SUB SWAP1 RETURN JUMPDEST CALLVALUE DUP1 ISZERO PUSH2 0xEF JUMPI PUSH0 PUSH0 REVERT JUMPDEST POP PUSH2 0x10A PUSH1 0x4 DUP1 CALLDATASIZE SUB DUP2 ADD SWAP1 PUSH2 0x105 SWAP2 SWAP1 PUSH2 0x111E JUMP JUMPDEST PUSH2 0x541 JUMP JUMPDEST PUSH1 0x40 MLOAD PUSH2 0x117 SWAP2 SWAP1 PUSH2 0x10AB JUMP JUMPDEST PUSH1 0x40 MLOAD DUP1 SWAP2 SUB SWAP1 RETURN JUMPDEST CALLVALUE DUP1 ISZERO PUSH2 0x12B JUMPI PUSH0 PUSH0 REVERT JUMPDEST POP PUSH2 0x146 PUSH1 0x4 DUP1 CALLDATASIZE SUB DUP2 ADD SWAP1 PUSH2 0x141 SWAP2 SWAP1 PUSH2 0x1071 JUMP JUMPDEST PUSH2 0x561 JUMP JUMPDEST PUSH1 0x40 MLOAD PUSH2 0x153 SWAP2 SWAP1 PUSH2 0x116B JUMP JUMPDEST PUSH1 0x40 MLOAD DUP1 SWAP2 SUB SWAP1 RETURN JUMPDEST PUSH2 0x176 PUSH1 0x4 DUP1 CALLDATASIZE SUB DUP2 ADD SWAP1 PUSH2 0x171 SWAP2 SWAP1 PUSH2 0x1071 JUMP JUMPDEST PUSH2 0x6C8 JUMP JUMPDEST STOP JUMPDEST CALLVALUE DUP1 ISZERO PUSH2 0x183 JUMPI PUSH0 PUSH0 REVERT JUMPDEST POP PUSH2 0x19E PUSH1 0x4 DUP1 CALLDATASIZE SUB DUP2 ADD SWAP1 PUSH2 0x199 SWAP2 SWAP1 PUSH2 0x1071 JUMP JUMPDEST PUSH2 0xA3C JUMP JUMPDEST PUSH1 0x40 MLOAD PUSH2 0x1B0 SWAP7 SWAP6 SWAP5 SWAP4 SWAP3 SWAP2 SWAP1 PUSH2 0x11F4 JUMP JUMPDEST PUSH1 0x40 MLOAD DUP1 SWAP2 SUB SWAP1 RETURN JUMPDEST CALLVALUE DUP1 ISZERO PUSH2 0x1C4 JUMPI PUSH0 PUSH0 REVERT JUMPDEST POP PUSH2 0x1CD PUSH2 0xB38 JUMP JUMPDEST PUSH1 0x40 MLOAD PUSH2 0x1DA SWAP2 SWAP1 PUSH2 0x1401 JUMP JUMPDEST PUSH1 0x40 MLOAD DUP1 SWAP2 SUB SWAP1 RETURN JUMPDEST CALLVALUE DUP1 ISZERO PUSH2 0x1EE JUMPI PUSH0 PUSH0 REVERT JUMPDEST POP PUSH2 0x209 PUSH1 0x4 DUP1 CALLDATASIZE SUB DUP2 ADD SWAP1 PUSH2 0x204 SWAP2 SWAP1 PUSH2 0x154D JUMP JUMPDEST PUSH2 0xD52 JUMP JUMPDEST PUSH1 0x40 MLOAD PUSH2 0x216 SWAP2 SWAP1 PUSH2 0x10AB JUMP JUMPDEST PUSH1 0x40 MLOAD DUP1 SWAP2 SUB SWAP1 RETURN JUMPDEST PUSH0 PUSH0 PUSH1 0x1 PUSH0 DUP5 DUP2 MSTORE PUSH1 0x20 ADD SWAP1 DUP2 MSTORE PUSH1 0x20 ADD PUSH0 KECCAK256 SWAP1 POP PUSH0 DUP4 GT DUP1 ISZERO PUSH2 0x244 JUMPI POP PUSH0 SLOAD DUP4 GT ISZERO JUMPDEST PUSH2 0x283 JUMPI PUSH1 0x40 MLOAD PUSH32 0x8C379A000000000000000000000000000000000000000000000000000000000 DUP2 MSTORE PUSH1 0x4 ADD PUSH2 0x27A SWAP1 PUSH2 0x15F1 JUMP JUMPDEST PUSH1 0x40 MLOAD DUP1 SWAP2 SUB SWAP1 REVERT JUMPDEST DUP1 PUSH1 0x3 ADD SLOAD TIMESTAMP GT PUSH2 0x2C9 JUMPI PUSH1 0x40 MLOAD PUSH32 0x8C379A000000000000000000000000000000000000000000000000000000000 DUP2 MSTORE PUSH1 0x4 ADD PUSH2 0x2C0 SWAP1 PUSH2 0x1659 JUMP JUMPDEST PUSH1 0x40 MLOAD DUP1 SWAP2 SUB SWAP1 REVERT JUMPDEST CALLER PUSH20 0xFFFFFFFFFFFFFFFFFFFFFFFFFFFFFFFFFFFFFFFF AND DUP2 PUSH1 0x4 ADD PUSH0 SWAP1 SLOAD SWAP1 PUSH2 0x100 EXP SWAP1 DIV PUSH20 0xFFFFFFFFFFFFFFFFFFFFFFFFFFFFFFFFFFFFFFFF AND PUSH20 0xFFFFFFFFFFFFFFFFFFFFFFFFFFFFFFFFFFFFFFFF AND SUB PUSH2 0x35A JUMPI PUSH1 0x40 MLOAD PUSH32 0x8C379A000000000000000000000000000000000000000000000000000000000 DUP2 MSTORE PUSH1 0x4 ADD PUSH2 0x351 SWAP1 PUSH2 0x16E7 JUMP JUMPDEST PUSH1 0x40 MLOAD DUP1 SWAP2 SUB SWAP1 REVERT JUMPDEST PUSH0 PUSH1 0x2 PUSH0 DUP6 DUP2 MSTORE PUSH1 0x20 ADD SWAP1 DUP2 MSTORE PUSH1 0x20 ADD PUSH0 KECCAK256 PUSH0 CALLER PUSH20 0xFFFFFFFFFFFFFFFFFFFFFFFFFFFFFFFFFFFFFFFF AND PUSH20 0xFFFFFFFFFFFFFFFFFFFFFFFFFFFFFFFFFFFFFFFF AND DUP2 MSTORE PUSH1 0x20 ADD SWAP1 DUP2 MSTORE PUSH1 0x20 ADD PUSH0 KECCAK256 SLOAD GT PUSH2 0x3E8 JUMPI PUSH1 0x40 MLOAD PUSH32 0x8C379A000000000000000000000000000000000000000000000000000000000 DUP2 MSTORE PUSH1 0x4 ADD PUSH2 0x3DF SWAP1 PUSH2 0x174F JUMP JUMPDEST PUSH1 0x40 MLOAD DUP1 SWAP2 SUB SWAP1 REVERT JUMPDEST PUSH0 PUSH1 0x2 PUSH0 DUP6 DUP2 MSTORE PUSH1 0x20 ADD SWAP1 DUP2 MSTORE PUSH1 0x20 ADD PUSH0 KECCAK256 PUSH0 CALLER PUSH20 0xFFFFFFFFFFFFFFFFFFFFFFFFFFFFFFFFFFFFFFFF AND PUSH20 0xFFFFFFFFFFFFFFFFFFFFFFFFFFFFFFFFFFFFFFFF AND DUP2 MSTORE PUSH1 0x20 ADD SWAP1 DUP2 MSTORE PUSH1 0x20 ADD PUSH0 KECCAK256 SLOAD SWAP1 POP PUSH0 CALLER PUSH20 0xFFFFFFFFFFFFFFFFFFFFFFFFFFFFFFFFFFFFFFFF AND DUP3 PUSH1 0x40 MLOAD PUSH2 0x45D SWAP1 PUSH2 0x179A JUMP JUMPDEST PUSH0 PUSH1 0x40 MLOAD DUP1 DUP4 SUB DUP2 DUP6 DUP8 GAS CALL SWAP3 POP POP POP RETURNDATASIZE DUP1 PUSH0 DUP2 EQ PUSH2 0x497 JUMPI PUSH1 0x40 MLOAD SWAP2 POP PUSH1 0x1F NOT PUSH1 0x3F RETURNDATASIZE ADD AND DUP3 ADD PUSH1 0x40 MSTORE RETURNDATASIZE DUP3 MSTORE RETURNDATASIZE PUSH0 PUSH1 0x20 DUP5 ADD RETURNDATACOPY PUSH2 0x49C JUMP JUMPDEST PUSH1 0x60 SWAP2 POP JUMPDEST POP POP SWAP1 POP DUP1 PUSH2 0x4E0 JUMPI PUSH1 0x40 MLOAD PUSH32 0x8C379A000000000000000000000000000000000000000000000000000000000 DUP2 MSTORE PUSH1 0x4 ADD PUSH2 0x4D7 SWAP1 PUSH2 0x17F8 JUMP JUMPDEST PUSH1 0x40 MLOAD DUP1 SWAP2 SUB SWAP1 REVERT JUMPDEST PUSH0 PUSH1 0x2 PUSH0 DUP8 DUP2 MSTORE PUSH1 0x20 ADD SWAP1 DUP2 MSTORE PUSH1 0x20 ADD PUSH0 KECCAK256 PUSH0 CALLER PUSH20 0xFFFFFFFFFFFFFFFFFFFFFFFFFFFFFFFFFFFFFFFF AND PUSH20 0xFFFFFFFFFFFFFFFFFFFFFFFFFFFFFFFFFFFFFFFF AND DUP2 MSTORE PUSH1 0x20 ADD SWAP1 DUP2 MSTORE PUSH1 0x20 ADD PUSH0 KECCAK256 DUP2 SWAP1 SSTORE POP DUP2 SWAP4 POP POP POP POP SWAP2 SWAP1 POP JUMP JUMPDEST PUSH0 SLOAD DUP2 JUMP JUMPDEST PUSH1 0x2 PUSH1 0x20 MSTORE DUP2 PUSH0 MSTORE PUSH1 0x40 PUSH0 KECCAK256 PUSH1 0x20 MSTORE DUP1 PUSH0 MSTORE PUSH1 0x40 PUSH0 KECCAK256 PUSH0 SWAP2 POP SWAP2 POP POP SLOAD DUP2 JUMP JUMPDEST PUSH0 PUSH0 PUSH1 0x1 PUSH0 DUP5 DUP2 MSTORE PUSH1 0x20 ADD SWAP1 DUP2 MSTORE PUSH1 0x20 ADD PUSH0 KECCAK256 SWAP1 POP PUSH0 DUP4 GT DUP1 ISZERO PUSH2 0x586 JUMPI POP PUSH0 SLOAD DUP4 GT ISZERO JUMPDEST PUSH2 0x5C5 JUMPI PUSH1 0x40 MLOAD PUSH32 0x8C379A000000000000000000000000000000000000000000000000000000000 DUP2 MSTORE PUSH1 0x4 ADD PUSH2 0x5BC SWAP1 PUSH2 0x15F1 JUMP JUMPDEST PUSH1 0x40 MLOAD DUP1 SWAP2 SUB SWAP1 REVERT JUMPDEST DUP1 PUSH1 0x3 ADD SLOAD TIMESTAMP GT PUSH2 0x60B JUMPI PUSH1 0x40 MLOAD PUSH32 0x8C379A000000000000000000000000000000000000000000000000000000000 DUP2 MSTORE PUSH1 0x4 ADD PUSH2 0x602 SWAP1 PUSH2 0x1659 JUMP JUMPDEST PUSH1 0x40 MLOAD DUP1 SWAP2 SUB SWAP1 REVERT JUMPDEST PUSH0 PUSH20 0xFFFFFFFFFFFFFFFFFFFFFFFFFFFFFFFFFFFFFFFF AND DUP2 PUSH1 0x4 ADD PUSH0 SWAP1 SLOAD SWAP1 PUSH2 0x100 EXP SWAP1 DIV PUSH20 0xFFFFFFFFFFFFFFFFFFFFFFFFFFFFFFFFFFFFFFFF AND PUSH20 0xFFFFFFFFFFFFFFFFFFFFFFFFFFFFFFFFFFFFFFFF AND SUB PUSH2 0x69C JUMPI PUSH1 0x40 MLOAD PUSH32 0x8C379A000000000000000000000000000000000000000000000000000000000 DUP2 MSTORE PUSH1 0x4 ADD PUSH2 0x693 SWAP1 PUSH2 0x1860 JUMP JUMPDEST PUSH1 0x40 MLOAD DUP1 SWAP2 SUB SWAP1 REVERT JUMPDEST DUP1 PUSH1 0x4 ADD PUSH0 SWAP1 SLOAD SWAP1 PUSH2 0x100 EXP SWAP1 DIV PUSH20 0xFFFFFFFFFFFFFFFFFFFFFFFFFFFFFFFFFFFFFFFF AND SWAP2 POP POP SWAP2 SWAP1 POP JUMP JUMPDEST PUSH0 PUSH1 0x1 PUSH0 DUP4 DUP2 MSTORE PUSH1 0x20 ADD SWAP1 DUP2 MSTORE PUSH1 0x20 ADD PUSH0 KECCAK256 SWAP1 POP PUSH0 DUP3 GT DUP1 ISZERO PUSH2 0x6EC JUMPI POP PUSH0 SLOAD DUP3 GT ISZERO JUMPDEST PUSH2 0x72B JUMPI PUSH1 0x40 MLOAD PUSH32 0x8C379A000000000000000000000000000000000000000000000000000000000 DUP2 MSTORE PUSH1 0x4 ADD PUSH2 0x722 SWAP1 PUSH2 0x15F1 JUMP JUMPDEST PUSH1 0x40 MLOAD DUP1 SWAP2 SUB SWAP1 REVERT JUMPDEST PUSH7 0x2386F26FC10000 CALLVALUE LT ISZERO PUSH2 0x775 JUMPI PUSH1 0x40 MLOAD PUSH32 0x8C379A000000000000000000000000000000000000000000000000000000000 DUP2 MSTORE PUSH1 0x4 ADD PUSH2 0x76C SWAP1 PUSH2 0x18EE JUMP JUMPDEST PUSH1 0x40 MLOAD DUP1 SWAP2 SUB SWAP1 REVERT JUMPDEST PUSH0 PUSH1 0x2 PUSH0 DUP5 DUP2 MSTORE PUSH1 0x20 ADD SWAP1 DUP2 MSTORE PUSH1 0x20 ADD PUSH0 KECCAK256 PUSH0 CALLER PUSH20 0xFFFFFFFFFFFFFFFFFFFFFFFFFFFFFFFFFFFFFFFF AND PUSH20 0xFFFFFFFFFFFFFFFFFFFFFFFFFFFFFFFFFFFFFFFF AND DUP2 MSTORE PUSH1 0x20 ADD SWAP1 DUP2 MSTORE PUSH1 0x20 ADD PUSH0 KECCAK256 SLOAD EQ PUSH2 0x803 JUMPI PUSH1 0x40 MLOAD PUSH32 0x8C379A000000000000000000000000000000000000000000000000000000000 DUP2 MSTORE PUSH1 0x4 ADD PUSH2 0x7FA SWAP1 PUSH2 0x1956 JUMP JUMPDEST PUSH1 0x40 MLOAD DUP1 SWAP2 SUB SWAP1 REVERT JUMPDEST DUP1 PUSH1 0x3 ADD SLOAD TIMESTAMP LT PUSH2 0x849 JUMPI PUSH1 0x40 MLOAD PUSH32 0x8C379A000000000000000000000000000000000000000000000000000000000 DUP2 MSTORE PUSH1 0x4 ADD PUSH2 0x840 SWAP1 PUSH2 0x19BE JUMP JUMPDEST PUSH1 0x40 MLOAD DUP1 SWAP2 SUB SWAP1 REVERT JUMPDEST DUP1 PUSH1 0x5 ADD SLOAD CALLVALUE GT PUSH2 0x88F JUMPI PUSH1 0x40 MLOAD PUSH32 0x8C379A000000000000000000000000000000000000000000000000000000000 DUP2 MSTORE PUSH1 0x4 ADD PUSH2 0x886 SWAP1 PUSH2 0x1A4C JUMP JUMPDEST PUSH1 0x40 MLOAD DUP1 SWAP2 SUB SWAP1 REVERT JUMPDEST CALLER DUP2 PUSH1 0x4 ADD PUSH0 PUSH2 0x100 EXP DUP2 SLOAD DUP2 PUSH20 0xFFFFFFFFFFFFFFFFFFFFFFFFFFFFFFFFFFFFFFFF MUL NOT AND SWAP1 DUP4 PUSH20 0xFFFFFFFFFFFFFFFFFFFFFFFFFFFFFFFFFFFFFFFF AND MUL OR SWAP1 SSTORE POP CALLVALUE DUP2 PUSH1 0x5 ADD DUP2 SWAP1 SSTORE POP CALLVALUE PUSH1 0x2 PUSH0 DUP5 DUP2 MSTORE PUSH1 0x20 ADD SWAP1 DUP2 MSTORE PUSH1 0x20 ADD PUSH0 KECCAK256 PUSH0 CALLER PUSH20 0xFFFFFFFFFFFFFFFFFFFFFFFFFFFFFFFFFFFFFFFF AND PUSH20 0xFFFFFFFFFFFFFFFFFFFFFFFFFFFFFFFFFFFFFFFF AND DUP2 MSTORE PUSH1 0x20 ADD SWAP1 DUP2 MSTORE PUSH1 0x20 ADD PUSH0 KECCAK256 DUP2 SWAP1 SSTORE POP PUSH0 DUP2 PUSH1 0x4 ADD PUSH0 SWAP1 SLOAD SWAP1 PUSH2 0x100 EXP SWAP1 DIV PUSH20 0xFFFFFFFFFFFFFFFFFFFFFFFFFFFFFFFFFFFFFFFF AND PUSH20 0xFFFFFFFFFFFFFFFFFFFFFFFFFFFFFFFFFFFFFFFF AND DUP3 PUSH1 0x5 ADD SLOAD PUSH1 0x40 MLOAD PUSH2 0x977 SWAP1 PUSH2 0x179A JUMP JUMPDEST PUSH0 PUSH1 0x40 MLOAD DUP1 DUP4 SUB DUP2 DUP6 DUP8 GAS CALL SWAP3 POP POP POP RETURNDATASIZE DUP1 PUSH0 DUP2 EQ PUSH2 0x9B1 JUMPI PUSH1 0x40 MLOAD SWAP2 POP PUSH1 0x1F NOT PUSH1 0x3F RETURNDATASIZE ADD AND DUP3 ADD PUSH1 0x40 MSTORE RETURNDATASIZE DUP3 MSTORE RETURNDATASIZE PUSH0 PUSH1 0x20 DUP5 ADD RETURNDATACOPY PUSH2 0x9B6 JUMP JUMPDEST PUSH1 0x60 SWAP2 POP JUMPDEST POP POP SWAP1 POP DUP1 PUSH2 0x9FA JUMPI PUSH1 0x40 MLOAD PUSH32 0x8C379A000000000000000000000000000000000000000000000000000000000 DUP2 MSTORE PUSH1 0x4 ADD PUSH2 0x9F1 SWAP1 PUSH2 0x1AB4 JUMP JUMPDEST PUSH1 0x40 MLOAD DUP1 SWAP2 SUB SWAP1 REVERT JUMPDEST PUSH32 0x3138D8D517460C959FB333D4E8D87EA984F1CF15D6742C02E2955DD27A622B70 DUP4 CALLER CALLVALUE TIMESTAMP PUSH1 0x40 MLOAD PUSH2 0xA2F SWAP5 SWAP4 SWAP3 SWAP2 SWAP1 PUSH2 0x1AD2 JUMP JUMPDEST PUSH1 0x40 MLOAD DUP1 SWAP2 SUB SWAP1 LOG1 POP POP POP JUMP JUMPDEST PUSH1 0x1 PUSH1 0x20 MSTORE DUP1 PUSH0 MSTORE PUSH1 0x40 PUSH0 KECCAK256 PUSH0 SWAP2 POP SWAP1 POP DUP1 PUSH0 ADD SLOAD SWAP1 DUP1 PUSH1 0x1 ADD PUSH0 SWAP1 SLOAD SWAP1 PUSH2 0x100 EXP SWAP1 DIV PUSH20 0xFFFFFFFFFFFFFFFFFFFFFFFFFFFFFFFFFFFFFFFF AND SWAP1 DUP1 PUSH1 0x2 ADD DUP1 SLOAD PUSH2 0xA86 SWAP1 PUSH2 0x1B42 JUMP JUMPDEST DUP1 PUSH1 0x1F ADD PUSH1 0x20 DUP1 SWAP2 DIV MUL PUSH1 0x20 ADD PUSH1 0x40 MLOAD SWAP1 DUP2 ADD PUSH1 0x40 MSTORE DUP1 SWAP3 SWAP2 SWAP1 DUP2 DUP2 MSTORE PUSH1 0x20 ADD DUP3 DUP1 SLOAD PUSH2 0xAB2 SWAP1 PUSH2 0x1B42 JUMP JUMPDEST DUP1 ISZERO PUSH2 0xAFD JUMPI DUP1 PUSH1 0x1F LT PUSH2 0xAD4 JUMPI PUSH2 0x100 DUP1 DUP4 SLOAD DIV MUL DUP4 MSTORE SWAP2 PUSH1 0x20 ADD SWAP2 PUSH2 0xAFD JUMP JUMPDEST DUP3 ADD SWAP2 SWAP1 PUSH0 MSTORE PUSH1 0x20 PUSH0 KECCAK256 SWAP1 JUMPDEST DUP2 SLOAD DUP2 MSTORE SWAP1 PUSH1 0x1 ADD SWAP1 PUSH1 0x20 ADD DUP1 DUP4 GT PUSH2 0xAE0 JUMPI DUP3 SWAP1 SUB PUSH1 0x1F AND DUP3 ADD SWAP2 JUMPDEST POP POP POP POP POP SWAP1 DUP1 PUSH1 0x3 ADD SLOAD SWAP1 DUP1 PUSH1 0x4 ADD PUSH0 SWAP1 SLOAD SWAP1 PUSH2 0x100 EXP SWAP1 DIV PUSH20 0xFFFFFFFFFFFFFFFFFFFFFFFFFFFFFFFFFFFFFFFF AND SWAP1 DUP1 PUSH1 0x5 ADD SLOAD SWAP1 POP DUP7 JUMP JUMPDEST PUSH1 0x60 PUSH0 PUSH0 SLOAD PUSH8 0xFFFFFFFFFFFFFFFF DUP2 GT ISZERO PUSH2 0xB56 JUMPI PUSH2 0xB55 PUSH2 0x1429 JUMP JUMPDEST JUMPDEST PUSH1 0x40 MLOAD SWAP1 DUP1 DUP3 MSTORE DUP1 PUSH1 0x20 MUL PUSH1 0x20 ADD DUP3 ADD PUSH1 0x40 MSTORE DUP1 ISZERO PUSH2 0xB8F JUMPI DUP2 PUSH1 0x20 ADD JUMPDEST PUSH2 0xB7C PUSH2 0xFD0 JUMP JUMPDEST DUP2 MSTORE PUSH1 0x20 ADD SWAP1 PUSH1 0x1 SWAP1 SUB SWAP1 DUP2 PUSH2 0xB74 JUMPI SWAP1 POP JUMPDEST POP SWAP1 POP PUSH0 PUSH0 SWAP1 POP JUMPDEST PUSH0 SLOAD DUP2 LT ISZERO PUSH2 0xD4A JUMPI PUSH1 0x1 PUSH0 PUSH1 0x1 DUP4 PUSH2 0xBB0 SWAP2 SWAP1 PUSH2 0x1B9F JUMP JUMPDEST DUP2 MSTORE PUSH1 0x20 ADD SWAP1 DUP2 MSTORE PUSH1 0x20 ADD PUSH0 KECCAK256 PUSH1 0x40 MLOAD DUP1 PUSH1 0xC0 ADD PUSH1 0x40 MSTORE SWAP1 DUP2 PUSH0 DUP3 ADD SLOAD DUP2 MSTORE PUSH1 0x20 ADD PUSH1 0x1 DUP3 ADD PUSH0 SWAP1 SLOAD SWAP1 PUSH2 0x100 EXP SWAP1 DIV PUSH20 0xFFFFFFFFFFFFFFFFFFFFFFFFFFFFFFFFFFFFFFFF AND PUSH20 0xFFFFFFFFFFFFFFFFFFFFFFFFFFFFFFFFFFFFFFFF AND PUSH20 0xFFFFFFFFFFFFFFFFFFFFFFFFFFFFFFFFFFFFFFFF AND DUP2 MSTORE PUSH1 0x20 ADD PUSH1 0x2 DUP3 ADD DUP1 SLOAD PUSH2 0xC36 SWAP1 PUSH2 0x1B42 JUMP JUMPDEST DUP1 PUSH1 0x1F ADD PUSH1 0x20 DUP1 SWAP2 DIV MUL PUSH1 0x20 ADD PUSH1 0x40 MLOAD SWAP1 DUP2 ADD PUSH1 0x40 MSTORE DUP1 SWAP3 SWAP2 SWAP1 DUP2 DUP2 MSTORE PUSH1 0x20 ADD DUP3 DUP1 SLOAD PUSH2 0xC62 SWAP1 PUSH2 0x1B42 JUMP JUMPDEST DUP1 ISZERO PUSH2 0xCAD JUMPI DUP1 PUSH1 0x1F LT PUSH2 0xC84 JUMPI PUSH2 0x100 DUP1 DUP4 SLOAD DIV MUL DUP4 MSTORE SWAP2 PUSH1 0x20 ADD SWAP2 PUSH2 0xCAD JUMP JUMPDEST DUP3 ADD SWAP2 SWAP1 PUSH0 MSTORE PUSH1 0x20 PUSH0 KECCAK256 SWAP1 JUMPDEST DUP2 SLOAD DUP2 MSTORE SWAP1 PUSH1 0x1 ADD SWAP1 PUSH1 0x20 ADD DUP1 DUP4 GT PUSH2 0xC90 JUMPI DUP3 SWAP1 SUB PUSH1 0x1F AND DUP3 ADD SWAP2 JUMPDEST POP POP POP POP POP DUP2 MSTORE PUSH1 0x20 ADD PUSH1 0x3 DUP3 ADD SLOAD DUP2 MSTORE PUSH1 0x20 ADD PUSH1 0x4 DUP3 ADD PUSH0 SWAP1 SLOAD SWAP1 PUSH2 0x100 EXP SWAP1 DIV PUSH20 0xFFFFFFFFFFFFFFFFFFFFFFFFFFFFFFFFFFFFFFFF AND PUSH20 0xFFFFFFFFFFFFFFFFFFFFFFFFFFFFFFFFFFFFFFFF AND PUSH20 0xFFFFFFFFFFFFFFFFFFFFFFFFFFFFFFFFFFFFFFFF AND DUP2 MSTORE PUSH1 0x20 ADD PUSH1 0x5 DUP3 ADD SLOAD DUP2 MSTORE POP POP DUP3 DUP3 DUP2 MLOAD DUP2 LT PUSH2 0xD32 JUMPI PUSH2 0xD31 PUSH2 0x1BD2 JUMP JUMPDEST JUMPDEST PUSH1 0x20 MUL PUSH1 0x20 ADD ADD DUP2 SWAP1 MSTORE POP DUP1 DUP1 PUSH1 0x1 ADD SWAP2 POP POP PUSH2 0xB97 JUMP JUMPDEST POP DUP1 SWAP2 POP POP SWAP1 JUMP JUMPDEST PUSH0 PUSH0 PUSH1 0x3C DUP4 PUSH2 0xD61 SWAP2 SWAP1 PUSH2 0x1BFF JUMP JUMPDEST SWAP1 POP PUSH1 0x3C DUP2 LT ISZERO DUP1 ISZERO PUSH2 0xD77 JUMPI POP PUSH3 0x93A80 DUP2 GT ISZERO JUMPDEST PUSH2 0xDB6 JUMPI PUSH1 0x40 MLOAD PUSH32 0x8C379A000000000000000000000000000000000000000000000000000000000 DUP2 MSTORE PUSH1 0x4 ADD PUSH2 0xDAD SWAP1 PUSH2 0x1CB0 JUMP JUMPDEST PUSH1 0x40 MLOAD DUP1 SWAP2 SUB SWAP1 REVERT JUMPDEST PUSH0 DUP5 MLOAD GT PUSH2 0xDF9 JUMPI PUSH1 0x40 MLOAD PUSH32 0x8C379A000000000000000000000000000000000000000000000000000000000 DUP2 MSTORE PUSH1 0x4 ADD PUSH2 0xDF0 SWAP1 PUSH2 0x1D3E JUMP JUMPDEST PUSH1 0x40 MLOAD DUP1 SWAP2 SUB SWAP1 REVERT JUMPDEST PUSH0 PUSH0 DUP2 SLOAD PUSH2 0xE06 SWAP1 PUSH2 0x1D5C JUMP JUMPDEST SWAP2 SWAP1 POP DUP2 SWAP1 SSTORE POP PUSH1 0x40 MLOAD DUP1 PUSH1 0xC0 ADD PUSH1 0x40 MSTORE DUP1 PUSH0 SLOAD DUP2 MSTORE PUSH1 0x20 ADD CALLER PUSH20 0xFFFFFFFFFFFFFFFFFFFFFFFFFFFFFFFFFFFFFFFF AND DUP2 MSTORE PUSH1 0x20 ADD DUP6 DUP2 MSTORE PUSH1 0x20 ADD DUP3 TIMESTAMP PUSH2 0xE4D SWAP2 SWAP1 PUSH2 0x1B9F JUMP JUMPDEST DUP2 MSTORE PUSH1 0x20 ADD PUSH0 PUSH20 0xFFFFFFFFFFFFFFFFFFFFFFFFFFFFFFFFFFFFFFFF AND DUP2 MSTORE PUSH1 0x20 ADD PUSH0 DUP2 MSTORE POP PUSH1 0x1 PUSH0 PUSH0 SLOAD DUP2 MSTORE PUSH1 0x20 ADD SWAP1 DUP2 MSTORE PUSH1 0x20 ADD PUSH0 KECCAK256 PUSH0 DUP3 ADD MLOAD DUP2 PUSH0 ADD SSTORE PUSH1 0x20 DUP3 ADD MLOAD DUP2 PUSH1 0x1 ADD PUSH0 PUSH2 0x100 EXP DUP2 SLOAD DUP2 PUSH20 0xFFFFFFFFFFFFFFFFFFFFFFFFFFFFFFFFFFFFFFFF MUL NOT AND SWAP1 DUP4 PUSH20 0xFFFFFFFFFFFFFFFFFFFFFFFFFFFFFFFFFFFFFFFF AND MUL OR SWAP1 SSTORE POP PUSH1 0x40 DUP3 ADD MLOAD DUP2 PUSH1 0x2 ADD SWAP1 DUP2 PUSH2 0xEE7 SWAP2 SWAP1 PUSH2 0x1F43 JUMP JUMPDEST POP PUSH1 0x60 DUP3 ADD MLOAD DUP2 PUSH1 0x3 ADD SSTORE PUSH1 0x80 DUP3 ADD MLOAD DUP2 PUSH1 0x4 ADD PUSH0 PUSH2 0x100 EXP DUP2 SLOAD DUP2 PUSH20 0xFFFFFFFFFFFFFFFFFFFFFFFFFFFFFFFFFFFFFFFF MUL NOT AND SWAP1 DUP4 PUSH20 0xFFFFFFFFFFFFFFFFFFFFFFFFFFFFFFFFFFFFFFFF AND MUL OR SWAP1 SSTORE POP PUSH1 0xA0 DUP3 ADD MLOAD DUP2 PUSH1 0x5 ADD SSTORE SWAP1 POP POP PUSH0 PUSH1 0x1 PUSH0 PUSH0 SLOAD DUP2 MSTORE PUSH1 0x20 ADD SWAP1 DUP2 MSTORE PUSH1 0x20 ADD PUSH0 KECCAK256 SWAP1 POP PUSH32 0x568694AA4B5066FE5362111FCFDA3F97F456688BC2ADC2538C2F2C1ACF954B34 DUP2 PUSH0 ADD SLOAD DUP3 PUSH1 0x1 ADD PUSH0 SWAP1 SLOAD SWAP1 PUSH2 0x100 EXP SWAP1 DIV PUSH20 0xFFFFFFFFFFFFFFFFFFFFFFFFFFFFFFFFFFFFFFFF AND DUP4 PUSH1 0x2 ADD DUP5 PUSH1 0x3 ADD SLOAD PUSH1 0x40 MLOAD PUSH2 0xFBC SWAP5 SWAP4 SWAP3 SWAP2 SWAP1 PUSH2 0x2093 JUMP JUMPDEST PUSH1 0x40 MLOAD DUP1 SWAP2 SUB SWAP1 LOG1 PUSH0 SLOAD SWAP3 POP POP POP SWAP3 SWAP2 POP POP JUMP JUMPDEST PUSH1 0x40 MLOAD DUP1 PUSH1 0xC0 ADD PUSH1 0x40 MSTORE DUP1 PUSH0 DUP2 MSTORE PUSH1 0x20 ADD PUSH0 PUSH20 0xFFFFFFFFFFFFFFFFFFFFFFFFFFFFFFFFFFFFFFFF AND DUP2 MSTORE PUSH1 0x20 ADD PUSH1 0x60 DUP2 MSTORE PUSH1 0x20 ADD PUSH0 DUP2 MSTORE PUSH1 0x20 ADD PUSH0 PUSH20 0xFFFFFFFFFFFFFFFFFFFFFFFFFFFFFFFFFFFFFFFF AND DUP2 MSTORE PUSH1 0x20 ADD PUSH0 DUP2 MSTORE POP SWAP1 JUMP JUMPDEST PUSH0 PUSH1 0x40 MLOAD SWAP1 POP SWAP1 JUMP JUMPDEST PUSH0 PUSH0 REVERT JUMPDEST PUSH0 PUSH0 REVERT JUMPDEST PUSH0 DUP2 SWAP1 POP SWAP2 SWAP1 POP JUMP JUMPDEST PUSH2 0x1050 DUP2 PUSH2 0x103E JUMP JUMPDEST DUP2 EQ PUSH2 0x105A JUMPI PUSH0 PUSH0 REVERT JUMPDEST POP JUMP JUMPDEST PUSH0 DUP2 CALLDATALOAD SWAP1 POP PUSH2 0x106B DUP2 PUSH2 0x1047 JUMP JUMPDEST SWAP3 SWAP2 POP POP JUMP JUMPDEST PUSH0 PUSH1 0x20 DUP3 DUP5 SUB SLT ISZERO PUSH2 0x1086 JUMPI PUSH2 0x1085 PUSH2 0x1036 JUMP JUMPDEST JUMPDEST PUSH0 PUSH2 0x1093 DUP5 DUP3 DUP6 ADD PUSH2 0x105D JUMP JUMPDEST SWAP2 POP POP SWAP3 SWAP2 POP POP JUMP JUMPDEST PUSH2 0x10A5 DUP2 PUSH2 0x103E JUMP JUMPDEST DUP3 MSTORE POP POP JUMP JUMPDEST PUSH0 PUSH1 0x20 DUP3 ADD SWAP1 POP PUSH2 0x10BE PUSH0 DUP4 ADD DUP5 PUSH2 0x109C JUMP JUMPDEST SWAP3 SWAP2 POP POP JUMP JUMPDEST PUSH0 PUSH20 0xFFFFFFFFFFFFFFFFFFFFFFFFFFFFFFFFFFFFFFFF DUP3 AND SWAP1 POP SWAP2 SWAP1 POP JUMP JUMPDEST PUSH0 PUSH2 0x10ED DUP3 PUSH2 0x10C4 JUMP JUMPDEST SWAP1 POP SWAP2 SWAP1 POP JUMP JUMPDEST PUSH2 0x10FD DUP2 PUSH2 0x10E3 JUMP JUMPDEST DUP2 EQ PUSH2 0x1107 JUMPI PUSH0 PUSH0 REVERT JUMPDEST POP JUMP JUMPDEST PUSH0 DUP2 CALLDATALOAD SWAP1 POP PUSH2 0x1118 DUP2 PUSH2 0x10F4 JUMP JUMPDEST SWAP3 SWAP2 POP POP JUMP JUMPDEST PUSH0 PUSH0 PUSH1 0x40 DUP4 DUP6 SUB SLT ISZERO PUSH2 0x1134 JUMPI PUSH2 0x1133 PUSH2 0x1036 JUMP JUMPDEST JUMPDEST PUSH0 PUSH2 0x1141 DUP6 DUP3 DUP7 ADD PUSH2 0x105D JUMP JUMPDEST SWAP3 POP POP PUSH1 0x20 PUSH2 0x1152 DUP6 DUP3 DUP7 ADD PUSH2 0x110A JUMP JUMPDEST SWAP2 POP POP SWAP3 POP SWAP3 SWAP1 POP JUMP JUMPDEST PUSH2 0x1165 DUP2 PUSH2 0x10E3 JUMP JUMPDEST DUP3 MSTORE POP POP JUMP JUMPDEST PUSH0 PUSH1 0x20 DUP3 ADD SWAP1 POP PUSH2 0x117E PUSH0 DUP4 ADD DUP5 PUSH2 0x115C JUMP JUMPDEST SWAP3 SWAP2 POP POP JUMP JUMPDEST PUSH0 DUP2 MLOAD SWAP1 POP SWAP2 SWAP1 POP JUMP JUMPDEST PUSH0 DUP3 DUP3 MSTORE PUSH1 0x20 DUP3 ADD SWAP1 POP SWAP3 SWAP2 POP POP JUMP JUMPDEST DUP3 DUP2 DUP4 MCOPY PUSH0 DUP4 DUP4 ADD MSTORE POP POP POP JUMP JUMPDEST PUSH0 PUSH1 0x1F NOT PUSH1 0x1F DUP4 ADD AND SWAP1 POP SWAP2 SWAP1 POP JUMP JUMPDEST PUSH0 PUSH2 0x11C6 DUP3 PUSH2 0x1184 JUMP JUMPDEST PUSH2 0x11D0 DUP2 DUP6 PUSH2 0x118E JUMP JUMPDEST SWAP4 POP PUSH2 0x11E0 DUP2 DUP6 PUSH1 0x20 DUP7 ADD PUSH2 0x119E JUMP JUMPDEST PUSH2 0x11E9 DUP2 PUSH2 0x11AC JUMP JUMPDEST DUP5 ADD SWAP2 POP POP SWAP3 SWAP2 POP POP JUMP JUMPDEST PUSH0 PUSH1 0xC0 DUP3 ADD SWAP1 POP PUSH2 0x1207 PUSH0 DUP4 ADD DUP10 PUSH2 0x109C JUMP JUMPDEST PUSH2 0x1214 PUSH1 0x20 DUP4 ADD DUP9 PUSH2 0x115C JUMP JUMPDEST DUP2 DUP2 SUB PUSH1 0x40 DUP4 ADD MSTORE PUSH2 0x1226 DUP2 DUP8 PUSH2 0x11BC JUMP JUMPDEST SWAP1 POP PUSH2 0x1235 PUSH1 0x60 DUP4 ADD DUP7 PUSH2 0x109C JUMP JUMPDEST PUSH2 0x1242 PUSH1 0x80 DUP4 ADD DUP6 PUSH2 0x115C JUMP JUMPDEST PUSH2 0x124F PUSH1 0xA0 DUP4 ADD DUP5 PUSH2 0x109C JUMP JUMPDEST SWAP8 SWAP7 POP POP POP POP POP POP POP JUMP JUMPDEST PUSH0 DUP2 MLOAD SWAP1 POP SWAP2 SWAP1 POP JUMP JUMPDEST PUSH0 DUP3 DUP3 MSTORE PUSH1 0x20 DUP3 ADD SWAP1 POP SWAP3 SWAP2 POP POP JUMP JUMPDEST PUSH0 DUP2 SWAP1 POP PUSH1 0x20 DUP3 ADD SWAP1 POP SWAP2 SWAP1 POP JUMP JUMPDEST PUSH2 0x128C DUP2 PUSH2 0x103E JUMP JUMPDEST DUP3 MSTORE POP POP JUMP JUMPDEST PUSH2 0x129B DUP2 PUSH2 0x10E3 JUMP JUMPDEST DUP3 MSTORE POP POP JUMP JUMPDEST PUSH0 DUP3 DUP3 MSTORE PUSH1 0x20 DUP3 ADD SWAP1 POP SWAP3 SWAP2 POP POP JUMP JUMPDEST PUSH0 PUSH2 0x12BB DUP3 PUSH2 0x1184 JUMP JUMPDEST PUSH2 0x12C5 DUP2 DUP6 PUSH2 0x12A1 JUMP JUMPDEST SWAP4 POP PUSH2 0x12D5 DUP2 DUP6 PUSH1 0x20 DUP7 ADD PUSH2 0x119E JUMP JUMPDEST PUSH2 0x12DE DUP2 PUSH2 0x11AC JUMP JUMPDEST DUP5 ADD SWAP2 POP POP SWAP3 SWAP2 POP POP JUMP JUMPDEST PUSH0 PUSH1 0xC0 DUP4 ADD PUSH0 DUP4 ADD MLOAD PUSH2 0x12FE PUSH0 DUP7 ADD DUP3 PUSH2 0x1283 JUMP JUMPDEST POP PUSH1 0x20 DUP4 ADD MLOAD PUSH2 0x1311 PUSH1 0x20 DUP7 ADD DUP3 PUSH2 0x1292 JUMP JUMPDEST POP PUSH1 0x40 DUP4 ADD MLOAD DUP5 DUP3 SUB PUSH1 0x40 DUP7 ADD MSTORE PUSH2 0x1329 DUP3 DUP3 PUSH2 0x12B1 JUMP JUMPDEST SWAP2 POP POP PUSH1 0x60 DUP4 ADD MLOAD PUSH2 0x133E PUSH1 0x60 DUP7 ADD DUP3 PUSH2 0x1283 JUMP JUMPDEST POP PUSH1 0x80 DUP4 ADD MLOAD PUSH2 0x1351 PUSH1 0x80 DUP7 ADD DUP3 PUSH2 0x1292 JUMP JUMPDEST POP PUSH1 0xA0 DUP4 ADD MLOAD PUSH2 0x1364 PUSH1 0xA0 DUP7 ADD DUP3 PUSH2 0x1283 JUMP JUMPDEST POP DUP1 SWAP2 POP POP SWAP3 SWAP2 POP POP JUMP JUMPDEST PUSH0 PUSH2 0x137A DUP4 DUP4 PUSH2 0x12E9 JUMP JUMPDEST SWAP1 POP SWAP3 SWAP2 POP POP JUMP JUMPDEST PUSH0 PUSH1 0x20 DUP3 ADD SWAP1 POP SWAP2 SWAP1 POP JUMP JUMPDEST PUSH0 PUSH2 0x1398 DUP3 PUSH2 0x125A JUMP JUMPDEST PUSH2 0x13A2 DUP2 DUP6 PUSH2 0x1264 JUMP JUMPDEST SWAP4 POP DUP4 PUSH1 0x20 DUP3 MUL DUP6 ADD PUSH2 0x13B4 DUP6 PUSH2 0x1274 JUMP JUMPDEST DUP1 PUSH0 JUMPDEST DUP6 DUP2 LT ISZERO PUSH2 0x13EF JUMPI DUP5 DUP5 SUB DUP10 MSTORE DUP2 MLOAD PUSH2 0x13D0 DUP6 DUP3 PUSH2 0x136F JUMP JUMPDEST SWAP5 POP PUSH2 0x13DB DUP4 PUSH2 0x1382 JUMP JUMPDEST SWAP3 POP PUSH1 0x20 DUP11 ADD SWAP10 POP POP PUSH1 0x1 DUP2 ADD SWAP1 POP PUSH2 0x13B7 JUMP JUMPDEST POP DUP3 SWAP8 POP DUP8 SWAP6 POP POP POP POP POP POP SWAP3 SWAP2 POP POP JUMP JUMPDEST PUSH0 PUSH1 0x20 DUP3 ADD SWAP1 POP DUP2 DUP2 SUB PUSH0 DUP4 ADD MSTORE PUSH2 0x1419 DUP2 DUP5 PUSH2 0x138E JUMP JUMPDEST SWAP1 POP SWAP3 SWAP2 POP POP JUMP JUMPDEST PUSH0 PUSH0 REVERT JUMPDEST PUSH0 PUSH0 REVERT JUMPDEST PUSH32 0x4E487B7100000000000000000000000000000000000000000000000000000000 PUSH0 MSTORE PUSH1 0x41 PUSH1 0x4 MSTORE PUSH1 0x24 PUSH0 REVERT JUMPDEST PUSH2 0x145F DUP3 PUSH2 0x11AC JUMP JUMPDEST DUP2 ADD DUP2 DUP2 LT PUSH8 0xFFFFFFFFFFFFFFFF DUP3 GT OR ISZERO PUSH2 0x147E JUMPI PUSH2 0x147D PUSH2 0x1429 JUMP JUMPDEST JUMPDEST DUP1 PUSH1 0x40 MSTORE POP POP POP JUMP JUMPDEST PUSH0 PUSH2 0x1490 PUSH2 0x102D JUMP JUMPDEST SWAP1 POP PUSH2 0x149C DUP3 DUP3 PUSH2 0x1456 JUMP JUMPDEST SWAP2 SWAP1 POP JUMP JUMPDEST PUSH0 PUSH8 0xFFFFFFFFFFFFFFFF DUP3 GT ISZERO PUSH2 0x14BB JUMPI PUSH2 0x14BA PUSH2 0x1429 JUMP JUMPDEST JUMPDEST PUSH2 0x14C4 DUP3 PUSH2 0x11AC JUMP JUMPDEST SWAP1 POP PUSH1 0x20 DUP2 ADD SWAP1 POP SWAP2 SWAP1 POP JUMP JUMPDEST DUP3 DUP2 DUP4 CALLDATACOPY PUSH0 DUP4 DUP4 ADD MSTORE POP POP POP JUMP JUMPDEST PUSH0 PUSH2 0x14F1 PUSH2 0x14EC DUP5 PUSH2 0x14A1 JUMP JUMPDEST PUSH2 0x1487 JUMP JUMPDEST SWAP1 POP DUP3 DUP2 MSTORE PUSH1 0x20 DUP2 ADD DUP5 DUP5 DUP5 ADD GT ISZERO PUSH2 0x150D JUMPI PUSH2 0x150C PUSH2 0x1425 JUMP JUMPDEST JUMPDEST PUSH2 0x1518 DUP5 DUP3 DUP6 PUSH2 0x14D1 JUMP JUMPDEST POP SWAP4 SWAP3 POP POP POP JUMP JUMPDEST PUSH0 DUP3 PUSH1 0x1F DUP4 ADD SLT PUSH2 0x1534 JUMPI PUSH2 0x1533 PUSH2 0x1421 JUMP JUMPDEST JUMPDEST DUP2 CALLDATALOAD PUSH2 0x1544 DUP5 DUP3 PUSH1 0x20 DUP7 ADD PUSH2 0x14DF JUMP JUMPDEST SWAP2 POP POP SWAP3 SWAP2 POP POP JUMP JUMPDEST PUSH0 PUSH0 PUSH1 0x40 DUP4 DUP6 SUB SLT ISZERO PUSH2 0x1563 JUMPI PUSH2 0x1562 PUSH2 0x1036 JUMP JUMPDEST JUMPDEST PUSH0 DUP4 ADD CALLDATALOAD PUSH8 0xFFFFFFFFFFFFFFFF DUP2 GT ISZERO PUSH2 0x1580 JUMPI PUSH2 0x157F PUSH2 0x103A JUMP JUMPDEST JUMPDEST PUSH2 0x158C DUP6 DUP3 DUP7 ADD PUSH2 0x1520 JUMP JUMPDEST SWAP3 POP POP PUSH1 0x20 PUSH2 0x159D DUP6 DUP3 DUP7 ADD PUSH2 0x105D JUMP JUMPDEST SWAP2 POP POP SWAP3 POP SWAP3 SWAP1 POP JUMP JUMPDEST PUSH32 0x4C612073756261737461206E6F206578697374652E0000000000000000000000 PUSH0 DUP3 ADD MSTORE POP JUMP JUMPDEST PUSH0 PUSH2 0x15DB PUSH1 0x15 DUP4 PUSH2 0x118E JUMP JUMPDEST SWAP2 POP PUSH2 0x15E6 DUP3 PUSH2 0x15A7 JUMP JUMPDEST PUSH1 0x20 DUP3 ADD SWAP1 POP SWAP2 SWAP1 POP JUMP JUMPDEST PUSH0 PUSH1 0x20 DUP3 ADD SWAP1 POP DUP2 DUP2 SUB PUSH0 DUP4 ADD MSTORE PUSH2 0x1608 DUP2 PUSH2 0x15CF JUMP JUMPDEST SWAP1 POP SWAP2 SWAP1 POP JUMP JUMPDEST PUSH32 0x4C612073756261737461206E6F206861207465726D696E61646F2E0000000000 PUSH0 DUP3 ADD MSTORE POP JUMP JUMPDEST PUSH0 PUSH2 0x1643 PUSH1 0x1B DUP4 PUSH2 0x118E JUMP JUMPDEST SWAP2 POP PUSH2 0x164E DUP3 PUSH2 0x160F JUMP JUMPDEST PUSH1 0x20 DUP3 ADD SWAP1 POP SWAP2 SWAP1 POP JUMP JUMPDEST PUSH0 PUSH1 0x20 DUP3 ADD SWAP1 POP DUP2 DUP2 SUB PUSH0 DUP4 ADD MSTORE PUSH2 0x1670 DUP2 PUSH2 0x1637 JUMP JUMPDEST SWAP1 POP SWAP2 SWAP1 POP JUMP JUMPDEST PUSH32 0x4E6F2070756564657320726574697261722074752070756A612C206861732067 PUSH0 DUP3 ADD MSTORE PUSH32 0x616E61646F206C61207375626173746100000000000000000000000000000000 PUSH1 0x20 DUP3 ADD MSTORE POP JUMP JUMPDEST PUSH0 PUSH2 0x16D1 PUSH1 0x30 DUP4 PUSH2 0x118E JUMP JUMPDEST SWAP2 POP PUSH2 0x16DC DUP3 PUSH2 0x1677 JUMP JUMPDEST PUSH1 0x40 DUP3 ADD SWAP1 POP SWAP2 SWAP1 POP JUMP JUMPDEST PUSH0 PUSH1 0x20 DUP3 ADD SWAP1 POP DUP2 DUP2 SUB PUSH0 DUP4 ADD MSTORE PUSH2 0x16FE DUP2 PUSH2 0x16C5 JUMP JUMPDEST SWAP1 POP SWAP2 SWAP1 POP JUMP JUMPDEST PUSH32 0x4E6F206861732070756A61646F20656E206573746120737562617374612E0000 PUSH0 DUP3 ADD MSTORE POP JUMP JUMPDEST PUSH0 PUSH2 0x1739 PUSH1 0x1E DUP4 PUSH2 0x118E JUMP JUMPDEST SWAP2 POP PUSH2 0x1744 DUP3 PUSH2 0x1705 JUMP JUMPDEST PUSH1 0x20 DUP3 ADD SWAP1 POP SWAP2 SWAP1 POP JUMP JUMPDEST PUSH0 PUSH1 0x20 DUP3 ADD SWAP1 POP DUP2 DUP2 SUB PUSH0 DUP4 ADD MSTORE PUSH2 0x1766 DUP2 PUSH2 0x172D JUMP JUMPDEST SWAP1 POP SWAP2 SWAP1 POP JUMP JUMPDEST PUSH0 DUP2 SWAP1 POP SWAP3 SWAP2 POP POP JUMP JUMPDEST POP JUMP JUMPDEST PUSH0 PUSH2 0x1785 PUSH0 DUP4 PUSH2 0x176D JUMP JUMPDEST SWAP2 POP PUSH2 0x1790 DUP3 PUSH2 0x1777 JUMP JUMPDEST PUSH0 DUP3 ADD SWAP1 POP SWAP2 SWAP1 POP JUMP JUMPDEST PUSH0 PUSH2 0x17A4 DUP3 PUSH2 0x177A JUMP JUMPDEST SWAP2 POP DUP2 SWAP1 POP SWAP2 SWAP1 POP JUMP JUMPDEST PUSH32 0x4C61207472616E73666572656E6369612068612066616C6C61646F0000000000 PUSH0 DUP3 ADD MSTORE POP JUMP JUMPDEST PUSH0 PUSH2 0x17E2 PUSH1 0x1B DUP4 PUSH2 0x118E JUMP JUMPDEST SWAP2 POP PUSH2 0x17ED DUP3 PUSH2 0x17AE JUMP JUMPDEST PUSH1 0x20 DUP3 ADD SWAP1 POP SWAP2 SWAP1 POP JUMP JUMPDEST PUSH0 PUSH1 0x20 DUP3 ADD SWAP1 POP DUP2 DUP2 SUB PUSH0 DUP4 ADD MSTORE PUSH2 0x180F DUP2 PUSH2 0x17D6 JUMP JUMPDEST SWAP1 POP SWAP2 SWAP1 POP JUMP JUMPDEST PUSH32 0x4E616469652068612070756A61646F20656E206573746120737562617374612E PUSH0 DUP3 ADD MSTORE POP JUMP JUMPDEST PUSH0 PUSH2 0x184A PUSH1 0x20 DUP4 PUSH2 0x118E JUMP JUMPDEST SWAP2 POP PUSH2 0x1855 DUP3 PUSH2 0x1816 JUMP JUMPDEST PUSH1 0x20 DUP3 ADD SWAP1 POP SWAP2 SWAP1 POP JUMP JUMPDEST PUSH0 PUSH1 0x20 DUP3 ADD SWAP1 POP DUP2 DUP2 SUB PUSH0 DUP4 ADD MSTORE PUSH2 0x1877 DUP2 PUSH2 0x183E JUMP JUMPDEST SWAP1 POP SWAP2 SWAP1 POP JUMP JUMPDEST PUSH32 0x4C612070756A61207469656E65207175652073657220646520616C206D656E6F PUSH0 DUP3 ADD MSTORE PUSH32 0x7320302E30312065746865722E00000000000000000000000000000000000000 PUSH1 0x20 DUP3 ADD MSTORE POP JUMP JUMPDEST PUSH0 PUSH2 0x18D8 PUSH1 0x2D DUP4 PUSH2 0x118E JUMP JUMPDEST SWAP2 POP PUSH2 0x18E3 DUP3 PUSH2 0x187E JUMP JUMPDEST PUSH1 0x40 DUP3 ADD SWAP1 POP SWAP2 SWAP1 POP JUMP JUMPDEST PUSH0 PUSH1 0x20 DUP3 ADD SWAP1 POP DUP2 DUP2 SUB PUSH0 DUP4 ADD MSTORE PUSH2 0x1905 DUP2 PUSH2 0x18CC JUMP JUMPDEST SWAP1 POP SWAP2 SWAP1 POP JUMP JUMPDEST PUSH32 0x4E6F2070756564657320766F6C76657220612070756A61722E00000000000000 PUSH0 DUP3 ADD MSTORE POP JUMP JUMPDEST PUSH0 PUSH2 0x1940 PUSH1 0x19 DUP4 PUSH2 0x118E JUMP JUMPDEST SWAP2 POP PUSH2 0x194B DUP3 PUSH2 0x190C JUMP JUMPDEST PUSH1 0x20 DUP3 ADD SWAP1 POP SWAP2 SWAP1 POP JUMP JUMPDEST PUSH0 PUSH1 0x20 DUP3 ADD SWAP1 POP DUP2 DUP2 SUB PUSH0 DUP4 ADD MSTORE PUSH2 0x196D DUP2 PUSH2 0x1934 JUMP JUMPDEST SWAP1 POP SWAP2 SWAP1 POP JUMP JUMPDEST PUSH32 0x4C612073756261737461207961206861207465726D696E61646F2E0000000000 PUSH0 DUP3 ADD MSTORE POP JUMP JUMPDEST PUSH0 PUSH2 0x19A8 PUSH1 0x1B DUP4 PUSH2 0x118E JUMP JUMPDEST SWAP2 POP PUSH2 0x19B3 DUP3 PUSH2 0x1974 JUMP JUMPDEST PUSH1 0x20 DUP3 ADD SWAP1 POP SWAP2 SWAP1 POP JUMP JUMPDEST PUSH0 PUSH1 0x20 DUP3 ADD SWAP1 POP DUP2 DUP2 SUB PUSH0 DUP4 ADD MSTORE PUSH2 0x19D5 DUP2 PUSH2 0x199C JUMP JUMPDEST SWAP1 POP SWAP2 SWAP1 POP JUMP JUMPDEST PUSH32 0x4C612070756A61207469656E652071756520736572206D61796F722071756520 PUSH0 DUP3 ADD MSTORE PUSH32 0x6C612070756A612061637475616C2E0000000000000000000000000000000000 PUSH1 0x20 DUP3 ADD MSTORE POP JUMP JUMPDEST PUSH0 PUSH2 0x1A36 PUSH1 0x2F DUP4 PUSH2 0x118E JUMP JUMPDEST SWAP2 POP PUSH2 0x1A41 DUP3 PUSH2 0x19DC JUMP JUMPDEST PUSH1 0x40 DUP3 ADD SWAP1 POP SWAP2 SWAP1 POP JUMP JUMPDEST PUSH0 PUSH1 0x20 DUP3 ADD SWAP1 POP DUP2 DUP2 SUB PUSH0 DUP4 ADD MSTORE PUSH2 0x1A63 DUP2 PUSH2 0x1A2A JUMP JUMPDEST SWAP1 POP SWAP2 SWAP1 POP JUMP JUMPDEST PUSH32 0x5472616E73666572206661696C65640000000000000000000000000000000000 PUSH0 DUP3 ADD MSTORE POP JUMP JUMPDEST PUSH0 PUSH2 0x1A9E PUSH1 0xF DUP4 PUSH2 0x118E JUMP JUMPDEST SWAP2 POP PUSH2 0x1AA9 DUP3 PUSH2 0x1A6A JUMP JUMPDEST PUSH1 0x20 DUP3 ADD SWAP1 POP SWAP2 SWAP1 POP JUMP JUMPDEST PUSH0 PUSH1 0x20 DUP3 ADD SWAP1 POP DUP2 DUP2 SUB PUSH0 DUP4 ADD MSTORE PUSH2 0x1ACB DUP2 PUSH2 0x1A92 JUMP JUMPDEST SWAP1 POP SWAP2 SWAP1 POP JUMP JUMPDEST PUSH0 PUSH1 0x80 DUP3 ADD SWAP1 POP PUSH2 0x1AE5 PUSH0 DUP4 ADD DUP8 PUSH2 0x109C JUMP JUMPDEST PUSH2 0x1AF2 PUSH1 0x20 DUP4 ADD DUP7 PUSH2 0x115C JUMP JUMPDEST PUSH2 0x1AFF PUSH1 0x40 DUP4 ADD DUP6 PUSH2 0x109C JUMP JUMPDEST PUSH2 0x1B0C PUSH1 0x60 DUP4 ADD DUP5 PUSH2 0x109C JUMP JUMPDEST SWAP6 SWAP5 POP POP POP POP POP JUMP JUMPDEST PUSH32 0x4E487B7100000000000000000000000000000000000000000000000000000000 PUSH0 MSTORE PUSH1 0x22 PUSH1 0x4 MSTORE PUSH1 0x24 PUSH0 REVERT JUMPDEST PUSH0 PUSH1 0x2 DUP3 DIV SWAP1 POP PUSH1 0x1 DUP3 AND DUP1 PUSH2 0x1B59 JUMPI PUSH1 0x7F DUP3 AND SWAP2 POP JUMPDEST PUSH1 0x20 DUP3 LT DUP2 SUB PUSH2 0x1B6C JUMPI PUSH2 0x1B6B PUSH2 0x1B15 JUMP JUMPDEST JUMPDEST POP SWAP2 SWAP1 POP JUMP JUMPDEST PUSH32 0x4E487B7100000000000000000000000000000000000000000000000000000000 PUSH0 MSTORE PUSH1 0x11 PUSH1 0x4 MSTORE PUSH1 0x24 PUSH0 REVERT JUMPDEST PUSH0 PUSH2 0x1BA9 DUP3 PUSH2 0x103E JUMP JUMPDEST SWAP2 POP PUSH2 0x1BB4 DUP4 PUSH2 0x103E JUMP JUMPDEST SWAP3 POP DUP3 DUP3 ADD SWAP1 POP DUP1 DUP3 GT ISZERO PUSH2 0x1BCC JUMPI PUSH2 0x1BCB PUSH2 0x1B72 JUMP JUMPDEST JUMPDEST SWAP3 SWAP2 POP POP JUMP JUMPDEST PUSH32 0x4E487B7100000000000000000000000000000000000000000000000000000000 PUSH0 MSTORE PUSH1 0x32 PUSH1 0x4 MSTORE PUSH1 0x24 PUSH0 REVERT JUMPDEST PUSH0 PUSH2 0x1C09 DUP3 PUSH2 0x103E JUMP JUMPDEST SWAP2 POP PUSH2 0x1C14 DUP4 PUSH2 0x103E JUMP JUMPDEST SWAP3 POP DUP3 DUP3 MUL PUSH2 0x1C22 DUP2 PUSH2 0x103E JUMP JUMPDEST SWAP2 POP DUP3 DUP3 DIV DUP5 EQ DUP4 ISZERO OR PUSH2 0x1C39 JUMPI PUSH2 0x1C38 PUSH2 0x1B72 JUMP JUMPDEST JUMPDEST POP SWAP3 SWAP2 POP POP JUMP JUMPDEST PUSH32 0x456C207469656D706F2064652073756261737461206E6F2065732076616C6964 PUSH0 DUP3 ADD MSTORE PUSH32 0x61646F0000000000000000000000000000000000000000000000000000000000 PUSH1 0x20 DUP3 ADD MSTORE POP JUMP JUMPDEST PUSH0 PUSH2 0x1C9A PUSH1 0x23 DUP4 PUSH2 0x118E JUMP JUMPDEST SWAP2 POP PUSH2 0x1CA5 DUP3 PUSH2 0x1C40 JUMP JUMPDEST PUSH1 0x40 DUP3 ADD SWAP1 POP SWAP2 SWAP1 POP JUMP JUMPDEST PUSH0 PUSH1 0x20 DUP3 ADD SWAP1 POP DUP2 DUP2 SUB PUSH0 DUP4 ADD MSTORE PUSH2 0x1CC7 DUP2 PUSH2 0x1C8E JUMP JUMPDEST SWAP1 POP SWAP2 SWAP1 POP JUMP JUMPDEST PUSH32 0x4C61206465736372697063696F6E206E6F207075656465206573746172207661 PUSH0 DUP3 ADD MSTORE PUSH32 0x6369610000000000000000000000000000000000000000000000000000000000 PUSH1 0x20 DUP3 ADD MSTORE POP JUMP JUMPDEST PUSH0 PUSH2 0x1D28 PUSH1 0x23 DUP4 PUSH2 0x118E JUMP JUMPDEST SWAP2 POP PUSH2 0x1D33 DUP3 PUSH2 0x1CCE JUMP JUMPDEST PUSH1 0x40 DUP3 ADD SWAP1 POP SWAP2 SWAP1 POP JUMP JUMPDEST PUSH0 PUSH1 0x20 DUP3 ADD SWAP1 POP DUP2 DUP2 SUB PUSH0 DUP4 ADD MSTORE PUSH2 0x1D55 DUP2 PUSH2 0x1D1C JUMP JUMPDEST SWAP1 POP SWAP2 SWAP1 POP JUMP JUMPDEST PUSH0 PUSH2 0x1D66 DUP3 PUSH2 0x103E JUMP JUMPDEST SWAP2 POP PUSH32 0xFFFFFFFFFFFFFFFFFFFFFFFFFFFFFFFFFFFFFFFFFFFFFFFFFFFFFFFFFFFFFFFF DUP3 SUB PUSH2 0x1D98 JUMPI PUSH2 0x1D97 PUSH2 0x1B72 JUMP JUMPDEST JUMPDEST PUSH1 0x1 DUP3 ADD SWAP1 POP SWAP2 SWAP1 POP JUMP JUMPDEST PUSH0 DUP2 SWAP1 POP DUP2 PUSH0 MSTORE PUSH1 0x20 PUSH0 KECCAK256 SWAP1 POP SWAP2 SWAP1 POP JUMP JUMPDEST PUSH0 PUSH1 0x20 PUSH1 0x1F DUP4 ADD DIV SWAP1 POP SWAP2 SWAP1 POP JUMP JUMPDEST PUSH0 DUP3 DUP3 SHL SWAP1 POP SWAP3 SWAP2 POP POP JUMP JUMPDEST PUSH0 PUSH1 0x8 DUP4 MUL PUSH2 0x1DFF PUSH32 0xFFFFFFFFFFFFFFFFFFFFFFFFFFFFFFFFFFFFFFFFFFFFFFFFFFFFFFFFFFFFFFFF DUP3 PUSH2 0x1DC4 JUMP JUMPDEST PUSH2 0x1E09 DUP7 DUP4 PUSH2 0x1DC4 JUMP JUMPDEST SWAP6 POP DUP1 NOT DUP5 AND SWAP4 POP DUP1 DUP7 AND DUP5 OR SWAP3 POP POP POP SWAP4 SWAP3 POP POP POP JUMP JUMPDEST PUSH0 DUP2 SWAP1 POP SWAP2 SWAP1 POP JUMP JUMPDEST PUSH0 PUSH2 0x1E44 PUSH2 0x1E3F PUSH2 0x1E3A DUP5 PUSH2 0x103E JUMP JUMPDEST PUSH2 0x1E21 JUMP JUMPDEST PUSH2 0x103E JUMP JUMPDEST SWAP1 POP SWAP2 SWAP1 POP JUMP JUMPDEST PUSH0 DUP2 SWAP1 POP SWAP2 SWAP1 POP JUMP JUMPDEST PUSH2 0x1E5D DUP4 PUSH2 0x1E2A JUMP JUMPDEST PUSH2 0x1E71 PUSH2 0x1E69 DUP3 PUSH2 0x1E4B JUMP JUMPDEST DUP5 DUP5 SLOAD PUSH2 0x1DD0 JUMP JUMPDEST DUP3 SSTORE POP POP POP POP JUMP JUMPDEST PUSH0 PUSH0 SWAP1 POP SWAP1 JUMP JUMPDEST PUSH2 0x1E88 PUSH2 0x1E79 JUMP JUMPDEST PUSH2 0x1E93 DUP2 DUP5 DUP5 PUSH2 0x1E54 JUMP JUMPDEST POP POP POP JUMP JUMPDEST JUMPDEST DUP2 DUP2 LT ISZERO PUSH2 0x1EB6 JUMPI PUSH2 0x1EAB PUSH0 DUP3 PUSH2 0x1E80 JUMP JUMPDEST PUSH1 0x1 DUP2 ADD SWAP1 POP PUSH2 0x1E99 JUMP JUMPDEST POP POP JUMP JUMPDEST PUSH1 0x1F DUP3 GT ISZERO PUSH2 0x1EFB JUMPI PUSH2 0x1ECC DUP2 PUSH2 0x1DA3 JUMP JUMPDEST PUSH2 0x1ED5 DUP5 PUSH2 0x1DB5 JUMP JUMPDEST DUP2 ADD PUSH1 0x20 DUP6 LT ISZERO PUSH2 0x1EE4 JUMPI DUP2 SWAP1 POP JUMPDEST PUSH2 0x1EF8 PUSH2 0x1EF0 DUP6 PUSH2 0x1DB5 JUMP JUMPDEST DUP4 ADD DUP3 PUSH2 0x1E98 JUMP JUMPDEST POP POP JUMPDEST POP POP POP JUMP JUMPDEST PUSH0 DUP3 DUP3 SHR SWAP1 POP SWAP3 SWAP2 POP POP JUMP JUMPDEST PUSH0 PUSH2 0x1F1B PUSH0 NOT DUP5 PUSH1 0x8 MUL PUSH2 0x1F00 JUMP JUMPDEST NOT DUP1 DUP4 AND SWAP2 POP POP SWAP3 SWAP2 POP POP JUMP JUMPDEST PUSH0 PUSH2 0x1F33 DUP4 DUP4 PUSH2 0x1F0C JUMP JUMPDEST SWAP2 POP DUP3 PUSH1 0x2 MUL DUP3 OR SWAP1 POP SWAP3 SWAP2 POP POP JUMP JUMPDEST PUSH2 0x1F4C DUP3 PUSH2 0x1184 JUMP JUMPDEST PUSH8 0xFFFFFFFFFFFFFFFF DUP2 GT ISZERO PUSH2 0x1F65 JUMPI PUSH2 0x1F64 PUSH2 0x1429 JUMP JUMPDEST JUMPDEST PUSH2 0x1F6F DUP3 SLOAD PUSH2 0x1B42 JUMP JUMPDEST PUSH2 0x1F7A DUP3 DUP3 DUP6 PUSH2 0x1EBA JUMP JUMPDEST PUSH0 PUSH1 0x20 SWAP1 POP PUSH1 0x1F DUP4 GT PUSH1 0x1 DUP2 EQ PUSH2 0x1FAB JUMPI PUSH0 DUP5 ISZERO PUSH2 0x1F99 JUMPI DUP3 DUP8 ADD MLOAD SWAP1 POP JUMPDEST PUSH2 0x1FA3 DUP6 DUP3 PUSH2 0x1F28 JUMP JUMPDEST DUP7 SSTORE POP PUSH2 0x200A JUMP JUMPDEST PUSH1 0x1F NOT DUP5 AND PUSH2 0x1FB9 DUP7 PUSH2 0x1DA3 JUMP JUMPDEST PUSH0 JUMPDEST DUP3 DUP2 LT ISZERO PUSH2 0x1FE0 JUMPI DUP5 DUP10 ADD MLOAD DUP3 SSTORE PUSH1 0x1 DUP3 ADD SWAP2 POP PUSH1 0x20 DUP6 ADD SWAP5 POP PUSH1 0x20 DUP2 ADD SWAP1 POP PUSH2 0x1FBB JUMP JUMPDEST DUP7 DUP4 LT ISZERO PUSH2 0x1FFD JUMPI DUP5 DUP10 ADD MLOAD PUSH2 0x1FF9 PUSH1 0x1F DUP10 AND DUP3 PUSH2 0x1F0C JUMP JUMPDEST DUP4 SSTORE POP JUMPDEST PUSH1 0x1 PUSH1 0x2 DUP9 MUL ADD DUP9 SSTORE POP POP POP JUMPDEST POP POP POP POP POP POP JUMP JUMPDEST PUSH0 DUP2 SLOAD PUSH2 0x201E DUP2 PUSH2 0x1B42 JUMP JUMPDEST PUSH2 0x2028 DUP2 DUP7 PUSH2 0x118E JUMP JUMPDEST SWAP5 POP PUSH1 0x1 DUP3 AND PUSH0 DUP2 EQ PUSH2 0x2042 JUMPI PUSH1 0x1 DUP2 EQ PUSH2 0x2058 JUMPI PUSH2 0x208A JUMP JUMPDEST PUSH1 0xFF NOT DUP4 AND DUP7 MSTORE DUP2 ISZERO ISZERO PUSH1 0x20 MUL DUP7 ADD SWAP4 POP PUSH2 0x208A JUMP JUMPDEST PUSH2 0x2061 DUP6 PUSH2 0x1DA3 JUMP JUMPDEST PUSH0 JUMPDEST DUP4 DUP2 LT ISZERO PUSH2 0x2082 JUMPI DUP2 SLOAD DUP2 DUP10 ADD MSTORE PUSH1 0x1 DUP3 ADD SWAP2 POP PUSH1 0x20 DUP2 ADD SWAP1 POP PUSH2 0x2063 JUMP JUMPDEST DUP1 DUP9 ADD SWAP6 POP POP POP JUMPDEST POP POP POP SWAP3 SWAP2 POP POP JUMP JUMPDEST PUSH0 PUSH1 0x80 DUP3 ADD SWAP1 POP PUSH2 0x20A6 PUSH0 DUP4 ADD DUP8 PUSH2 0x109C JUMP JUMPDEST PUSH2 0x20B3 PUSH1 0x20 DUP4 ADD DUP7 PUSH2 0x115C JUMP JUMPDEST DUP2 DUP2 SUB PUSH1 0x40 DUP4 ADD MSTORE PUSH2 0x20C5 DUP2 DUP6 PUSH2 0x2012 JUMP JUMPDEST SWAP1 POP PUSH2 0x20D4 PUSH1 0x60 DUP4 ADD DUP5 PUSH2 0x109C JUMP JUMPDEST SWAP6 SWAP5 POP POP POP POP POP JUMP INVALID LOG2 PUSH5 0x6970667358 0x22 SLT KECCAK256 PUSH4 0xDBAAC246 SWAP9 COINBASE STATICCALL PUSH21 0x32153C09733A6AD8603F46E6DDA85B4713E658E935 0xA8 SELFDESTRUCT PUSH5 0x736F6C6343 STOP ADDMOD 0x1F STOP CALLER "
		},
		"gasEstimates": {
			"creation": {
				"codeDepositCost": "1693400",
				"executionCost": "1776",
				"totalCost": "1695176"
			},
			"external": {
				"auctionCount()": "2447",
				"auctions(uint256)": "infinite",
				"bid(uint256)": "infinite",
				"bids(uint256,address)": "infinite",
				"createAuction(string,uint256)": "infinite",
				"getAuctions()": "infinite",
				"getWinner(uint256)": "9395",
				"refund(uint256)": "infinite"
			}
		},
		"methodIdentifiers": {
			"auctionCount()": "2ad71573",
			"auctions(uint256)": "571a26a0",
			"bid(uint256)": "454a2ab3",
			"bids(uint256,address)": "3f1ffcec",
			"createAuction(string,uint256)": "ff895239",
			"getAuctions()": "d7c06919",
			"getWinner(uint256)": "4129b2c9",
			"refund(uint256)": "278ecde1"
		}
	},
	"abi": [
		{
			"inputs": [],
			"stateMutability": "nonpayable",
			"type": "constructor"
		},
		{
			"anonymous": false,
			"inputs": [
				{
					"indexed": false,
					"internalType": "uint256",
					"name": "auctionId",
					"type": "uint256"
				},
				{
					"indexed": false,
					"internalType": "address",
					"name": "creator",
					"type": "address"
				},
				{
					"indexed": false,
					"internalType": "string",
					"name": "description",
					"type": "string"
				},
				{
					"indexed": false,
					"internalType": "uint256",
					"name": "deadline",
					"type": "uint256"
				}
			],
			"name": "AuctionCreated",
			"type": "event"
		},
		{
			"anonymous": false,
			"inputs": [
				{
					"indexed": false,
					"internalType": "uint256",
					"name": "auctionId",
					"type": "uint256"
				},
				{
					"indexed": false,
					"internalType": "address",
					"name": "bidder",
					"type": "address"
				},
				{
					"indexed": false,
					"internalType": "uint256",
					"name": "amount",
					"type": "uint256"
				},
				{
					"indexed": false,
					"internalType": "uint256",
					"name": "timestamp",
					"type": "uint256"
				}
			],
			"name": "Bid",
			"type": "event"
		},
		{
			"inputs": [],
			"name": "auctionCount",
			"outputs": [
				{
					"internalType": "uint256",
					"name": "",
					"type": "uint256"
				}
			],
			"stateMutability": "view",
			"type": "function"
		},
		{
			"inputs": [
				{
					"internalType": "uint256",
					"name": "",
					"type": "uint256"
				}
			],
			"name": "auctions",
			"outputs": [
				{
					"internalType": "uint256",
					"name": "auctionId",
					"type": "uint256"
				},
				{
					"internalType": "address",
					"name": "creator",
					"type": "address"
				},
				{
					"internalType": "string",
					"name": "description",
					"type": "string"
				},
				{
					"internalType": "uint256",
					"name": "deadline",
					"type": "uint256"
				},
				{
					"internalType": "address",
					"name": "highestBidder",
					"type": "address"
				},
				{
					"internalType": "uint256",
					"name": "highestBid",
					"type": "uint256"
				}
			],
			"stateMutability": "view",
			"type": "function"
		},
		{
			"inputs": [
				{
					"internalType": "uint256",
					"name": "_auctionId",
					"type": "uint256"
				}
			],
			"name": "bid",
			"outputs": [],
			"stateMutability": "payable",
			"type": "function"
		},
		{
			"inputs": [
				{
					"internalType": "uint256",
					"name": "",
					"type": "uint256"
				},
				{
					"internalType": "address",
					"name": "",
					"type": "address"
				}
			],
			"name": "bids",
			"outputs": [
				{
					"internalType": "uint256",
					"name": "",
					"type": "uint256"
				}
			],
			"stateMutability": "view",
			"type": "function"
		},
		{
			"inputs": [
				{
					"internalType": "string",
					"name": "_description",
					"type": "string"
				},
				{
					"internalType": "uint256",
					"name": "timeToLive",
					"type": "uint256"
				}
			],
			"name": "createAuction",
			"outputs": [
				{
					"internalType": "uint256",
					"name": "",
					"type": "uint256"
				}
			],
			"stateMutability": "nonpayable",
			"type": "function"
		},
		{
			"inputs": [],
			"name": "getAuctions",
			"outputs": [
				{
					"components": [
						{
							"internalType": "uint256",
							"name": "auctionId",
							"type": "uint256"
						},
						{
							"internalType": "address",
							"name": "creator",
							"type": "address"
						},
						{
							"internalType": "string",
							"name": "description",
							"type": "string"
						},
						{
							"internalType": "uint256",
							"name": "deadline",
							"type": "uint256"
						},
						{
							"internalType": "address",
							"name": "highestBidder",
							"type": "address"
						},
						{
							"internalType": "uint256",
							"name": "highestBid",
							"type": "uint256"
						}
					],
					"internalType": "struct AuctionSystem.Auction[]",
					"name": "",
					"type": "tuple[]"
				}
			],
			"stateMutability": "view",
			"type": "function"
		},
		{
			"inputs": [
				{
					"internalType": "uint256",
					"name": "_auctionId",
					"type": "uint256"
				}
			],
			"name": "getWinner",
			"outputs": [
				{
					"internalType": "address",
					"name": "",
					"type": "address"
				}
			],
			"stateMutability": "view",
			"type": "function"
		},
		{
			"inputs": [
				{
					"internalType": "uint256",
					"name": "_auctionId",
					"type": "uint256"
				}
			],
			"name": "refund",
			"outputs": [
				{
					"internalType": "uint256",
					"name": "",
					"type": "uint256"
				}
			],
			"stateMutability": "nonpayable",
			"type": "function"
		}
	]
}